{
  "_format": "hh-sol-artifact-1",
  "contractName": "BaseToken",
  "sourceName": "src/backend/contracts/baseToken.sol",
  "abi": [
    {
      "inputs": [
        {
          "internalType": "string",
          "name": "_name",
          "type": "string"
        },
        {
          "internalType": "string",
          "name": "_symbol",
          "type": "string"
        }
      ],
      "stateMutability": "nonpayable",
      "type": "constructor"
    },
    {
      "anonymous": false,
      "inputs": [
        {
          "indexed": true,
          "internalType": "address",
          "name": "owner",
          "type": "address"
        },
        {
          "indexed": true,
          "internalType": "address",
          "name": "spender",
          "type": "address"
        },
        {
          "indexed": false,
          "internalType": "uint256",
          "name": "value",
          "type": "uint256"
        }
      ],
      "name": "Approval",
      "type": "event"
    },
    {
      "anonymous": false,
      "inputs": [
        {
          "indexed": true,
          "internalType": "address",
          "name": "from",
          "type": "address"
        },
        {
          "indexed": true,
          "internalType": "address",
          "name": "to",
          "type": "address"
        },
        {
          "indexed": false,
          "internalType": "uint256",
          "name": "value",
          "type": "uint256"
        }
      ],
      "name": "Transfer",
      "type": "event"
    },
    {
      "inputs": [
        {
          "internalType": "address",
          "name": "newAdmin",
          "type": "address"
        }
      ],
      "name": "addValidato",
      "outputs": [],
      "stateMutability": "nonpayable",
      "type": "function"
    },
    {
      "inputs": [],
      "name": "admin",
      "outputs": [
        {
          "internalType": "address",
          "name": "",
          "type": "address"
        }
      ],
      "stateMutability": "view",
      "type": "function"
    },
    {
      "inputs": [
        {
          "internalType": "address",
          "name": "owner",
          "type": "address"
        },
        {
          "internalType": "address",
          "name": "spender",
          "type": "address"
        }
      ],
      "name": "allowance",
      "outputs": [
        {
          "internalType": "uint256",
          "name": "",
          "type": "uint256"
        }
      ],
      "stateMutability": "view",
      "type": "function"
    },
    {
      "inputs": [
        {
          "internalType": "address",
          "name": "spender",
          "type": "address"
        },
        {
          "internalType": "uint256",
          "name": "amount",
          "type": "uint256"
        }
      ],
      "name": "approve",
      "outputs": [
        {
          "internalType": "bool",
          "name": "",
          "type": "bool"
        }
      ],
      "stateMutability": "nonpayable",
      "type": "function"
    },
    {
      "inputs": [
        {
          "internalType": "address",
          "name": "account",
          "type": "address"
        }
      ],
      "name": "balanceOf",
      "outputs": [
        {
          "internalType": "uint256",
          "name": "",
          "type": "uint256"
        }
      ],
      "stateMutability": "view",
      "type": "function"
    },
    {
      "inputs": [
        {
          "internalType": "address",
          "name": "owner",
          "type": "address"
        },
        {
          "internalType": "uint256",
          "name": "amount",
          "type": "uint256"
        }
      ],
      "name": "burn",
      "outputs": [],
      "stateMutability": "nonpayable",
      "type": "function"
    },
    {
      "inputs": [],
      "name": "decimals",
      "outputs": [
        {
          "internalType": "uint8",
          "name": "",
          "type": "uint8"
        }
      ],
      "stateMutability": "view",
      "type": "function"
    },
    {
      "inputs": [
        {
          "internalType": "address",
          "name": "spender",
          "type": "address"
        },
        {
          "internalType": "uint256",
          "name": "subtractedValue",
          "type": "uint256"
        }
      ],
      "name": "decreaseAllowance",
      "outputs": [
        {
          "internalType": "bool",
          "name": "",
          "type": "bool"
        }
      ],
      "stateMutability": "nonpayable",
      "type": "function"
    },
    {
      "inputs": [
        {
          "internalType": "address",
          "name": "spender",
          "type": "address"
        },
        {
          "internalType": "uint256",
          "name": "addedValue",
          "type": "uint256"
        }
      ],
      "name": "increaseAllowance",
      "outputs": [
        {
          "internalType": "bool",
          "name": "",
          "type": "bool"
        }
      ],
      "stateMutability": "nonpayable",
      "type": "function"
    },
    {
      "inputs": [
        {
          "internalType": "address",
          "name": "to",
          "type": "address"
        },
        {
          "internalType": "uint256",
          "name": "amount",
          "type": "uint256"
        }
      ],
      "name": "mint",
      "outputs": [],
      "stateMutability": "nonpayable",
      "type": "function"
    },
    {
      "inputs": [],
      "name": "name",
      "outputs": [
        {
          "internalType": "string",
          "name": "",
          "type": "string"
        }
      ],
      "stateMutability": "view",
      "type": "function"
    },
    {
      "inputs": [],
      "name": "symbol",
      "outputs": [
        {
          "internalType": "string",
          "name": "",
          "type": "string"
        }
      ],
      "stateMutability": "view",
      "type": "function"
    },
    {
      "inputs": [],
      "name": "totalSupply",
      "outputs": [
        {
          "internalType": "uint256",
          "name": "",
          "type": "uint256"
        }
      ],
      "stateMutability": "view",
      "type": "function"
    },
    {
      "inputs": [
        {
          "internalType": "address",
          "name": "to",
          "type": "address"
        },
        {
          "internalType": "uint256",
          "name": "amount",
          "type": "uint256"
        }
      ],
      "name": "transfer",
      "outputs": [
        {
          "internalType": "bool",
          "name": "",
          "type": "bool"
        }
      ],
      "stateMutability": "nonpayable",
      "type": "function"
    },
    {
      "inputs": [
        {
          "internalType": "address",
          "name": "from",
          "type": "address"
        },
        {
          "internalType": "address",
          "name": "to",
          "type": "address"
        },
        {
          "internalType": "uint256",
          "name": "amount",
          "type": "uint256"
        }
      ],
      "name": "transferFrom",
      "outputs": [
        {
          "internalType": "bool",
          "name": "",
          "type": "bool"
        }
      ],
      "stateMutability": "nonpayable",
      "type": "function"
    }
  ],
  "bytecode": "0x60806040523480156200001157600080fd5b5060405162002171380380620021718339818101604052810190620000379190620002b5565b818181600390816200004a919062000585565b5080600490816200005c919062000585565b50505033600660006101000a81548173ffffffffffffffffffffffffffffffffffffffff021916908373ffffffffffffffffffffffffffffffffffffffff160217905550600160056000600660009054906101000a900473ffffffffffffffffffffffffffffffffffffffff1673ffffffffffffffffffffffffffffffffffffffff1673ffffffffffffffffffffffffffffffffffffffff16815260200190815260200160002060006101000a81548160ff02191690831515021790555050506200066c565b6000604051905090565b600080fd5b600080fd5b600080fd5b600080fd5b6000601f19601f8301169050919050565b7f4e487b7100000000000000000000000000000000000000000000000000000000600052604160045260246000fd5b6200018b8262000140565b810181811067ffffffffffffffff82111715620001ad57620001ac62000151565b5b80604052505050565b6000620001c262000122565b9050620001d0828262000180565b919050565b600067ffffffffffffffff821115620001f357620001f262000151565b5b620001fe8262000140565b9050602081019050919050565b60005b838110156200022b5780820151818401526020810190506200020e565b60008484015250505050565b60006200024e6200024884620001d5565b620001b6565b9050828152602081018484840111156200026d576200026c6200013b565b5b6200027a8482856200020b565b509392505050565b600082601f8301126200029a576200029962000136565b5b8151620002ac84826020860162000237565b91505092915050565b60008060408385031215620002cf57620002ce6200012c565b5b600083015167ffffffffffffffff811115620002f057620002ef62000131565b5b620002fe8582860162000282565b925050602083015167ffffffffffffffff81111562000322576200032162000131565b5b620003308582860162000282565b9150509250929050565b600081519050919050565b7f4e487b7100000000000000000000000000000000000000000000000000000000600052602260045260246000fd5b600060028204905060018216806200038d57607f821691505b602082108103620003a357620003a262000345565b5b50919050565b60008190508160005260206000209050919050565b60006020601f8301049050919050565b600082821b905092915050565b6000600883026200040d7fffffffffffffffffffffffffffffffffffffffffffffffffffffffffffffffff82620003ce565b620004198683620003ce565b95508019841693508086168417925050509392505050565b6000819050919050565b6000819050919050565b600062000466620004606200045a8462000431565b6200043b565b62000431565b9050919050565b6000819050919050565b620004828362000445565b6200049a62000491826200046d565b848454620003db565b825550505050565b600090565b620004b1620004a2565b620004be81848462000477565b505050565b5b81811015620004e657620004da600082620004a7565b600181019050620004c4565b5050565b601f8211156200053557620004ff81620003a9565b6200050a84620003be565b810160208510156200051a578190505b620005326200052985620003be565b830182620004c3565b50505b505050565b600082821c905092915050565b60006200055a600019846008026200053a565b1980831691505092915050565b600062000575838362000547565b9150826002028217905092915050565b62000590826200033a565b67ffffffffffffffff811115620005ac57620005ab62000151565b5b620005b8825462000374565b620005c5828285620004ea565b600060209050601f831160018114620005fd5760008415620005e8578287015190505b620005f4858262000567565b86555062000664565b601f1984166200060d86620003a9565b60005b82811015620006375784890151825560018201915060208501945060208101905062000610565b8683101562000657578489015162000653601f89168262000547565b8355505b6001600288020188555050505b505050505050565b611af5806200067c6000396000f3fe608060405234801561001057600080fd5b50600436106100f55760003560e01c806370a0823111610097578063a9059cbb11610066578063a9059cbb1461029a578063dd62ed3e146102ca578063f851a440146102fa578063fb4cf73d14610318576100f5565b806370a082311461020057806395d89b41146102305780639dc29fac1461024e578063a457c2d71461026a576100f5565b806323b872dd116100d357806323b872dd14610166578063313ce5671461019657806339509351146101b457806340c10f19146101e4576100f5565b806306fdde03146100fa578063095ea7b31461011857806318160ddd14610148575b600080fd5b610102610334565b60405161010f9190611140565b60405180910390f35b610132600480360381019061012d91906111fb565b6103c6565b60405161013f9190611256565b60405180910390f35b6101506103e9565b60405161015d9190611280565b60405180910390f35b610180600480360381019061017b919061129b565b6103f3565b60405161018d9190611256565b60405180910390f35b61019e610422565b6040516101ab919061130a565b60405180910390f35b6101ce60048036038101906101c991906111fb565b61042b565b6040516101db9190611256565b60405180910390f35b6101fe60048036038101906101f991906111fb565b610462565b005b61021a60048036038101906102159190611325565b610503565b6040516102279190611280565b60405180910390f35b61023861054b565b6040516102459190611140565b60405180910390f35b610268600480360381019061026391906111fb565b6105dd565b005b610284600480360381019061027f91906111fb565b61067e565b6040516102919190611256565b60405180910390f35b6102b460048036038101906102af91906111fb565b6106f5565b6040516102c19190611256565b60405180910390f35b6102e460048036038101906102df9190611352565b610718565b6040516102f19190611280565b60405180910390f35b61030261079f565b60405161030f91906113a1565b60405180910390f35b610332600480360381019061032d9190611325565b6107c5565b005b606060038054610343906113eb565b80601f016020809104026020016040519081016040528092919081815260200182805461036f906113eb565b80156103bc5780601f10610391576101008083540402835291602001916103bc565b820191906000526020600020905b81548152906001019060200180831161039f57829003601f168201915b5050505050905090565b6000806103d16108b0565b90506103de8185856108b8565b600191505092915050565b6000600254905090565b6000806103fe6108b0565b905061040b858285610a81565b610416858585610b0d565b60019150509392505050565b60006012905090565b6000806104366108b0565b90506104578185856104488589610718565b610452919061144b565b6108b8565b600191505092915050565b60011515600560003373ffffffffffffffffffffffffffffffffffffffff1673ffffffffffffffffffffffffffffffffffffffff16815260200190815260200160002060009054906101000a900460ff161515146104f5576040517f08c379a00000000000000000000000000000000000000000000000000000000081526004016104ec906114cb565b60405180910390fd5b6104ff8282610d83565b5050565b60008060008373ffffffffffffffffffffffffffffffffffffffff1673ffffffffffffffffffffffffffffffffffffffff168152602001908152602001600020549050919050565b60606004805461055a906113eb565b80601f0160208091040260200160405190810160405280929190818152602001828054610586906113eb565b80156105d35780601f106105a8576101008083540402835291602001916105d3565b820191906000526020600020905b8154815290600101906020018083116105b657829003601f168201915b5050505050905090565b60011515600560003373ffffffffffffffffffffffffffffffffffffffff1673ffffffffffffffffffffffffffffffffffffffff16815260200190815260200160002060009054906101000a900460ff16151514610670576040517f08c379a0000000000000000000000000000000000000000000000000000000008152600401610667906114cb565b60405180910390fd5b61067a8282610ed9565b5050565b6000806106896108b0565b905060006106978286610718565b9050838110156106dc576040517f08c379a00000000000000000000000000000000000000000000000000000000081526004016106d39061155d565b60405180910390fd5b6106e982868684036108b8565b60019250505092915050565b6000806107006108b0565b905061070d818585610b0d565b600191505092915050565b6000600160008473ffffffffffffffffffffffffffffffffffffffff1673ffffffffffffffffffffffffffffffffffffffff16815260200190815260200160002060008373ffffffffffffffffffffffffffffffffffffffff1673ffffffffffffffffffffffffffffffffffffffff16815260200190815260200160002054905092915050565b600660009054906101000a900473ffffffffffffffffffffffffffffffffffffffff1681565b600660009054906101000a900473ffffffffffffffffffffffffffffffffffffffff1673ffffffffffffffffffffffffffffffffffffffff163373ffffffffffffffffffffffffffffffffffffffff1614610855576040517f08c379a000000000000000000000000000000000000000000000000000000000815260040161084c906115c9565b60405180910390fd5b6001600560008373ffffffffffffffffffffffffffffffffffffffff1673ffffffffffffffffffffffffffffffffffffffff16815260200190815260200160002060006101000a81548160ff02191690831515021790555050565b600033905090565b600073ffffffffffffffffffffffffffffffffffffffff168373ffffffffffffffffffffffffffffffffffffffff1603610927576040517f08c379a000000000000000000000000000000000000000000000000000000000815260040161091e9061165b565b60405180910390fd5b600073ffffffffffffffffffffffffffffffffffffffff168273ffffffffffffffffffffffffffffffffffffffff1603610996576040517f08c379a000000000000000000000000000000000000000000000000000000000815260040161098d906116ed565b60405180910390fd5b80600160008573ffffffffffffffffffffffffffffffffffffffff1673ffffffffffffffffffffffffffffffffffffffff16815260200190815260200160002060008473ffffffffffffffffffffffffffffffffffffffff1673ffffffffffffffffffffffffffffffffffffffff168152602001908152602001600020819055508173ffffffffffffffffffffffffffffffffffffffff168373ffffffffffffffffffffffffffffffffffffffff167f8c5be1e5ebec7d5bd14f71427d1e84f3dd0314c0f7b2291e5b200ac8c7c3b92583604051610a749190611280565b60405180910390a3505050565b6000610a8d8484610718565b90507fffffffffffffffffffffffffffffffffffffffffffffffffffffffffffffffff8114610b075781811015610af9576040517f08c379a0000000000000000000000000000000000000000000000000000000008152600401610af090611759565b60405180910390fd5b610b0684848484036108b8565b5b50505050565b600073ffffffffffffffffffffffffffffffffffffffff168373ffffffffffffffffffffffffffffffffffffffff1603610b7c576040517f08c379a0000000000000000000000000000000000000000000000000000000008152600401610b73906117eb565b60405180910390fd5b600073ffffffffffffffffffffffffffffffffffffffff168273ffffffffffffffffffffffffffffffffffffffff1603610beb576040517f08c379a0000000000000000000000000000000000000000000000000000000008152600401610be29061187d565b60405180910390fd5b610bf68383836110a6565b60008060008573ffffffffffffffffffffffffffffffffffffffff1673ffffffffffffffffffffffffffffffffffffffff16815260200190815260200160002054905081811015610c7c576040517f08c379a0000000000000000000000000000000000000000000000000000000008152600401610c739061190f565b60405180910390fd5b8181036000808673ffffffffffffffffffffffffffffffffffffffff1673ffffffffffffffffffffffffffffffffffffffff16815260200190815260200160002081905550816000808573ffffffffffffffffffffffffffffffffffffffff1673ffffffffffffffffffffffffffffffffffffffff168152602001908152602001600020600082825401925050819055508273ffffffffffffffffffffffffffffffffffffffff168473ffffffffffffffffffffffffffffffffffffffff167fddf252ad1be2c89b69c2b068fc378daa952ba7f163c4a11628f55a4df523b3ef84604051610d6a9190611280565b60405180910390a3610d7d8484846110ab565b50505050565b600073ffffffffffffffffffffffffffffffffffffffff168273ffffffffffffffffffffffffffffffffffffffff1603610df2576040517f08c379a0000000000000000000000000000000000000000000000000000000008152600401610de99061197b565b60405180910390fd5b610dfe600083836110a6565b8060026000828254610e10919061144b565b92505081905550806000808473ffffffffffffffffffffffffffffffffffffffff1673ffffffffffffffffffffffffffffffffffffffff168152602001908152602001600020600082825401925050819055508173ffffffffffffffffffffffffffffffffffffffff16600073ffffffffffffffffffffffffffffffffffffffff167fddf252ad1be2c89b69c2b068fc378daa952ba7f163c4a11628f55a4df523b3ef83604051610ec19190611280565b60405180910390a3610ed5600083836110ab565b5050565b600073ffffffffffffffffffffffffffffffffffffffff168273ffffffffffffffffffffffffffffffffffffffff1603610f48576040517f08c379a0000000000000000000000000000000000000000000000000000000008152600401610f3f90611a0d565b60405180910390fd5b610f54826000836110a6565b60008060008473ffffffffffffffffffffffffffffffffffffffff1673ffffffffffffffffffffffffffffffffffffffff16815260200190815260200160002054905081811015610fda576040517f08c379a0000000000000000000000000000000000000000000000000000000008152600401610fd190611a9f565b60405180910390fd5b8181036000808573ffffffffffffffffffffffffffffffffffffffff1673ffffffffffffffffffffffffffffffffffffffff1681526020019081526020016000208190555081600260008282540392505081905550600073ffffffffffffffffffffffffffffffffffffffff168373ffffffffffffffffffffffffffffffffffffffff167fddf252ad1be2c89b69c2b068fc378daa952ba7f163c4a11628f55a4df523b3ef8460405161108d9190611280565b60405180910390a36110a1836000846110ab565b505050565b505050565b505050565b600081519050919050565b600082825260208201905092915050565b60005b838110156110ea5780820151818401526020810190506110cf565b60008484015250505050565b6000601f19601f8301169050919050565b6000611112826110b0565b61111c81856110bb565b935061112c8185602086016110cc565b611135816110f6565b840191505092915050565b6000602082019050818103600083015261115a8184611107565b905092915050565b600080fd5b600073ffffffffffffffffffffffffffffffffffffffff82169050919050565b600061119282611167565b9050919050565b6111a281611187565b81146111ad57600080fd5b50565b6000813590506111bf81611199565b92915050565b6000819050919050565b6111d8816111c5565b81146111e357600080fd5b50565b6000813590506111f5816111cf565b92915050565b6000806040838503121561121257611211611162565b5b6000611220858286016111b0565b9250506020611231858286016111e6565b9150509250929050565b60008115159050919050565b6112508161123b565b82525050565b600060208201905061126b6000830184611247565b92915050565b61127a816111c5565b82525050565b60006020820190506112956000830184611271565b92915050565b6000806000606084860312156112b4576112b3611162565b5b60006112c2868287016111b0565b93505060206112d3868287016111b0565b92505060406112e4868287016111e6565b9150509250925092565b600060ff82169050919050565b611304816112ee565b82525050565b600060208201905061131f60008301846112fb565b92915050565b60006020828403121561133b5761133a611162565b5b6000611349848285016111b0565b91505092915050565b6000806040838503121561136957611368611162565b5b6000611377858286016111b0565b9250506020611388858286016111b0565b9150509250929050565b61139b81611187565b82525050565b60006020820190506113b66000830184611392565b92915050565b7f4e487b7100000000000000000000000000000000000000000000000000000000600052602260045260246000fd5b6000600282049050600182168061140357607f821691505b602082108103611416576114156113bc565b5b50919050565b7f4e487b7100000000000000000000000000000000000000000000000000000000600052601160045260246000fd5b6000611456826111c5565b9150611461836111c5565b92508282019050808211156114795761147861141c565b5b92915050565b7f546f6b656e3a204e6f7420616e2076616c696461746f72000000000000000000600082015250565b60006114b56017836110bb565b91506114c08261147f565b602082019050919050565b600060208201905081810360008301526114e4816114a8565b9050919050565b7f45524332303a2064656372656173656420616c6c6f77616e63652062656c6f7760008201527f207a65726f000000000000000000000000000000000000000000000000000000602082015250565b60006115476025836110bb565b9150611552826114eb565b604082019050919050565b600060208201905081810360008301526115768161153a565b9050919050565b7f546f6b656e3a204e6f7420616e2061646d696e00000000000000000000000000600082015250565b60006115b36013836110bb565b91506115be8261157d565b602082019050919050565b600060208201905081810360008301526115e2816115a6565b9050919050565b7f45524332303a20617070726f76652066726f6d20746865207a65726f2061646460008201527f7265737300000000000000000000000000000000000000000000000000000000602082015250565b60006116456024836110bb565b9150611650826115e9565b604082019050919050565b6000602082019050818103600083015261167481611638565b9050919050565b7f45524332303a20617070726f766520746f20746865207a65726f20616464726560008201527f7373000000000000000000000000000000000000000000000000000000000000602082015250565b60006116d76022836110bb565b91506116e28261167b565b604082019050919050565b60006020820190508181036000830152611706816116ca565b9050919050565b7f45524332303a20696e73756666696369656e7420616c6c6f77616e6365000000600082015250565b6000611743601d836110bb565b915061174e8261170d565b602082019050919050565b6000602082019050818103600083015261177281611736565b9050919050565b7f45524332303a207472616e736665722066726f6d20746865207a65726f20616460008201527f6472657373000000000000000000000000000000000000000000000000000000602082015250565b60006117d56025836110bb565b91506117e082611779565b604082019050919050565b60006020820190508181036000830152611804816117c8565b9050919050565b7f45524332303a207472616e7366657220746f20746865207a65726f206164647260008201527f6573730000000000000000000000000000000000000000000000000000000000602082015250565b60006118676023836110bb565b91506118728261180b565b604082019050919050565b600060208201905081810360008301526118968161185a565b9050919050565b7f45524332303a207472616e7366657220616d6f756e742065786365656473206260008201527f616c616e63650000000000000000000000000000000000000000000000000000602082015250565b60006118f96026836110bb565b91506119048261189d565b604082019050919050565b60006020820190508181036000830152611928816118ec565b9050919050565b7f45524332303a206d696e7420746f20746865207a65726f206164647265737300600082015250565b6000611965601f836110bb565b91506119708261192f565b602082019050919050565b6000602082019050818103600083015261199481611958565b9050919050565b7f45524332303a206275726e2066726f6d20746865207a65726f2061646472657360008201527f7300000000000000000000000000000000000000000000000000000000000000602082015250565b60006119f76021836110bb565b9150611a028261199b565b604082019050919050565b60006020820190508181036000830152611a26816119ea565b9050919050565b7f45524332303a206275726e20616d6f756e7420657863656564732062616c616e60008201527f6365000000000000000000000000000000000000000000000000000000000000602082015250565b6000611a896022836110bb565b9150611a9482611a2d565b604082019050919050565b60006020820190508181036000830152611ab881611a7c565b905091905056fea264697066735822122013c714e4cac3e0d516b6617230b2c63a5ad8c11344e497368d41f06338433d8864736f6c63430008110033",
  "linkReferences": {},
  "deployedLinkReferences": {}
}