{
  "_format": "hh-sol-artifact-1",
  "contractName": "Oracle",
  "sourceName": "src/backend/contracts/Provable.sol",
  "abi": [
    {
      "inputs": [],
      "stateMutability": "payable",
      "type": "constructor"
    },
    {
      "anonymous": false,
      "inputs": [
        {
          "indexed": false,
          "internalType": "string",
          "name": "nextStep",
          "type": "string"
        }
      ],
      "name": "LogConstructorInitiated",
      "type": "event"
    },
    {
      "anonymous": false,
      "inputs": [
        {
          "indexed": false,
          "internalType": "string",
          "name": "description",
          "type": "string"
        }
      ],
      "name": "LogNewProvableQuery",
      "type": "event"
    },
    {
      "anonymous": false,
      "inputs": [
        {
          "indexed": false,
          "internalType": "string",
          "name": "price",
          "type": "string"
        }
      ],
      "name": "LogPriceUpdated",
      "type": "event"
    },
    {
      "inputs": [],
      "name": "ETHUSD",
      "outputs": [
        {
          "internalType": "string",
          "name": "",
          "type": "string"
        }
      ],
      "stateMutability": "view",
      "type": "function"
    },
    {
      "inputs": [
        {
          "internalType": "bytes32",
          "name": "myid",
          "type": "bytes32"
        },
        {
          "internalType": "string",
          "name": "result",
          "type": "string"
        }
      ],
      "name": "__callback",
      "outputs": [],
      "stateMutability": "nonpayable",
      "type": "function"
    },
    {
      "inputs": [],
      "name": "updatePrice",
      "outputs": [],
      "stateMutability": "payable",
      "type": "function"
    }
  ],
  "bytecode": "0x60806040527f11a3fca63f87bd67d7f9f72b744acc8be2193705e7a734ac3a773d35d259e87b6040516200003390620000ee565b60405180910390a162000110565b600082825260208201905092915050565b7f436f6e7374727563746f722077617320696e697469617465642e2043616c6c2060008201527f27757064617465507269636528292720746f2073656e64207468652050726f7660208201527f61626c652051756572792e000000000000000000000000000000000000000000604082015250565b6000620000d6604b8362000041565b9150620000e38262000052565b606082019050919050565b600060208201905081810360008301526200010981620000c7565b9050919050565b611db580620001206000396000f3fe6080604052600436106100345760003560e01c806327dc297e14610039578063673a7e281461006257806373db08441461006c575b600080fd5b34801561004557600080fd5b50610060600480360381019061005b91906115c5565b610097565b005b61006a610121565b005b34801561007857600080fd5b50610081610230565b60405161008e91906116a0565b60405180910390f35b61009f6102be565b73ffffffffffffffffffffffffffffffffffffffff163373ffffffffffffffffffffffffffffffffffffffff16146100d657600080fd5b80600590816100e591906118d8565b507f71f1a5645e51a2da828ffcf79cc17da88eb25e1bca8b9dced23210847a4769c18160405161011591906116a0565b60405180910390a15050565b476101606040518060400160405280600381526020017f55524c00000000000000000000000000000000000000000000000000000000008152506105a5565b11156101a0577fc4dc360d0a9c0677a3379ae0a3d81e887f761e65fdf3d7e00859d1bcd3c4738960405161019390611a42565b60405180910390a161022e565b7fc4dc360d0a9c0677a3379ae0a3d81e887f761e65fdf3d7e00859d1bcd3c473896040516101cd90611ad4565b60405180910390a161022c6040518060400160405280600381526020017f55524c0000000000000000000000000000000000000000000000000000000000815250604051806060016040528060408152602001611d4060409139610899565b505b565b6005805461023d906116f1565b80601f0160208091040260200160405190810160405280929190818152602001828054610269906116f1565b80156102b65780601f1061028b576101008083540402835291602001916102b6565b820191906000526020600020905b81548152906001019060200180831161029957829003601f168201915b505050505081565b60008073ffffffffffffffffffffffffffffffffffffffff16600160009054906101000a900473ffffffffffffffffffffffffffffffffffffffff1673ffffffffffffffffffffffffffffffffffffffff16148061034657506000610344600160009054906101000a900473ffffffffffffffffffffffffffffffffffffffff16610c6c565b145b15610357576103556000610c77565b505b600160009054906101000a900473ffffffffffffffffffffffffffffffffffffffff1673ffffffffffffffffffffffffffffffffffffffff166338cc48316040518163ffffffff1660e01b81526004016020604051808303816000875af11580156103c6573d6000803e3d6000fd5b505050506040513d601f19601f820116820180604052508101906103ea9190611b52565b73ffffffffffffffffffffffffffffffffffffffff1660008054906101000a900473ffffffffffffffffffffffffffffffffffffffff1673ffffffffffffffffffffffffffffffffffffffff161461050f57600160009054906101000a900473ffffffffffffffffffffffffffffffffffffffff1673ffffffffffffffffffffffffffffffffffffffff166338cc48316040518163ffffffff1660e01b81526004016020604051808303816000875af11580156104ab573d6000803e3d6000fd5b505050506040513d601f19601f820116820180604052508101906104cf9190611b52565b6000806101000a81548173ffffffffffffffffffffffffffffffffffffffff021916908373ffffffffffffffffffffffffffffffffffffffff1602179055505b60008054906101000a900473ffffffffffffffffffffffffffffffffffffffff1673ffffffffffffffffffffffffffffffffffffffff1663c281d19e6040518163ffffffff1660e01b81526004016020604051808303816000875af115801561057c573d6000803e3d6000fd5b505050506040513d601f19601f820116820180604052508101906105a09190611b52565b905090565b60008073ffffffffffffffffffffffffffffffffffffffff16600160009054906101000a900473ffffffffffffffffffffffffffffffffffffffff1673ffffffffffffffffffffffffffffffffffffffff16148061062d5750600061062b600160009054906101000a900473ffffffffffffffffffffffffffffffffffffffff16610c6c565b145b1561063e5761063c6000610c77565b505b600160009054906101000a900473ffffffffffffffffffffffffffffffffffffffff1673ffffffffffffffffffffffffffffffffffffffff166338cc48316040518163ffffffff1660e01b81526004016020604051808303816000875af11580156106ad573d6000803e3d6000fd5b505050506040513d601f19601f820116820180604052508101906106d19190611b52565b73ffffffffffffffffffffffffffffffffffffffff1660008054906101000a900473ffffffffffffffffffffffffffffffffffffffff1673ffffffffffffffffffffffffffffffffffffffff16146107f657600160009054906101000a900473ffffffffffffffffffffffffffffffffffffffff1673ffffffffffffffffffffffffffffffffffffffff166338cc48316040518163ffffffff1660e01b81526004016020604051808303816000875af1158015610792573d6000803e3d6000fd5b505050506040513d601f19601f820116820180604052508101906107b69190611b52565b6000806101000a81548173ffffffffffffffffffffffffffffffffffffffff021916908373ffffffffffffffffffffffffffffffffffffffff1602179055505b60008054906101000a900473ffffffffffffffffffffffffffffffffffffffff1673ffffffffffffffffffffffffffffffffffffffff1663524f3889836040518263ffffffff1660e01b815260040161084f91906116a0565b6020604051808303816000875af115801561086e573d6000803e3d6000fd5b505050506040513d601f19601f820116820180604052508101906108929190611bab565b9050919050565b60008073ffffffffffffffffffffffffffffffffffffffff16600160009054906101000a900473ffffffffffffffffffffffffffffffffffffffff1673ffffffffffffffffffffffffffffffffffffffff1614806109215750600061091f600160009054906101000a900473ffffffffffffffffffffffffffffffffffffffff16610c6c565b145b15610932576109306000610c77565b505b600160009054906101000a900473ffffffffffffffffffffffffffffffffffffffff1673ffffffffffffffffffffffffffffffffffffffff166338cc48316040518163ffffffff1660e01b81526004016020604051808303816000875af11580156109a1573d6000803e3d6000fd5b505050506040513d601f19601f820116820180604052508101906109c59190611b52565b73ffffffffffffffffffffffffffffffffffffffff1660008054906101000a900473ffffffffffffffffffffffffffffffffffffffff1673ffffffffffffffffffffffffffffffffffffffff1614610aea57600160009054906101000a900473ffffffffffffffffffffffffffffffffffffffff1673ffffffffffffffffffffffffffffffffffffffff166338cc48316040518163ffffffff1660e01b81526004016020604051808303816000875af1158015610a86573d6000803e3d6000fd5b505050506040513d601f19601f82011682018060405250810190610aaa9190611b52565b6000806101000a81548173ffffffffffffffffffffffffffffffffffffffff021916908373ffffffffffffffffffffffffffffffffffffffff1602179055505b60008060009054906101000a900473ffffffffffffffffffffffffffffffffffffffff1673ffffffffffffffffffffffffffffffffffffffff1663524f3889856040518263ffffffff1660e01b8152600401610b4691906116a0565b6020604051808303816000875af1158015610b65573d6000803e3d6000fd5b505050506040513d601f19601f82011682018060405250810190610b899190611bab565b905062030d403a610b9a9190611c07565b670de0b6b3a7640000610bad9190611c49565b811115610bc0576000801b915050610c66565b60008054906101000a900473ffffffffffffffffffffffffffffffffffffffff1673ffffffffffffffffffffffffffffffffffffffff1663adf59f9982600087876040518563ffffffff1660e01b8152600401610c1f93929190611cb8565b60206040518083038185885af1158015610c3d573d6000803e3d6000fd5b50505050506040513d601f19601f82011682018060405250810190610c629190611d12565b9150505b92915050565b6000813b9050919050565b6000610c81610c88565b9050919050565b600080610ca8731d3b2638a7cc9f2cb3d298a3da7a90b67e5506ed610c6c565b1115610d4a57731d3b2638a7cc9f2cb3d298a3da7a90b67e5506ed600160006101000a81548173ffffffffffffffffffffffffffffffffffffffff021916908373ffffffffffffffffffffffffffffffffffffffff160217905550610d416040518060400160405280600b81526020017f6574685f6d61696e6e6574000000000000000000000000000000000000000000815250611422565b6001905061141f565b6000610d6973c03a2615d5efaf5f49f60b7bb6583eaec212fdf1610c6c565b1115610e0b5773c03a2615d5efaf5f49f60b7bb6583eaec212fdf1600160006101000a81548173ffffffffffffffffffffffffffffffffffffffff021916908373ffffffffffffffffffffffffffffffffffffffff160217905550610e026040518060400160405280600c81526020017f6574685f726f707374656e330000000000000000000000000000000000000000815250611422565b6001905061141f565b6000610e2a73b7a07bcf2ba2f2703b24c0691b5278999c59ac7e610c6c565b1115610ecc5773b7a07bcf2ba2f2703b24c0691b5278999c59ac7e600160006101000a81548173ffffffffffffffffffffffffffffffffffffffff021916908373ffffffffffffffffffffffffffffffffffffffff160217905550610ec36040518060400160405280600981526020017f6574685f6b6f76616e0000000000000000000000000000000000000000000000815250611422565b6001905061141f565b6000610eeb73146500cfd35b22e4a392fe0adc06de1a1368ed48610c6c565b1115610f8d5773146500cfd35b22e4a392fe0adc06de1a1368ed48600160006101000a81548173ffffffffffffffffffffffffffffffffffffffff021916908373ffffffffffffffffffffffffffffffffffffffff160217905550610f846040518060400160405280600b81526020017f6574685f72696e6b656279000000000000000000000000000000000000000000815250611422565b6001905061141f565b6000610fac73a2998efd205fb9d4b4963afb70778d6354ad3a41610c6c565b111561104e5773a2998efd205fb9d4b4963afb70778d6354ad3a41600160006101000a81548173ffffffffffffffffffffffffffffffffffffffff021916908373ffffffffffffffffffffffffffffffffffffffff1602179055506110456040518060400160405280600a81526020017f6574685f676f65726c6900000000000000000000000000000000000000000000815250611422565b6001905061141f565b600061106d7390a0f94702c9630036fb9846b52bf31a1c991a84610c6c565b111561110f577390a0f94702c9630036fb9846b52bf31a1c991a84600160006101000a81548173ffffffffffffffffffffffffffffffffffffffff021916908373ffffffffffffffffffffffffffffffffffffffff1602179055506111066040518060400160405280600b81526020017f6273635f6d61696e6e6574000000000000000000000000000000000000000000815250611422565b6001905061141f565b600061112e73816ec2af1b56183f82f8c05759e99fec3c3de609610c6c565b11156111d05773816ec2af1b56183f82f8c05759e99fec3c3de609600160006101000a81548173ffffffffffffffffffffffffffffffffffffffff021916908373ffffffffffffffffffffffffffffffffffffffff1602179055506111c76040518060400160405280600f81526020017f706f6c79676f6e5f6d61696e6e65740000000000000000000000000000000000815250611422565b6001905061141f565b60006111ef7314b31a1c66a9f3d18dfac2d123fe8ce5847b7f85610c6c565b1115611291577314b31a1c66a9f3d18dfac2d123fe8ce5847b7f85600160006101000a81548173ffffffffffffffffffffffffffffffffffffffff021916908373ffffffffffffffffffffffffffffffffffffffff1602179055506112886040518060400160405280600f81526020017f7365706f6c69615f6d61696e6e65740000000000000000000000000000000000815250611422565b6001905061141f565b60006112b0736f485c8bf6fc43ea212e93bbf8ce046c7f1cb475610c6c565b111561131457736f485c8bf6fc43ea212e93bbf8ce046c7f1cb475600160006101000a81548173ffffffffffffffffffffffffffffffffffffffff021916908373ffffffffffffffffffffffffffffffffffffffff1602179055506001905061141f565b60006113337320e12a1f859b3feae5fb2a0a32c18f5a65555bbf610c6c565b1115611397577320e12a1f859b3feae5fb2a0a32c18f5a65555bbf600160006101000a81548173ffffffffffffffffffffffffffffffffffffffff021916908373ffffffffffffffffffffffffffffffffffffffff1602179055506001905061141f565b60006113b67351efaf4c8b3c9afbd5ab9f4bbc82784ab6ef8faa610c6c565b111561141a577351efaf4c8b3c9afbd5ab9f4bbc82784ab6ef8faa600160006101000a81548173ffffffffffffffffffffffffffffffffffffffff021916908373ffffffffffffffffffffffffffffffffffffffff1602179055506001905061141f565b600090505b90565b806002908161143191906118d8565b5050565b6000604051905090565b600080fd5b600080fd5b6000819050919050565b61145c81611449565b811461146757600080fd5b50565b60008135905061147981611453565b92915050565b600080fd5b600080fd5b6000601f19601f8301169050919050565b7f4e487b7100000000000000000000000000000000000000000000000000000000600052604160045260246000fd5b6114d282611489565b810181811067ffffffffffffffff821117156114f1576114f061149a565b5b80604052505050565b6000611504611435565b905061151082826114c9565b919050565b600067ffffffffffffffff8211156115305761152f61149a565b5b61153982611489565b9050602081019050919050565b82818337600083830152505050565b600061156861156384611515565b6114fa565b90508281526020810184848401111561158457611583611484565b5b61158f848285611546565b509392505050565b600082601f8301126115ac576115ab61147f565b5b81356115bc848260208601611555565b91505092915050565b600080604083850312156115dc576115db61143f565b5b60006115ea8582860161146a565b925050602083013567ffffffffffffffff81111561160b5761160a611444565b5b61161785828601611597565b9150509250929050565b600081519050919050565b600082825260208201905092915050565b60005b8381101561165b578082015181840152602081019050611640565b60008484015250505050565b600061167282611621565b61167c818561162c565b935061168c81856020860161163d565b61169581611489565b840191505092915050565b600060208201905081810360008301526116ba8184611667565b905092915050565b7f4e487b7100000000000000000000000000000000000000000000000000000000600052602260045260246000fd5b6000600282049050600182168061170957607f821691505b60208210810361171c5761171b6116c2565b5b50919050565b60008190508160005260206000209050919050565b60006020601f8301049050919050565b600082821b905092915050565b6000600883026117847fffffffffffffffffffffffffffffffffffffffffffffffffffffffffffffffff82611747565b61178e8683611747565b95508019841693508086168417925050509392505050565b6000819050919050565b6000819050919050565b60006117d56117d06117cb846117a6565b6117b0565b6117a6565b9050919050565b6000819050919050565b6117ef836117ba565b6118036117fb826117dc565b848454611754565b825550505050565b600090565b61181861180b565b6118238184846117e6565b505050565b5b818110156118475761183c600082611810565b600181019050611829565b5050565b601f82111561188c5761185d81611722565b61186684611737565b81016020851015611875578190505b61188961188185611737565b830182611828565b50505b505050565b600082821c905092915050565b60006118af60001984600802611891565b1980831691505092915050565b60006118c8838361189e565b9150826002028217905092915050565b6118e182611621565b67ffffffffffffffff8111156118fa576118f961149a565b5b61190482546116f1565b61190f82828561184b565b600060209050601f8311600181146119425760008415611930578287015190505b61193a85826118bc565b8655506119a2565b601f19841661195086611722565b60005b8281101561197857848901518255600182019150602085019450602081019050611953565b868310156119955784890151611991601f89168261189e565b8355505b6001600288020188555050505b505050505050565b7f50726f7661626c6520717565727920776173204e4f542073656e742c20706c6560008201527f6173652061646420736f6d652045544820746f20636f76657220666f7220746860208201527f6520717565727920666565000000000000000000000000000000000000000000604082015250565b6000611a2c604b8361162c565b9150611a37826119aa565b606082019050919050565b60006020820190508181036000830152611a5b81611a1f565b9050919050565b7f50726f7661626c65207175657279207761732073656e742c207374616e64696e60008201527f6720627920666f722074686520616e737765722e2e0000000000000000000000602082015250565b6000611abe60358361162c565b9150611ac982611a62565b604082019050919050565b60006020820190508181036000830152611aed81611ab1565b9050919050565b600073ffffffffffffffffffffffffffffffffffffffff82169050919050565b6000611b1f82611af4565b9050919050565b611b2f81611b14565b8114611b3a57600080fd5b50565b600081519050611b4c81611b26565b92915050565b600060208284031215611b6857611b6761143f565b5b6000611b7684828501611b3d565b91505092915050565b611b88816117a6565b8114611b9357600080fd5b50565b600081519050611ba581611b7f565b92915050565b600060208284031215611bc157611bc061143f565b5b6000611bcf84828501611b96565b91505092915050565b7f4e487b7100000000000000000000000000000000000000000000000000000000600052601160045260246000fd5b6000611c12826117a6565b9150611c1d836117a6565b9250828202611c2b816117a6565b91508282048414831517611c4257611c41611bd8565b5b5092915050565b6000611c54826117a6565b9150611c5f836117a6565b9250828201905080821115611c7757611c76611bd8565b5b92915050565b6000819050919050565b6000611ca2611c9d611c9884611c7d565b6117b0565b6117a6565b9050919050565b611cb281611c87565b82525050565b6000606082019050611ccd6000830186611ca9565b8181036020830152611cdf8185611667565b90508181036040830152611cf38184611667565b9050949350505050565b600081519050611d0c81611453565b92915050565b600060208284031215611d2857611d2761143f565b5b6000611d3684828501611cfd565b9150509291505056fe6a736f6e2868747470733a2f2f6170692e70726f2e636f696e626173652e636f6d2f70726f64756374732f4554482d4254432f7469636b6572292e7072696365a2646970667358221220f84b8fb49bd81ca2fb8a7d4874bdc5db09a467a4d229c9f5a395bc8b3355351564736f6c63430008110033",
  "linkReferences": {},
  "deployedLinkReferences": {}
}