{
  "_format": "hh-sol-artifact-1",
  "contractName": "TokenSwap",
  "sourceName": "contracts/swap.sol",
  "abi": [
    {
      "inputs": [
        {
          "internalType": "address",
          "name": "_token1",
          "type": "address"
        },
        {
          "internalType": "address",
          "name": "_token2",
          "type": "address"
        }
      ],
      "stateMutability": "payable",
      "type": "constructor"
    },
    {
      "anonymous": false,
      "inputs": [
        {
          "indexed": false,
          "internalType": "string",
          "name": "nextStep",
          "type": "string"
        }
      ],
      "name": "LogConstructorInitiated",
      "type": "event"
    },
    {
      "anonymous": false,
      "inputs": [
        {
          "indexed": false,
          "internalType": "string",
          "name": "description",
          "type": "string"
        }
      ],
      "name": "LogNewProvableQuery",
      "type": "event"
    },
    {
      "anonymous": false,
      "inputs": [
        {
          "indexed": false,
          "internalType": "string",
          "name": "price",
          "type": "string"
        }
      ],
      "name": "LogPriceUpdated",
      "type": "event"
    },
    {
      "anonymous": false,
      "inputs": [
        {
          "indexed": false,
          "internalType": "address",
          "name": "from",
          "type": "address"
        },
        {
          "indexed": false,
          "internalType": "address",
          "name": "to",
          "type": "address"
        },
        {
          "indexed": false,
          "internalType": "uint256",
          "name": "amount",
          "type": "uint256"
        },
        {
          "indexed": false,
          "internalType": "uint256",
          "name": "nonce",
          "type": "uint256"
        },
        {
          "indexed": false,
          "internalType": "uint256",
          "name": "timestamp",
          "type": "uint256"
        },
        {
          "indexed": true,
          "internalType": "enum TokenSwap.State",
          "name": "state",
          "type": "uint8"
        }
      ],
      "name": "Swap",
      "type": "event"
    },
    {
      "inputs": [],
      "name": "ETHUSD",
      "outputs": [
        {
          "internalType": "string",
          "name": "",
          "type": "string"
        }
      ],
      "stateMutability": "view",
      "type": "function"
    },
    {
      "inputs": [
        {
          "internalType": "bytes32",
          "name": "myid",
          "type": "bytes32"
        },
        {
          "internalType": "string",
          "name": "result",
          "type": "string"
        }
      ],
      "name": "__callback",
      "outputs": [],
      "stateMutability": "nonpayable",
      "type": "function"
    },
    {
      "inputs": [
        {
          "internalType": "address",
          "name": "_to",
          "type": "address"
        },
        {
          "internalType": "uint256",
          "name": "_amount",
          "type": "uint256"
        }
      ],
      "name": "burnBtc",
      "outputs": [],
      "stateMutability": "nonpayable",
      "type": "function"
    },
    {
      "inputs": [
        {
          "internalType": "address",
          "name": "_to",
          "type": "address"
        },
        {
          "internalType": "uint256",
          "name": "_amount",
          "type": "uint256"
        }
      ],
      "name": "burnEth",
      "outputs": [],
      "stateMutability": "nonpayable",
      "type": "function"
    },
    {
      "inputs": [
        {
          "internalType": "bytes32",
          "name": "_messageHash",
          "type": "bytes32"
        }
      ],
      "name": "getEthSignedMessageHash",
      "outputs": [
        {
          "internalType": "bytes32",
          "name": "",
          "type": "bytes32"
        }
      ],
      "stateMutability": "pure",
      "type": "function"
    },
    {
      "inputs": [
        {
          "internalType": "address",
          "name": "_from",
          "type": "address"
        },
        {
          "internalType": "address",
          "name": "_to",
          "type": "address"
        },
        {
          "internalType": "uint256",
          "name": "_amount",
          "type": "uint256"
        },
        {
          "internalType": "uint256",
          "name": "_nonce",
          "type": "uint256"
        }
      ],
      "name": "getMessageHash",
      "outputs": [
        {
          "internalType": "bytes32",
          "name": "",
          "type": "bytes32"
        }
      ],
      "stateMutability": "pure",
      "type": "function"
    },
    {
      "inputs": [
        {
          "internalType": "address",
          "name": "_from",
          "type": "address"
        },
        {
          "internalType": "address",
          "name": "_to",
          "type": "address"
        },
        {
          "internalType": "uint256",
          "name": "_amount",
          "type": "uint256"
        },
        {
          "internalType": "uint256",
          "name": "_price",
          "type": "uint256"
        },
        {
          "internalType": "uint256",
          "name": "_nonce",
          "type": "uint256"
        },
        {
          "internalType": "bytes",
          "name": "signature",
          "type": "bytes"
        }
      ],
      "name": "mintBtc",
      "outputs": [],
      "stateMutability": "nonpayable",
      "type": "function"
    },
    {
      "inputs": [
        {
          "internalType": "address",
          "name": "_from",
          "type": "address"
        },
        {
          "internalType": "address",
          "name": "_to",
          "type": "address"
        },
        {
          "internalType": "uint256",
          "name": "_amount",
          "type": "uint256"
        },
        {
          "internalType": "uint256",
          "name": "_price",
          "type": "uint256"
        },
        {
          "internalType": "uint256",
          "name": "_nonce",
          "type": "uint256"
        },
        {
          "internalType": "bytes",
          "name": "signature",
          "type": "bytes"
        }
      ],
      "name": "mintEth",
      "outputs": [],
      "stateMutability": "nonpayable",
      "type": "function"
    },
    {
      "inputs": [
        {
          "internalType": "bytes32",
          "name": "_ethSignedMessageHash",
          "type": "bytes32"
        },
        {
          "internalType": "bytes",
          "name": "_signature",
          "type": "bytes"
        }
      ],
      "name": "recoverSigner",
      "outputs": [
        {
          "internalType": "address",
          "name": "",
          "type": "address"
        }
      ],
      "stateMutability": "pure",
      "type": "function"
    },
    {
      "inputs": [
        {
          "internalType": "bytes",
          "name": "sig",
          "type": "bytes"
        }
      ],
      "name": "splitSignature",
      "outputs": [
        {
          "internalType": "bytes32",
          "name": "r",
          "type": "bytes32"
        },
        {
          "internalType": "bytes32",
          "name": "s",
          "type": "bytes32"
        },
        {
          "internalType": "uint8",
          "name": "v",
          "type": "uint8"
        }
      ],
      "stateMutability": "pure",
      "type": "function"
    },
    {
      "inputs": [],
      "name": "updatePrice",
      "outputs": [],
      "stateMutability": "payable",
      "type": "function"
    },
    {
      "inputs": [
        {
          "internalType": "address",
          "name": "_signer",
          "type": "address"
        },
        {
          "internalType": "address",
          "name": "_to",
          "type": "address"
        },
        {
          "internalType": "uint256",
          "name": "_amount",
          "type": "uint256"
        },
        {
          "internalType": "uint256",
          "name": "_nonce",
          "type": "uint256"
        },
        {
          "internalType": "bytes",
          "name": "signature",
          "type": "bytes"
        }
      ],
      "name": "verify",
      "outputs": [
        {
          "internalType": "bool",
          "name": "",
          "type": "bool"
        }
      ],
      "stateMutability": "pure",
      "type": "function"
    }
  ],
  "bytecode": "0x608060405260405162003b1038038062003b10833981810160405281019062000029919062000383565b7f11a3fca63f87bd67d7f9f72b744acc8be2193705e7a734ac3a773d35d259e87b604051620000589062000477565b60405180910390a133600660006101000a81548173ffffffffffffffffffffffffffffffffffffffff021916908373ffffffffffffffffffffffffffffffffffffffff1602179055508073ffffffffffffffffffffffffffffffffffffffff168273ffffffffffffffffffffffffffffffffffffffff160362000112576040517f08c379a00000000000000000000000000000000000000000000000000000000081526004016200010990620004e9565b60405180910390fd5b60008273ffffffffffffffffffffffffffffffffffffffff166306fdde036040518163ffffffff1660e01b8152600401600060405180830381865afa15801562000160573d6000803e3d6000fd5b505050506040513d6000823e3d601f19601f820116820180604052508101906200018b91906200068a565b90507ff4817828cfb0242af0f04662358bf114fb5c05c5085a5eec9f709628f9d31110818051906020012003620002445782600760006101000a81548173ffffffffffffffffffffffffffffffffffffffff021916908373ffffffffffffffffffffffffffffffffffffffff16021790555081600860006101000a81548173ffffffffffffffffffffffffffffffffffffffff021916908373ffffffffffffffffffffffffffffffffffffffff16021790555062000301565b7f5545544845520000000000000000000000000000000000000000000000000000818051906020012003620002fb5781600760006101000a81548173ffffffffffffffffffffffffffffffffffffffff021916908373ffffffffffffffffffffffffffffffffffffffff16021790555081600860006101000a81548173ffffffffffffffffffffffffffffffffffffffff021916908373ffffffffffffffffffffffffffffffffffffffff16021790555062000300565b600080fd5b5b505050620006db565b6000604051905090565b600080fd5b600080fd5b600073ffffffffffffffffffffffffffffffffffffffff82169050919050565b60006200034b826200031e565b9050919050565b6200035d816200033e565b81146200036957600080fd5b50565b6000815190506200037d8162000352565b92915050565b600080604083850312156200039d576200039c62000314565b5b6000620003ad858286016200036c565b9250506020620003c0858286016200036c565b9150509250929050565b600082825260208201905092915050565b7f436f6e7374727563746f722077617320696e697469617465642e2043616c6c2060008201527f27757064617465507269636528292720746f2073656e64207468652050726f7660208201527f61626c652051756572792e000000000000000000000000000000000000000000604082015250565b60006200045f604b83620003ca565b91506200046c82620003db565b606082019050919050565b60006020820190508181036000830152620004928162000450565b9050919050565b7f537761703a20426f746820746f6b656e73206172652073616d65000000000000600082015250565b6000620004d1601a83620003ca565b9150620004de8262000499565b602082019050919050565b600060208201905081810360008301526200050481620004c2565b9050919050565b600080fd5b600080fd5b6000601f19601f8301169050919050565b7f4e487b7100000000000000000000000000000000000000000000000000000000600052604160045260246000fd5b620005608262000515565b810181811067ffffffffffffffff8211171562000582576200058162000526565b5b80604052505050565b6000620005976200030a565b9050620005a5828262000555565b919050565b600067ffffffffffffffff821115620005c857620005c762000526565b5b620005d38262000515565b9050602081019050919050565b60005b8381101562000600578082015181840152602081019050620005e3565b60008484015250505050565b6000620006236200061d84620005aa565b6200058b565b90508281526020810184848401111562000642576200064162000510565b5b6200064f848285620005e0565b509392505050565b600082601f8301126200066f576200066e6200050b565b5b8151620006818482602086016200060c565b91505092915050565b600060208284031215620006a357620006a262000314565b5b600082015167ffffffffffffffff811115620006c457620006c362000319565b5b620006d28482850162000657565b91505092915050565b61342580620006eb6000396000f3fe6080604052600436106100a75760003560e01c806397aba7f91161006457806397aba7f914610199578063a7bb5803146101d6578063cffc18eb14610215578063d85fa80014610252578063ec6904701461027b578063fa540801146102a4576100a7565b80630b71a0b7146100ac5780631983f09a146100e957806327dc297e1461011257806359bb69a31461013b578063673a7e281461016457806373db08441461016e575b600080fd5b3480156100b857600080fd5b506100d360048036038101906100ce9190612220565b6102e1565b6040516100e091906122a0565b60405180910390f35b3480156100f557600080fd5b50610110600480360381019061010b91906122bb565b61031a565b005b34801561011e57600080fd5b506101396004803603810190610134919061246d565b610533565b005b34801561014757600080fd5b50610162600480360381019061015d91906122bb565b6105bd565b005b61016c6107d6565b005b34801561017a57600080fd5b506101836108e5565b6040516101909190612548565b60405180910390f35b3480156101a557600080fd5b506101c060048036038101906101bb919061260b565b610973565b6040516101cd9190612676565b60405180910390f35b3480156101e257600080fd5b506101fd60048036038101906101f89190612691565b6109e2565b60405161020c939291906126f6565b60405180910390f35b34801561022157600080fd5b5061023c6004803603810190610237919061272d565b610a4a565b60405161024991906127df565b60405180910390f35b34801561025e57600080fd5b506102796004803603810190610274919061285a565b610aad565b005b34801561028757600080fd5b506102a2600480360381019061029d919061285a565b610d3f565b005b3480156102b057600080fd5b506102cb60048036038101906102c69190612909565b610fd1565b6040516102d891906122a0565b60405180910390f35b6000848484846040516020016102fa949392919061299f565b604051602081830303815290604052805190602001209050949350505050565b60001515600a60003373ffffffffffffffffffffffffffffffffffffffff1673ffffffffffffffffffffffffffffffffffffffff1681526020019081526020016000206000600954815260200190815260200160002060009054906101000a900460ff161515146103c0576040517f08c379a00000000000000000000000000000000000000000000000000000000081526004016103b790612a5f565b60405180910390fd5b6001600a60003373ffffffffffffffffffffffffffffffffffffffff1673ffffffffffffffffffffffffffffffffffffffff1681526020019081526020016000206000600954815260200190815260200160002060006101000a81548160ff021916908315150217905550600860009054906101000a900473ffffffffffffffffffffffffffffffffffffffff1673ffffffffffffffffffffffffffffffffffffffff16639dc29fac33836040518363ffffffff1660e01b8152600401610488929190612a8e565b600060405180830381600087803b1580156104a257600080fd5b505af11580156104b6573d6000803e3d6000fd5b505050506104c26107d6565b600060018111156104d6576104d5612ab7565b5b7f1180c9d083141dc152a1859a6dbf9f5ca1e6d4a91d43ba1ea7529d52db6348453384846009544260405161050f959493929190612ae6565b60405180910390a26009600081548092919061052a90612b68565b91905055505050565b61053b611001565b73ffffffffffffffffffffffffffffffffffffffff163373ffffffffffffffffffffffffffffffffffffffff161461057257600080fd5b80600590816105819190612dbc565b507f71f1a5645e51a2da828ffcf79cc17da88eb25e1bca8b9dced23210847a4769c1816040516105b19190612548565b60405180910390a15050565b60001515600a60003373ffffffffffffffffffffffffffffffffffffffff1673ffffffffffffffffffffffffffffffffffffffff1681526020019081526020016000206000600954815260200190815260200160002060009054906101000a900460ff16151514610663576040517f08c379a000000000000000000000000000000000000000000000000000000000815260040161065a90612a5f565b60405180910390fd5b6001600a60003373ffffffffffffffffffffffffffffffffffffffff1673ffffffffffffffffffffffffffffffffffffffff1681526020019081526020016000206000600954815260200190815260200160002060006101000a81548160ff021916908315150217905550600760009054906101000a900473ffffffffffffffffffffffffffffffffffffffff1673ffffffffffffffffffffffffffffffffffffffff16639dc29fac33836040518363ffffffff1660e01b815260040161072b929190612a8e565b600060405180830381600087803b15801561074557600080fd5b505af1158015610759573d6000803e3d6000fd5b505050506107656107d6565b6000600181111561077957610778612ab7565b5b7f1180c9d083141dc152a1859a6dbf9f5ca1e6d4a91d43ba1ea7529d52db634845338484600954426040516107b2959493929190612ae6565b60405180910390a2600960008154809291906107cd90612b68565b91905055505050565b476108156040518060400160405280600381526020017f55524c00000000000000000000000000000000000000000000000000000000008152506112e8565b1115610855577fc4dc360d0a9c0677a3379ae0a3d81e887f761e65fdf3d7e00859d1bcd3c4738960405161084890612f26565b60405180910390a16108e3565b7fc4dc360d0a9c0677a3379ae0a3d81e887f761e65fdf3d7e00859d1bcd3c4738960405161088290612fb8565b60405180910390a16108e16040518060400160405280600381526020017f55524c00000000000000000000000000000000000000000000000000000000008152506040518060600160405280604081526020016133b0604091396115dc565b505b565b600580546108f290612bdf565b80601f016020809104026020016040519081016040528092919081815260200182805461091e90612bdf565b801561096b5780601f106109405761010080835404028352916020019161096b565b820191906000526020600020905b81548152906001019060200180831161094e57829003601f168201915b505050505081565b600080600080610982856109e2565b925092509250600186828585604051600081526020016040526040516109ab9493929190612fd8565b6020604051602081039080840390855afa1580156109cd573d6000803e3d6000fd5b50505060206040510351935050505092915050565b60008060006041845114610a2b576040517f08c379a0000000000000000000000000000000000000000000000000000000008152600401610a2290613069565b60405180910390fd5b6020840151925060408401519150606084015160001a90509193909250565b600080610a59878787876102e1565b90506000610a6682610fd1565b90508773ffffffffffffffffffffffffffffffffffffffff16610a898286610973565b73ffffffffffffffffffffffffffffffffffffffff16149250505095945050505050565b6000610abb888888876102e1565b90506000610ac882610fd1565b90506000610b1a8286868080601f016020809104026020016040519081016040528093929190818152602001838380828437600081840152601f19601f82011690508083019250505050505050610973565b905060001515600a60008c73ffffffffffffffffffffffffffffffffffffffff1673ffffffffffffffffffffffffffffffffffffffff168152602001908152602001600020600088815260200190815260200160002060009054906101000a900460ff16151514610bc0576040517f08c379a0000000000000000000000000000000000000000000000000000000008152600401610bb790612a5f565b60405180910390fd5b8973ffffffffffffffffffffffffffffffffffffffff168173ffffffffffffffffffffffffffffffffffffffff1614610c2e576040517f08c379a0000000000000000000000000000000000000000000000000000000008152600401610c25906130d5565b60405180910390fd5b600087670de0b6b3a76400008a610c4591906130f5565b610c4f9190613166565b9050600760009054906101000a900473ffffffffffffffffffffffffffffffffffffffff1673ffffffffffffffffffffffffffffffffffffffff166340c10f198b836040518363ffffffff1660e01b8152600401610cae929190612a8e565b600060405180830381600087803b158015610cc857600080fd5b505af1158015610cdc573d6000803e3d6000fd5b50505050600180811115610cf357610cf2612ab7565b5b7f1180c9d083141dc152a1859a6dbf9f5ca1e6d4a91d43ba1ea7529d52db634845338c848b42604051610d2a959493929190612ae6565b60405180910390a25050505050505050505050565b6000610d4d888888876102e1565b90506000610d5a82610fd1565b90506000610dac8286868080601f016020809104026020016040519081016040528093929190818152602001838380828437600081840152601f19601f82011690508083019250505050505050610973565b905060001515600a60008c73ffffffffffffffffffffffffffffffffffffffff1673ffffffffffffffffffffffffffffffffffffffff168152602001908152602001600020600088815260200190815260200160002060009054906101000a900460ff16151514610e52576040517f08c379a0000000000000000000000000000000000000000000000000000000008152600401610e4990612a5f565b60405180910390fd5b8973ffffffffffffffffffffffffffffffffffffffff168173ffffffffffffffffffffffffffffffffffffffff1614610ec0576040517f08c379a0000000000000000000000000000000000000000000000000000000008152600401610eb7906130d5565b60405180910390fd5b6000670de0b6b3a76400008989610ed791906130f5565b610ee19190613166565b9050600860009054906101000a900473ffffffffffffffffffffffffffffffffffffffff1673ffffffffffffffffffffffffffffffffffffffff166340c10f198b836040518363ffffffff1660e01b8152600401610f40929190612a8e565b600060405180830381600087803b158015610f5a57600080fd5b505af1158015610f6e573d6000803e3d6000fd5b50505050600180811115610f8557610f84612ab7565b5b7f1180c9d083141dc152a1859a6dbf9f5ca1e6d4a91d43ba1ea7529d52db634845338c848b42604051610fbc959493929190612ae6565b60405180910390a25050505050505050505050565b600081604051602001610fe4919061320f565b604051602081830303815290604052805190602001209050919050565b60008073ffffffffffffffffffffffffffffffffffffffff16600160009054906101000a900473ffffffffffffffffffffffffffffffffffffffff1673ffffffffffffffffffffffffffffffffffffffff16148061108957506000611087600160009054906101000a900473ffffffffffffffffffffffffffffffffffffffff166119af565b145b1561109a5761109860006119ba565b505b600160009054906101000a900473ffffffffffffffffffffffffffffffffffffffff1673ffffffffffffffffffffffffffffffffffffffff166338cc48316040518163ffffffff1660e01b81526004016020604051808303816000875af1158015611109573d6000803e3d6000fd5b505050506040513d601f19601f8201168201806040525081019061112d919061324a565b73ffffffffffffffffffffffffffffffffffffffff1660008054906101000a900473ffffffffffffffffffffffffffffffffffffffff1673ffffffffffffffffffffffffffffffffffffffff161461125257600160009054906101000a900473ffffffffffffffffffffffffffffffffffffffff1673ffffffffffffffffffffffffffffffffffffffff166338cc48316040518163ffffffff1660e01b81526004016020604051808303816000875af11580156111ee573d6000803e3d6000fd5b505050506040513d601f19601f82011682018060405250810190611212919061324a565b6000806101000a81548173ffffffffffffffffffffffffffffffffffffffff021916908373ffffffffffffffffffffffffffffffffffffffff1602179055505b60008054906101000a900473ffffffffffffffffffffffffffffffffffffffff1673ffffffffffffffffffffffffffffffffffffffff1663c281d19e6040518163ffffffff1660e01b81526004016020604051808303816000875af11580156112bf573d6000803e3d6000fd5b505050506040513d601f19601f820116820180604052508101906112e3919061324a565b905090565b60008073ffffffffffffffffffffffffffffffffffffffff16600160009054906101000a900473ffffffffffffffffffffffffffffffffffffffff1673ffffffffffffffffffffffffffffffffffffffff1614806113705750600061136e600160009054906101000a900473ffffffffffffffffffffffffffffffffffffffff166119af565b145b156113815761137f60006119ba565b505b600160009054906101000a900473ffffffffffffffffffffffffffffffffffffffff1673ffffffffffffffffffffffffffffffffffffffff166338cc48316040518163ffffffff1660e01b81526004016020604051808303816000875af11580156113f0573d6000803e3d6000fd5b505050506040513d601f19601f82011682018060405250810190611414919061324a565b73ffffffffffffffffffffffffffffffffffffffff1660008054906101000a900473ffffffffffffffffffffffffffffffffffffffff1673ffffffffffffffffffffffffffffffffffffffff161461153957600160009054906101000a900473ffffffffffffffffffffffffffffffffffffffff1673ffffffffffffffffffffffffffffffffffffffff166338cc48316040518163ffffffff1660e01b81526004016020604051808303816000875af11580156114d5573d6000803e3d6000fd5b505050506040513d601f19601f820116820180604052508101906114f9919061324a565b6000806101000a81548173ffffffffffffffffffffffffffffffffffffffff021916908373ffffffffffffffffffffffffffffffffffffffff1602179055505b60008054906101000a900473ffffffffffffffffffffffffffffffffffffffff1673ffffffffffffffffffffffffffffffffffffffff1663524f3889836040518263ffffffff1660e01b81526004016115929190612548565b6020604051808303816000875af11580156115b1573d6000803e3d6000fd5b505050506040513d601f19601f820116820180604052508101906115d5919061328c565b9050919050565b60008073ffffffffffffffffffffffffffffffffffffffff16600160009054906101000a900473ffffffffffffffffffffffffffffffffffffffff1673ffffffffffffffffffffffffffffffffffffffff16148061166457506000611662600160009054906101000a900473ffffffffffffffffffffffffffffffffffffffff166119af565b145b156116755761167360006119ba565b505b600160009054906101000a900473ffffffffffffffffffffffffffffffffffffffff1673ffffffffffffffffffffffffffffffffffffffff166338cc48316040518163ffffffff1660e01b81526004016020604051808303816000875af11580156116e4573d6000803e3d6000fd5b505050506040513d601f19601f82011682018060405250810190611708919061324a565b73ffffffffffffffffffffffffffffffffffffffff1660008054906101000a900473ffffffffffffffffffffffffffffffffffffffff1673ffffffffffffffffffffffffffffffffffffffff161461182d57600160009054906101000a900473ffffffffffffffffffffffffffffffffffffffff1673ffffffffffffffffffffffffffffffffffffffff166338cc48316040518163ffffffff1660e01b81526004016020604051808303816000875af11580156117c9573d6000803e3d6000fd5b505050506040513d601f19601f820116820180604052508101906117ed919061324a565b6000806101000a81548173ffffffffffffffffffffffffffffffffffffffff021916908373ffffffffffffffffffffffffffffffffffffffff1602179055505b60008060009054906101000a900473ffffffffffffffffffffffffffffffffffffffff1673ffffffffffffffffffffffffffffffffffffffff1663524f3889856040518263ffffffff1660e01b81526004016118899190612548565b6020604051808303816000875af11580156118a8573d6000803e3d6000fd5b505050506040513d601f19601f820116820180604052508101906118cc919061328c565b905062030d403a6118dd91906130f5565b670de0b6b3a76400006118f091906132b9565b811115611903576000801b9150506119a9565b60008054906101000a900473ffffffffffffffffffffffffffffffffffffffff1673ffffffffffffffffffffffffffffffffffffffff1663adf59f9982600087876040518563ffffffff1660e01b815260040161196293929190613328565b60206040518083038185885af1158015611980573d6000803e3d6000fd5b50505050506040513d601f19601f820116820180604052508101906119a59190613382565b9150505b92915050565b6000813b9050919050565b60006119c46119cb565b9050919050565b6000806119eb731d3b2638a7cc9f2cb3d298a3da7a90b67e5506ed6119af565b1115611a8d57731d3b2638a7cc9f2cb3d298a3da7a90b67e5506ed600160006101000a81548173ffffffffffffffffffffffffffffffffffffffff021916908373ffffffffffffffffffffffffffffffffffffffff160217905550611a846040518060400160405280600b81526020017f6574685f6d61696e6e6574000000000000000000000000000000000000000000815250612165565b60019050612162565b6000611aac73c03a2615d5efaf5f49f60b7bb6583eaec212fdf16119af565b1115611b4e5773c03a2615d5efaf5f49f60b7bb6583eaec212fdf1600160006101000a81548173ffffffffffffffffffffffffffffffffffffffff021916908373ffffffffffffffffffffffffffffffffffffffff160217905550611b456040518060400160405280600c81526020017f6574685f726f707374656e330000000000000000000000000000000000000000815250612165565b60019050612162565b6000611b6d73b7a07bcf2ba2f2703b24c0691b5278999c59ac7e6119af565b1115611c0f5773b7a07bcf2ba2f2703b24c0691b5278999c59ac7e600160006101000a81548173ffffffffffffffffffffffffffffffffffffffff021916908373ffffffffffffffffffffffffffffffffffffffff160217905550611c066040518060400160405280600981526020017f6574685f6b6f76616e0000000000000000000000000000000000000000000000815250612165565b60019050612162565b6000611c2e73146500cfd35b22e4a392fe0adc06de1a1368ed486119af565b1115611cd05773146500cfd35b22e4a392fe0adc06de1a1368ed48600160006101000a81548173ffffffffffffffffffffffffffffffffffffffff021916908373ffffffffffffffffffffffffffffffffffffffff160217905550611cc76040518060400160405280600b81526020017f6574685f72696e6b656279000000000000000000000000000000000000000000815250612165565b60019050612162565b6000611cef73a2998efd205fb9d4b4963afb70778d6354ad3a416119af565b1115611d915773a2998efd205fb9d4b4963afb70778d6354ad3a41600160006101000a81548173ffffffffffffffffffffffffffffffffffffffff021916908373ffffffffffffffffffffffffffffffffffffffff160217905550611d886040518060400160405280600a81526020017f6574685f676f65726c6900000000000000000000000000000000000000000000815250612165565b60019050612162565b6000611db07390a0f94702c9630036fb9846b52bf31a1c991a846119af565b1115611e52577390a0f94702c9630036fb9846b52bf31a1c991a84600160006101000a81548173ffffffffffffffffffffffffffffffffffffffff021916908373ffffffffffffffffffffffffffffffffffffffff160217905550611e496040518060400160405280600b81526020017f6273635f6d61696e6e6574000000000000000000000000000000000000000000815250612165565b60019050612162565b6000611e7173816ec2af1b56183f82f8c05759e99fec3c3de6096119af565b1115611f135773816ec2af1b56183f82f8c05759e99fec3c3de609600160006101000a81548173ffffffffffffffffffffffffffffffffffffffff021916908373ffffffffffffffffffffffffffffffffffffffff160217905550611f0a6040518060400160405280600f81526020017f706f6c79676f6e5f6d61696e6e65740000000000000000000000000000000000815250612165565b60019050612162565b6000611f327314b31a1c66a9f3d18dfac2d123fe8ce5847b7f856119af565b1115611fd4577314b31a1c66a9f3d18dfac2d123fe8ce5847b7f85600160006101000a81548173ffffffffffffffffffffffffffffffffffffffff021916908373ffffffffffffffffffffffffffffffffffffffff160217905550611fcb6040518060400160405280600f81526020017f7365706f6c69615f6d61696e6e65740000000000000000000000000000000000815250612165565b60019050612162565b6000611ff3736f485c8bf6fc43ea212e93bbf8ce046c7f1cb4756119af565b111561205757736f485c8bf6fc43ea212e93bbf8ce046c7f1cb475600160006101000a81548173ffffffffffffffffffffffffffffffffffffffff021916908373ffffffffffffffffffffffffffffffffffffffff16021790555060019050612162565b60006120767320e12a1f859b3feae5fb2a0a32c18f5a65555bbf6119af565b11156120da577320e12a1f859b3feae5fb2a0a32c18f5a65555bbf600160006101000a81548173ffffffffffffffffffffffffffffffffffffffff021916908373ffffffffffffffffffffffffffffffffffffffff16021790555060019050612162565b60006120f97351efaf4c8b3c9afbd5ab9f4bbc82784ab6ef8faa6119af565b111561215d577351efaf4c8b3c9afbd5ab9f4bbc82784ab6ef8faa600160006101000a81548173ffffffffffffffffffffffffffffffffffffffff021916908373ffffffffffffffffffffffffffffffffffffffff16021790555060019050612162565b600090505b90565b80600290816121749190612dbc565b5050565b6000604051905090565b600080fd5b600080fd5b600073ffffffffffffffffffffffffffffffffffffffff82169050919050565b60006121b78261218c565b9050919050565b6121c7816121ac565b81146121d257600080fd5b50565b6000813590506121e4816121be565b92915050565b6000819050919050565b6121fd816121ea565b811461220857600080fd5b50565b60008135905061221a816121f4565b92915050565b6000806000806080858703121561223a57612239612182565b5b6000612248878288016121d5565b9450506020612259878288016121d5565b935050604061226a8782880161220b565b925050606061227b8782880161220b565b91505092959194509250565b6000819050919050565b61229a81612287565b82525050565b60006020820190506122b56000830184612291565b92915050565b600080604083850312156122d2576122d1612182565b5b60006122e0858286016121d5565b92505060206122f18582860161220b565b9150509250929050565b61230481612287565b811461230f57600080fd5b50565b600081359050612321816122fb565b92915050565b600080fd5b600080fd5b6000601f19601f8301169050919050565b7f4e487b7100000000000000000000000000000000000000000000000000000000600052604160045260246000fd5b61237a82612331565b810181811067ffffffffffffffff8211171561239957612398612342565b5b80604052505050565b60006123ac612178565b90506123b88282612371565b919050565b600067ffffffffffffffff8211156123d8576123d7612342565b5b6123e182612331565b9050602081019050919050565b82818337600083830152505050565b600061241061240b846123bd565b6123a2565b90508281526020810184848401111561242c5761242b61232c565b5b6124378482856123ee565b509392505050565b600082601f83011261245457612453612327565b5b81356124648482602086016123fd565b91505092915050565b6000806040838503121561248457612483612182565b5b600061249285828601612312565b925050602083013567ffffffffffffffff8111156124b3576124b2612187565b5b6124bf8582860161243f565b9150509250929050565b600081519050919050565b600082825260208201905092915050565b60005b838110156125035780820151818401526020810190506124e8565b60008484015250505050565b600061251a826124c9565b61252481856124d4565b93506125348185602086016124e5565b61253d81612331565b840191505092915050565b60006020820190508181036000830152612562818461250f565b905092915050565b600067ffffffffffffffff82111561258557612584612342565b5b61258e82612331565b9050602081019050919050565b60006125ae6125a98461256a565b6123a2565b9050828152602081018484840111156125ca576125c961232c565b5b6125d58482856123ee565b509392505050565b600082601f8301126125f2576125f1612327565b5b813561260284826020860161259b565b91505092915050565b6000806040838503121561262257612621612182565b5b600061263085828601612312565b925050602083013567ffffffffffffffff81111561265157612650612187565b5b61265d858286016125dd565b9150509250929050565b612670816121ac565b82525050565b600060208201905061268b6000830184612667565b92915050565b6000602082840312156126a7576126a6612182565b5b600082013567ffffffffffffffff8111156126c5576126c4612187565b5b6126d1848285016125dd565b91505092915050565b600060ff82169050919050565b6126f0816126da565b82525050565b600060608201905061270b6000830186612291565b6127186020830185612291565b61272560408301846126e7565b949350505050565b600080600080600060a0868803121561274957612748612182565b5b6000612757888289016121d5565b9550506020612768888289016121d5565b94505060406127798882890161220b565b935050606061278a8882890161220b565b925050608086013567ffffffffffffffff8111156127ab576127aa612187565b5b6127b7888289016125dd565b9150509295509295909350565b60008115159050919050565b6127d9816127c4565b82525050565b60006020820190506127f460008301846127d0565b92915050565b600080fd5b600080fd5b60008083601f84011261281a57612819612327565b5b8235905067ffffffffffffffff811115612837576128366127fa565b5b602083019150836001820283011115612853576128526127ff565b5b9250929050565b600080600080600080600060c0888a03121561287957612878612182565b5b60006128878a828b016121d5565b97505060206128988a828b016121d5565b96505060406128a98a828b0161220b565b95505060606128ba8a828b0161220b565b94505060806128cb8a828b0161220b565b93505060a088013567ffffffffffffffff8111156128ec576128eb612187565b5b6128f88a828b01612804565b925092505092959891949750929550565b60006020828403121561291f5761291e612182565b5b600061292d84828501612312565b91505092915050565b60008160601b9050919050565b600061294e82612936565b9050919050565b600061296082612943565b9050919050565b612978612973826121ac565b612955565b82525050565b6000819050919050565b612999612994826121ea565b61297e565b82525050565b60006129ab8287612967565b6014820191506129bb8286612967565b6014820191506129cb8285612988565b6020820191506129db8284612988565b60208201915081905095945050505050565b7f4272696467653a205472616e73616374696f6e20616c7265616479204578697360008201527f7400000000000000000000000000000000000000000000000000000000000000602082015250565b6000612a496021836124d4565b9150612a54826129ed565b604082019050919050565b60006020820190508181036000830152612a7881612a3c565b9050919050565b612a88816121ea565b82525050565b6000604082019050612aa36000830185612667565b612ab06020830184612a7f565b9392505050565b7f4e487b7100000000000000000000000000000000000000000000000000000000600052602160045260246000fd5b600060a082019050612afb6000830188612667565b612b086020830187612667565b612b156040830186612a7f565b612b226060830185612a7f565b612b2f6080830184612a7f565b9695505050505050565b7f4e487b7100000000000000000000000000000000000000000000000000000000600052601160045260246000fd5b6000612b73826121ea565b91507fffffffffffffffffffffffffffffffffffffffffffffffffffffffffffffffff8203612ba557612ba4612b39565b5b600182019050919050565b7f4e487b7100000000000000000000000000000000000000000000000000000000600052602260045260246000fd5b60006002820490506001821680612bf757607f821691505b602082108103612c0a57612c09612bb0565b5b50919050565b60008190508160005260206000209050919050565b60006020601f8301049050919050565b600082821b905092915050565b600060088302612c727fffffffffffffffffffffffffffffffffffffffffffffffffffffffffffffffff82612c35565b612c7c8683612c35565b95508019841693508086168417925050509392505050565b6000819050919050565b6000612cb9612cb4612caf846121ea565b612c94565b6121ea565b9050919050565b6000819050919050565b612cd383612c9e565b612ce7612cdf82612cc0565b848454612c42565b825550505050565b600090565b612cfc612cef565b612d07818484612cca565b505050565b5b81811015612d2b57612d20600082612cf4565b600181019050612d0d565b5050565b601f821115612d7057612d4181612c10565b612d4a84612c25565b81016020851015612d59578190505b612d6d612d6585612c25565b830182612d0c565b50505b505050565b600082821c905092915050565b6000612d9360001984600802612d75565b1980831691505092915050565b6000612dac8383612d82565b9150826002028217905092915050565b612dc5826124c9565b67ffffffffffffffff811115612dde57612ddd612342565b5b612de88254612bdf565b612df3828285612d2f565b600060209050601f831160018114612e265760008415612e14578287015190505b612e1e8582612da0565b865550612e86565b601f198416612e3486612c10565b60005b82811015612e5c57848901518255600182019150602085019450602081019050612e37565b86831015612e795784890151612e75601f891682612d82565b8355505b6001600288020188555050505b505050505050565b7f50726f7661626c6520717565727920776173204e4f542073656e742c20706c6560008201527f6173652061646420736f6d652045544820746f20636f76657220666f7220746860208201527f6520717565727920666565000000000000000000000000000000000000000000604082015250565b6000612f10604b836124d4565b9150612f1b82612e8e565b606082019050919050565b60006020820190508181036000830152612f3f81612f03565b9050919050565b7f50726f7661626c65207175657279207761732073656e742c207374616e64696e60008201527f6720627920666f722074686520616e737765722e2e0000000000000000000000602082015250565b6000612fa26035836124d4565b9150612fad82612f46565b604082019050919050565b60006020820190508181036000830152612fd181612f95565b9050919050565b6000608082019050612fed6000830187612291565b612ffa60208301866126e7565b6130076040830185612291565b6130146060830184612291565b95945050505050565b7f696e76616c6964207369676e6174757265206c656e6774680000000000000000600082015250565b60006130536018836124d4565b915061305e8261301d565b602082019050919050565b6000602082019050818103600083015261308281613046565b9050919050565b7f4272696467653a20496e76616c6964207369676e657200000000000000000000600082015250565b60006130bf6016836124d4565b91506130ca82613089565b602082019050919050565b600060208201905081810360008301526130ee816130b2565b9050919050565b6000613100826121ea565b915061310b836121ea565b9250828202613119816121ea565b915082820484148315176131305761312f612b39565b5b5092915050565b7f4e487b7100000000000000000000000000000000000000000000000000000000600052601260045260246000fd5b6000613171826121ea565b915061317c836121ea565b92508261318c5761318b613137565b5b828204905092915050565b600081905092915050565b7f19457468657265756d205369676e6564204d6573736167653a0a333200000000600082015250565b60006131d8601c83613197565b91506131e3826131a2565b601c82019050919050565b6000819050919050565b61320961320482612287565b6131ee565b82525050565b600061321a826131cb565b915061322682846131f8565b60208201915081905092915050565b600081519050613244816121be565b92915050565b6000602082840312156132605761325f612182565b5b600061326e84828501613235565b91505092915050565b600081519050613286816121f4565b92915050565b6000602082840312156132a2576132a1612182565b5b60006132b084828501613277565b91505092915050565b60006132c4826121ea565b91506132cf836121ea565b92508282019050808211156132e7576132e6612b39565b5b92915050565b6000819050919050565b600061331261330d613308846132ed565b612c94565b6121ea565b9050919050565b613322816132f7565b82525050565b600060608201905061333d6000830186613319565b818103602083015261334f818561250f565b90508181036040830152613363818461250f565b9050949350505050565b60008151905061337c816122fb565b92915050565b60006020828403121561339857613397612182565b5b60006133a68482850161336d565b9150509291505056fe6a736f6e2868747470733a2f2f6170692e70726f2e636f696e626173652e636f6d2f70726f64756374732f4554482d4254432f7469636b6572292e7072696365a2646970667358221220b049ba112c7279a23bed966aa2798291b998a2c2401b23b1977ef19e6e337dd164736f6c63430008110033",
  "linkReferences": {},
  "deployedLinkReferences": {}
}