{
  "_format": "hh-sol-artifact-1",
  "contractName": "TokenSwap",
  "sourceName": "src/backend/contracts/swap.sol",
  "abi": [
    {
      "inputs": [
        {
          "internalType": "address",
          "name": "_token1",
          "type": "address"
        },
        {
          "internalType": "address",
          "name": "_token2",
          "type": "address"
        }
      ],
      "stateMutability": "payable",
      "type": "constructor"
    },
    {
      "anonymous": false,
      "inputs": [
        {
          "indexed": false,
          "internalType": "string",
          "name": "nextStep",
          "type": "string"
        }
      ],
      "name": "LogConstructorInitiated",
      "type": "event"
    },
    {
      "anonymous": false,
      "inputs": [
        {
          "indexed": false,
          "internalType": "string",
          "name": "description",
          "type": "string"
        }
      ],
      "name": "LogNewProvableQuery",
      "type": "event"
    },
    {
      "anonymous": false,
      "inputs": [
        {
          "indexed": false,
          "internalType": "string",
          "name": "price",
          "type": "string"
        }
      ],
      "name": "LogPriceUpdated",
      "type": "event"
    },
    {
      "anonymous": false,
      "inputs": [
        {
          "indexed": false,
          "internalType": "address",
          "name": "from",
          "type": "address"
        },
        {
          "indexed": false,
          "internalType": "address",
          "name": "to",
          "type": "address"
        },
        {
          "indexed": false,
          "internalType": "uint256",
          "name": "amount",
          "type": "uint256"
        },
        {
          "indexed": false,
          "internalType": "uint256",
          "name": "nonce",
          "type": "uint256"
        },
        {
          "indexed": false,
          "internalType": "uint256",
          "name": "timestamp",
          "type": "uint256"
        },
        {
          "indexed": false,
          "internalType": "uint256",
          "name": "chainId",
          "type": "uint256"
        },
        {
          "indexed": false,
          "internalType": "bytes",
          "name": "signature",
          "type": "bytes"
        },
        {
          "indexed": true,
          "internalType": "enum TokenSwap.State",
          "name": "state",
          "type": "uint8"
        }
      ],
      "name": "Swap",
      "type": "event"
    },
    {
      "anonymous": false,
      "inputs": [
        {
          "indexed": false,
          "internalType": "address",
          "name": "from",
          "type": "address"
        },
        {
          "indexed": false,
          "internalType": "address",
          "name": "to",
          "type": "address"
        },
        {
          "indexed": false,
          "internalType": "uint256",
          "name": "amount",
          "type": "uint256"
        },
        {
          "indexed": false,
          "internalType": "uint256",
          "name": "nonce",
          "type": "uint256"
        },
        {
          "indexed": false,
          "internalType": "uint256",
          "name": "timestamp",
          "type": "uint256"
        },
        {
          "indexed": true,
          "internalType": "enum TokenSwap.State",
          "name": "state",
          "type": "uint8"
        }
      ],
      "name": "SwapMint",
      "type": "event"
    },
    {
      "inputs": [],
      "name": "ETHUSD",
      "outputs": [
        {
          "internalType": "string",
          "name": "",
          "type": "string"
        }
      ],
      "stateMutability": "view",
      "type": "function"
    },
    {
      "inputs": [
        {
          "internalType": "bytes32",
          "name": "myid",
          "type": "bytes32"
        },
        {
          "internalType": "string",
          "name": "result",
          "type": "string"
        }
      ],
      "name": "__callback",
      "outputs": [],
      "stateMutability": "nonpayable",
      "type": "function"
    },
    {
      "inputs": [
        {
          "internalType": "address",
          "name": "_to",
          "type": "address"
        },
        {
          "internalType": "uint256",
          "name": "_amount",
          "type": "uint256"
        },
        {
          "internalType": "bytes",
          "name": "_signature",
          "type": "bytes"
        },
        {
          "internalType": "uint256",
          "name": "_chainId",
          "type": "uint256"
        }
      ],
      "name": "burnBtc",
      "outputs": [],
      "stateMutability": "nonpayable",
      "type": "function"
    },
    {
      "inputs": [
        {
          "internalType": "address",
          "name": "_to",
          "type": "address"
        },
        {
          "internalType": "uint256",
          "name": "_amount",
          "type": "uint256"
        },
        {
          "internalType": "bytes",
          "name": "_signature",
          "type": "bytes"
        },
        {
          "internalType": "uint256",
          "name": "_chainId",
          "type": "uint256"
        }
      ],
      "name": "burnEth",
      "outputs": [],
      "stateMutability": "nonpayable",
      "type": "function"
    },
    {
      "inputs": [
        {
          "internalType": "bytes32",
          "name": "_messageHash",
          "type": "bytes32"
        }
      ],
      "name": "getEthSignedMessageHash",
      "outputs": [
        {
          "internalType": "bytes32",
          "name": "",
          "type": "bytes32"
        }
      ],
      "stateMutability": "pure",
      "type": "function"
    },
    {
      "inputs": [
        {
          "internalType": "address",
          "name": "_from",
          "type": "address"
        },
        {
          "internalType": "address",
          "name": "_to",
          "type": "address"
        },
        {
          "internalType": "uint256",
          "name": "_amount",
          "type": "uint256"
        }
      ],
      "name": "getMessageHash",
      "outputs": [
        {
          "internalType": "bytes32",
          "name": "",
          "type": "bytes32"
        }
      ],
      "stateMutability": "pure",
      "type": "function"
    },
    {
      "inputs": [
        {
          "internalType": "address",
          "name": "_from",
          "type": "address"
        },
        {
          "internalType": "address",
          "name": "_to",
          "type": "address"
        },
        {
          "internalType": "uint256",
          "name": "_amount",
          "type": "uint256"
        },
        {
          "internalType": "uint256",
          "name": "_price",
          "type": "uint256"
        },
        {
          "internalType": "uint256",
          "name": "_nonce",
          "type": "uint256"
        },
        {
          "internalType": "bytes",
          "name": "signature",
          "type": "bytes"
        }
      ],
      "name": "mintBtc",
      "outputs": [],
      "stateMutability": "nonpayable",
      "type": "function"
    },
    {
      "inputs": [
        {
          "internalType": "address",
          "name": "_from",
          "type": "address"
        },
        {
          "internalType": "address",
          "name": "_to",
          "type": "address"
        },
        {
          "internalType": "uint256",
          "name": "_amount",
          "type": "uint256"
        },
        {
          "internalType": "uint256",
          "name": "_price",
          "type": "uint256"
        },
        {
          "internalType": "uint256",
          "name": "_nonce",
          "type": "uint256"
        },
        {
          "internalType": "bytes",
          "name": "signature",
          "type": "bytes"
        }
      ],
      "name": "mintEth",
      "outputs": [],
      "stateMutability": "nonpayable",
      "type": "function"
    },
    {
      "inputs": [
        {
          "internalType": "bytes32",
          "name": "_ethSignedMessageHash",
          "type": "bytes32"
        },
        {
          "internalType": "bytes",
          "name": "_signature",
          "type": "bytes"
        }
      ],
      "name": "recoverSigner",
      "outputs": [
        {
          "internalType": "address",
          "name": "",
          "type": "address"
        }
      ],
      "stateMutability": "pure",
      "type": "function"
    },
    {
      "inputs": [
        {
          "internalType": "bytes",
          "name": "sig",
          "type": "bytes"
        }
      ],
      "name": "splitSignature",
      "outputs": [
        {
          "internalType": "bytes32",
          "name": "r",
          "type": "bytes32"
        },
        {
          "internalType": "bytes32",
          "name": "s",
          "type": "bytes32"
        },
        {
          "internalType": "uint8",
          "name": "v",
          "type": "uint8"
        }
      ],
      "stateMutability": "pure",
      "type": "function"
    },
    {
      "inputs": [],
      "name": "updatePrice",
      "outputs": [],
      "stateMutability": "payable",
      "type": "function"
    },
    {
      "inputs": [
        {
          "internalType": "address",
          "name": "_signer",
          "type": "address"
        },
        {
          "internalType": "address",
          "name": "_to",
          "type": "address"
        },
        {
          "internalType": "uint256",
          "name": "_amount",
          "type": "uint256"
        },
        {
          "internalType": "bytes",
          "name": "signature",
          "type": "bytes"
        }
      ],
      "name": "verify",
      "outputs": [
        {
          "internalType": "bool",
          "name": "",
          "type": "bool"
        }
      ],
      "stateMutability": "pure",
      "type": "function"
    }
  ],
  "bytecode": "0x608060405260405162003be038038062003be0833981810160405281019062000029919062000383565b7f11a3fca63f87bd67d7f9f72b744acc8be2193705e7a734ac3a773d35d259e87b604051620000589062000477565b60405180910390a133600660006101000a81548173ffffffffffffffffffffffffffffffffffffffff021916908373ffffffffffffffffffffffffffffffffffffffff1602179055508073ffffffffffffffffffffffffffffffffffffffff168273ffffffffffffffffffffffffffffffffffffffff160362000112576040517f08c379a00000000000000000000000000000000000000000000000000000000081526004016200010990620004e9565b60405180910390fd5b60008273ffffffffffffffffffffffffffffffffffffffff166306fdde036040518163ffffffff1660e01b8152600401600060405180830381865afa15801562000160573d6000803e3d6000fd5b505050506040513d6000823e3d601f19601f820116820180604052508101906200018b91906200068a565b90507ff4817828cfb0242af0f04662358bf114fb5c05c5085a5eec9f709628f9d31110818051906020012003620002445782600760006101000a81548173ffffffffffffffffffffffffffffffffffffffff021916908373ffffffffffffffffffffffffffffffffffffffff16021790555081600860006101000a81548173ffffffffffffffffffffffffffffffffffffffff021916908373ffffffffffffffffffffffffffffffffffffffff16021790555062000301565b7f5545544845520000000000000000000000000000000000000000000000000000818051906020012003620002fb5781600760006101000a81548173ffffffffffffffffffffffffffffffffffffffff021916908373ffffffffffffffffffffffffffffffffffffffff16021790555081600860006101000a81548173ffffffffffffffffffffffffffffffffffffffff021916908373ffffffffffffffffffffffffffffffffffffffff16021790555062000300565b600080fd5b5b505050620006db565b6000604051905090565b600080fd5b600080fd5b600073ffffffffffffffffffffffffffffffffffffffff82169050919050565b60006200034b826200031e565b9050919050565b6200035d816200033e565b81146200036957600080fd5b50565b6000815190506200037d8162000352565b92915050565b600080604083850312156200039d576200039c62000314565b5b6000620003ad858286016200036c565b9250506020620003c0858286016200036c565b9150509250929050565b600082825260208201905092915050565b7f436f6e7374727563746f722077617320696e697469617465642e2043616c6c2060008201527f27757064617465507269636528292720746f2073656e64207468652050726f7660208201527f61626c652051756572792e000000000000000000000000000000000000000000604082015250565b60006200045f604b83620003ca565b91506200046c82620003db565b606082019050919050565b60006020820190508181036000830152620004928162000450565b9050919050565b7f537761703a20426f746820746f6b656e73206172652073616d65000000000000600082015250565b6000620004d1601a83620003ca565b9150620004de8262000499565b602082019050919050565b600060208201905081810360008301526200050481620004c2565b9050919050565b600080fd5b600080fd5b6000601f19601f8301169050919050565b7f4e487b7100000000000000000000000000000000000000000000000000000000600052604160045260246000fd5b620005608262000515565b810181811067ffffffffffffffff8211171562000582576200058162000526565b5b80604052505050565b6000620005976200030a565b9050620005a5828262000555565b919050565b600067ffffffffffffffff821115620005c857620005c762000526565b5b620005d38262000515565b9050602081019050919050565b60005b8381101562000600578082015181840152602081019050620005e3565b60008484015250505050565b6000620006236200061d84620005aa565b6200058b565b90508281526020810184848401111562000642576200064162000510565b5b6200064f848285620005e0565b509392505050565b600082601f8301126200066f576200066e6200050b565b5b8151620006818482602086016200060c565b91505092915050565b600060208284031215620006a357620006a262000314565b5b600082015167ffffffffffffffff811115620006c457620006c362000319565b5b620006d28482850162000657565b91505092915050565b6134f580620006eb6000396000f3fe6080604052600436106100a75760003560e01c8063a7bb580311610064578063a7bb5803146101ad578063b2f2c298146101ec578063bc57794014610215578063d85fa80014610252578063ec6904701461027b578063fa540801146102a4576100a7565b806327dc297e146100ac57806355046a72146100d5578063673a7e28146100fe57806373db08441461010857806393e9f8fc1461013357806397aba7f914610170575b600080fd5b3480156100b857600080fd5b506100d360048036038101906100ce9190612313565b6102e1565b005b3480156100e157600080fd5b506100fc60048036038101906100f79190612463565b61036b565b005b61010661058d565b005b34801561011457600080fd5b5061011d61069c565b60405161012a919061256a565b60405180910390f35b34801561013f57600080fd5b5061015a6004803603810190610155919061262d565b61072a565b60405161016791906126cb565b60405180910390f35b34801561017c57600080fd5b50610197600480360381019061019291906126e6565b61078b565b6040516101a49190612751565b60405180910390f35b3480156101b957600080fd5b506101d460048036038101906101cf919061276c565b6107fa565b6040516101e3939291906127e0565b60405180910390f35b3480156101f857600080fd5b50610213600480360381019061020e9190612463565b610862565b005b34801561022157600080fd5b5061023c60048036038101906102379190612817565b610a83565b604051610249919061286a565b60405180910390f35b34801561025e57600080fd5b5061027960048036038101906102749190612885565b610ab9565b005b34801561028757600080fd5b506102a2600480360381019061029d9190612885565b610d4b565b005b3480156102b057600080fd5b506102cb60048036038101906102c69190612934565b610fdc565b6040516102d8919061286a565b60405180910390f35b6102e961100c565b73ffffffffffffffffffffffffffffffffffffffff163373ffffffffffffffffffffffffffffffffffffffff161461032057600080fd5b806005908161032f9190612b6d565b507f71f1a5645e51a2da828ffcf79cc17da88eb25e1bca8b9dced23210847a4769c18160405161035f919061256a565b60405180910390a15050565b60001515600a60003373ffffffffffffffffffffffffffffffffffffffff1673ffffffffffffffffffffffffffffffffffffffff1681526020019081526020016000206000600954815260200190815260200160002060009054906101000a900460ff16151514610411576040517f08c379a000000000000000000000000000000000000000000000000000000000815260040161040890612cb1565b60405180910390fd5b6001600a60003373ffffffffffffffffffffffffffffffffffffffff1673ffffffffffffffffffffffffffffffffffffffff1681526020019081526020016000206000600954815260200190815260200160002060006101000a81548160ff021916908315150217905550600760009054906101000a900473ffffffffffffffffffffffffffffffffffffffff1673ffffffffffffffffffffffffffffffffffffffff16639dc29fac33866040518363ffffffff1660e01b81526004016104d9929190612ce0565b600060405180830381600087803b1580156104f357600080fd5b505af1158015610507573d6000803e3d6000fd5b5050505061051361058d565b6000600181111561052757610526612d09565b5b7f056962899b74081147f53548aa99703457065e4229ed820586208790c057d30133878760095442878a8a604051610566989796959493929190612d76565b60405180910390a26009600081548092919061058190612e1d565b91905055505050505050565b476105cc6040518060400160405280600381526020017f55524c00000000000000000000000000000000000000000000000000000000008152506112f3565b111561060c577fc4dc360d0a9c0677a3379ae0a3d81e887f761e65fdf3d7e00859d1bcd3c473896040516105ff90612efd565b60405180910390a161069a565b7fc4dc360d0a9c0677a3379ae0a3d81e887f761e65fdf3d7e00859d1bcd3c4738960405161063990612f8f565b60405180910390a16106986040518060400160405280600381526020017f55524c0000000000000000000000000000000000000000000000000000000000815250604051806060016040528060408152602001613480604091396115e7565b505b565b600580546106a990612990565b80601f01602080910402602001604051908101604052809291908181526020018280546106d590612990565b80156107225780601f106106f757610100808354040283529160200191610722565b820191906000526020600020905b81548152906001019060200180831161070557829003601f168201915b505050505081565b600080610738868686610a83565b9050600061074582610fdc565b90508673ffffffffffffffffffffffffffffffffffffffff16610768828661078b565b73ffffffffffffffffffffffffffffffffffffffff161492505050949350505050565b60008060008061079a856107fa565b925092509250600186828585604051600081526020016040526040516107c39493929190612faf565b6020604051602081039080840390855afa1580156107e5573d6000803e3d6000fd5b50505060206040510351935050505092915050565b60008060006041845114610843576040517f08c379a000000000000000000000000000000000000000000000000000000000815260040161083a90613040565b60405180910390fd5b6020840151925060408401519150606084015160001a90509193909250565b60001515600a60003373ffffffffffffffffffffffffffffffffffffffff1673ffffffffffffffffffffffffffffffffffffffff1681526020019081526020016000206000600954815260200190815260200160002060009054906101000a900460ff16151514610908576040517f08c379a00000000000000000000000000000000000000000000000000000000081526004016108ff90612cb1565b60405180910390fd5b6001600a60003373ffffffffffffffffffffffffffffffffffffffff1673ffffffffffffffffffffffffffffffffffffffff1681526020019081526020016000206000600954815260200190815260200160002060006101000a81548160ff021916908315150217905550600860009054906101000a900473ffffffffffffffffffffffffffffffffffffffff1673ffffffffffffffffffffffffffffffffffffffff16639dc29fac33866040518363ffffffff1660e01b81526004016109d0929190612ce0565b600060405180830381600087803b1580156109ea57600080fd5b505af11580156109fe573d6000803e3d6000fd5b50505050610a0a61058d565b600180811115610a1d57610a1c612d09565b5b7f056962899b74081147f53548aa99703457065e4229ed820586208790c057d30133878760095442878a8a604051610a5c989796959493929190612d76565b60405180910390a260096000815480929190610a7790612e1d565b91905055505050505050565b6000838383604051602001610a9a939291906130c9565b6040516020818303038152906040528051906020012090509392505050565b6000610ac6888888610a83565b90506000610ad382610fdc565b90506000610b258286868080601f016020809104026020016040519081016040528093929190818152602001838380828437600081840152601f19601f8201169050808301925050505050505061078b565b905060001515600a60008c73ffffffffffffffffffffffffffffffffffffffff1673ffffffffffffffffffffffffffffffffffffffff168152602001908152602001600020600088815260200190815260200160002060009054906101000a900460ff16151514610bcb576040517f08c379a0000000000000000000000000000000000000000000000000000000008152600401610bc290612cb1565b60405180910390fd5b8973ffffffffffffffffffffffffffffffffffffffff168173ffffffffffffffffffffffffffffffffffffffff1614610c39576040517f08c379a0000000000000000000000000000000000000000000000000000000008152600401610c3090613152565b60405180910390fd5b600087670de0b6b3a76400008a610c509190613172565b610c5a91906131e3565b9050600760009054906101000a900473ffffffffffffffffffffffffffffffffffffffff1673ffffffffffffffffffffffffffffffffffffffff166340c10f198b836040518363ffffffff1660e01b8152600401610cb9929190612ce0565b600060405180830381600087803b158015610cd357600080fd5b505af1158015610ce7573d6000803e3d6000fd5b5050505060006001811115610cff57610cfe612d09565b5b7f091dc0a8eadac2db6afb7626d09e8195f5f8049f519f749fdfac00be05949441338c848b42604051610d36959493929190613214565b60405180910390a25050505050505050505050565b6000610d58888888610a83565b90506000610d6582610fdc565b90506000610db78286868080601f016020809104026020016040519081016040528093929190818152602001838380828437600081840152601f19601f8201169050808301925050505050505061078b565b905060001515600a60008c73ffffffffffffffffffffffffffffffffffffffff1673ffffffffffffffffffffffffffffffffffffffff168152602001908152602001600020600088815260200190815260200160002060009054906101000a900460ff16151514610e5d576040517f08c379a0000000000000000000000000000000000000000000000000000000008152600401610e5490612cb1565b60405180910390fd5b8973ffffffffffffffffffffffffffffffffffffffff168173ffffffffffffffffffffffffffffffffffffffff1614610ecb576040517f08c379a0000000000000000000000000000000000000000000000000000000008152600401610ec290613152565b60405180910390fd5b6000670de0b6b3a76400008989610ee29190613172565b610eec91906131e3565b9050600860009054906101000a900473ffffffffffffffffffffffffffffffffffffffff1673ffffffffffffffffffffffffffffffffffffffff166340c10f198b836040518363ffffffff1660e01b8152600401610f4b929190612ce0565b600060405180830381600087803b158015610f6557600080fd5b505af1158015610f79573d6000803e3d6000fd5b50505050600180811115610f9057610f8f612d09565b5b7f091dc0a8eadac2db6afb7626d09e8195f5f8049f519f749fdfac00be05949441338c848b42604051610fc7959493929190613214565b60405180910390a25050505050505050505050565b600081604051602001610fef91906132df565b604051602081830303815290604052805190602001209050919050565b60008073ffffffffffffffffffffffffffffffffffffffff16600160009054906101000a900473ffffffffffffffffffffffffffffffffffffffff1673ffffffffffffffffffffffffffffffffffffffff16148061109457506000611092600160009054906101000a900473ffffffffffffffffffffffffffffffffffffffff166119ba565b145b156110a5576110a360006119c5565b505b600160009054906101000a900473ffffffffffffffffffffffffffffffffffffffff1673ffffffffffffffffffffffffffffffffffffffff166338cc48316040518163ffffffff1660e01b81526004016020604051808303816000875af1158015611114573d6000803e3d6000fd5b505050506040513d601f19601f82011682018060405250810190611138919061331a565b73ffffffffffffffffffffffffffffffffffffffff1660008054906101000a900473ffffffffffffffffffffffffffffffffffffffff1673ffffffffffffffffffffffffffffffffffffffff161461125d57600160009054906101000a900473ffffffffffffffffffffffffffffffffffffffff1673ffffffffffffffffffffffffffffffffffffffff166338cc48316040518163ffffffff1660e01b81526004016020604051808303816000875af11580156111f9573d6000803e3d6000fd5b505050506040513d601f19601f8201168201806040525081019061121d919061331a565b6000806101000a81548173ffffffffffffffffffffffffffffffffffffffff021916908373ffffffffffffffffffffffffffffffffffffffff1602179055505b60008054906101000a900473ffffffffffffffffffffffffffffffffffffffff1673ffffffffffffffffffffffffffffffffffffffff1663c281d19e6040518163ffffffff1660e01b81526004016020604051808303816000875af11580156112ca573d6000803e3d6000fd5b505050506040513d601f19601f820116820180604052508101906112ee919061331a565b905090565b60008073ffffffffffffffffffffffffffffffffffffffff16600160009054906101000a900473ffffffffffffffffffffffffffffffffffffffff1673ffffffffffffffffffffffffffffffffffffffff16148061137b57506000611379600160009054906101000a900473ffffffffffffffffffffffffffffffffffffffff166119ba565b145b1561138c5761138a60006119c5565b505b600160009054906101000a900473ffffffffffffffffffffffffffffffffffffffff1673ffffffffffffffffffffffffffffffffffffffff166338cc48316040518163ffffffff1660e01b81526004016020604051808303816000875af11580156113fb573d6000803e3d6000fd5b505050506040513d601f19601f8201168201806040525081019061141f919061331a565b73ffffffffffffffffffffffffffffffffffffffff1660008054906101000a900473ffffffffffffffffffffffffffffffffffffffff1673ffffffffffffffffffffffffffffffffffffffff161461154457600160009054906101000a900473ffffffffffffffffffffffffffffffffffffffff1673ffffffffffffffffffffffffffffffffffffffff166338cc48316040518163ffffffff1660e01b81526004016020604051808303816000875af11580156114e0573d6000803e3d6000fd5b505050506040513d601f19601f82011682018060405250810190611504919061331a565b6000806101000a81548173ffffffffffffffffffffffffffffffffffffffff021916908373ffffffffffffffffffffffffffffffffffffffff1602179055505b60008054906101000a900473ffffffffffffffffffffffffffffffffffffffff1673ffffffffffffffffffffffffffffffffffffffff1663524f3889836040518263ffffffff1660e01b815260040161159d919061256a565b6020604051808303816000875af11580156115bc573d6000803e3d6000fd5b505050506040513d601f19601f820116820180604052508101906115e0919061335c565b9050919050565b60008073ffffffffffffffffffffffffffffffffffffffff16600160009054906101000a900473ffffffffffffffffffffffffffffffffffffffff1673ffffffffffffffffffffffffffffffffffffffff16148061166f5750600061166d600160009054906101000a900473ffffffffffffffffffffffffffffffffffffffff166119ba565b145b156116805761167e60006119c5565b505b600160009054906101000a900473ffffffffffffffffffffffffffffffffffffffff1673ffffffffffffffffffffffffffffffffffffffff166338cc48316040518163ffffffff1660e01b81526004016020604051808303816000875af11580156116ef573d6000803e3d6000fd5b505050506040513d601f19601f82011682018060405250810190611713919061331a565b73ffffffffffffffffffffffffffffffffffffffff1660008054906101000a900473ffffffffffffffffffffffffffffffffffffffff1673ffffffffffffffffffffffffffffffffffffffff161461183857600160009054906101000a900473ffffffffffffffffffffffffffffffffffffffff1673ffffffffffffffffffffffffffffffffffffffff166338cc48316040518163ffffffff1660e01b81526004016020604051808303816000875af11580156117d4573d6000803e3d6000fd5b505050506040513d601f19601f820116820180604052508101906117f8919061331a565b6000806101000a81548173ffffffffffffffffffffffffffffffffffffffff021916908373ffffffffffffffffffffffffffffffffffffffff1602179055505b60008060009054906101000a900473ffffffffffffffffffffffffffffffffffffffff1673ffffffffffffffffffffffffffffffffffffffff1663524f3889856040518263ffffffff1660e01b8152600401611894919061256a565b6020604051808303816000875af11580156118b3573d6000803e3d6000fd5b505050506040513d601f19601f820116820180604052508101906118d7919061335c565b905062030d403a6118e89190613172565b670de0b6b3a76400006118fb9190613389565b81111561190e576000801b9150506119b4565b60008054906101000a900473ffffffffffffffffffffffffffffffffffffffff1673ffffffffffffffffffffffffffffffffffffffff1663adf59f9982600087876040518563ffffffff1660e01b815260040161196d939291906133f8565b60206040518083038185885af115801561198b573d6000803e3d6000fd5b50505050506040513d601f19601f820116820180604052508101906119b09190613452565b9150505b92915050565b6000813b9050919050565b60006119cf6119d6565b9050919050565b6000806119f6731d3b2638a7cc9f2cb3d298a3da7a90b67e5506ed6119ba565b1115611a9857731d3b2638a7cc9f2cb3d298a3da7a90b67e5506ed600160006101000a81548173ffffffffffffffffffffffffffffffffffffffff021916908373ffffffffffffffffffffffffffffffffffffffff160217905550611a8f6040518060400160405280600b81526020017f6574685f6d61696e6e6574000000000000000000000000000000000000000000815250612170565b6001905061216d565b6000611ab773c03a2615d5efaf5f49f60b7bb6583eaec212fdf16119ba565b1115611b595773c03a2615d5efaf5f49f60b7bb6583eaec212fdf1600160006101000a81548173ffffffffffffffffffffffffffffffffffffffff021916908373ffffffffffffffffffffffffffffffffffffffff160217905550611b506040518060400160405280600c81526020017f6574685f726f707374656e330000000000000000000000000000000000000000815250612170565b6001905061216d565b6000611b7873b7a07bcf2ba2f2703b24c0691b5278999c59ac7e6119ba565b1115611c1a5773b7a07bcf2ba2f2703b24c0691b5278999c59ac7e600160006101000a81548173ffffffffffffffffffffffffffffffffffffffff021916908373ffffffffffffffffffffffffffffffffffffffff160217905550611c116040518060400160405280600981526020017f6574685f6b6f76616e0000000000000000000000000000000000000000000000815250612170565b6001905061216d565b6000611c3973146500cfd35b22e4a392fe0adc06de1a1368ed486119ba565b1115611cdb5773146500cfd35b22e4a392fe0adc06de1a1368ed48600160006101000a81548173ffffffffffffffffffffffffffffffffffffffff021916908373ffffffffffffffffffffffffffffffffffffffff160217905550611cd26040518060400160405280600b81526020017f6574685f72696e6b656279000000000000000000000000000000000000000000815250612170565b6001905061216d565b6000611cfa73a2998efd205fb9d4b4963afb70778d6354ad3a416119ba565b1115611d9c5773a2998efd205fb9d4b4963afb70778d6354ad3a41600160006101000a81548173ffffffffffffffffffffffffffffffffffffffff021916908373ffffffffffffffffffffffffffffffffffffffff160217905550611d936040518060400160405280600a81526020017f6574685f676f65726c6900000000000000000000000000000000000000000000815250612170565b6001905061216d565b6000611dbb7390a0f94702c9630036fb9846b52bf31a1c991a846119ba565b1115611e5d577390a0f94702c9630036fb9846b52bf31a1c991a84600160006101000a81548173ffffffffffffffffffffffffffffffffffffffff021916908373ffffffffffffffffffffffffffffffffffffffff160217905550611e546040518060400160405280600b81526020017f6273635f6d61696e6e6574000000000000000000000000000000000000000000815250612170565b6001905061216d565b6000611e7c73816ec2af1b56183f82f8c05759e99fec3c3de6096119ba565b1115611f1e5773816ec2af1b56183f82f8c05759e99fec3c3de609600160006101000a81548173ffffffffffffffffffffffffffffffffffffffff021916908373ffffffffffffffffffffffffffffffffffffffff160217905550611f156040518060400160405280600f81526020017f706f6c79676f6e5f6d61696e6e65740000000000000000000000000000000000815250612170565b6001905061216d565b6000611f3d7314b31a1c66a9f3d18dfac2d123fe8ce5847b7f856119ba565b1115611fdf577314b31a1c66a9f3d18dfac2d123fe8ce5847b7f85600160006101000a81548173ffffffffffffffffffffffffffffffffffffffff021916908373ffffffffffffffffffffffffffffffffffffffff160217905550611fd66040518060400160405280600f81526020017f7365706f6c69615f6d61696e6e65740000000000000000000000000000000000815250612170565b6001905061216d565b6000611ffe736f485c8bf6fc43ea212e93bbf8ce046c7f1cb4756119ba565b111561206257736f485c8bf6fc43ea212e93bbf8ce046c7f1cb475600160006101000a81548173ffffffffffffffffffffffffffffffffffffffff021916908373ffffffffffffffffffffffffffffffffffffffff1602179055506001905061216d565b60006120817320e12a1f859b3feae5fb2a0a32c18f5a65555bbf6119ba565b11156120e5577320e12a1f859b3feae5fb2a0a32c18f5a65555bbf600160006101000a81548173ffffffffffffffffffffffffffffffffffffffff021916908373ffffffffffffffffffffffffffffffffffffffff1602179055506001905061216d565b60006121047351efaf4c8b3c9afbd5ab9f4bbc82784ab6ef8faa6119ba565b1115612168577351efaf4c8b3c9afbd5ab9f4bbc82784ab6ef8faa600160006101000a81548173ffffffffffffffffffffffffffffffffffffffff021916908373ffffffffffffffffffffffffffffffffffffffff1602179055506001905061216d565b600090505b90565b806002908161217f9190612b6d565b5050565b6000604051905090565b600080fd5b600080fd5b6000819050919050565b6121aa81612197565b81146121b557600080fd5b50565b6000813590506121c7816121a1565b92915050565b600080fd5b600080fd5b6000601f19601f8301169050919050565b7f4e487b7100000000000000000000000000000000000000000000000000000000600052604160045260246000fd5b612220826121d7565b810181811067ffffffffffffffff8211171561223f5761223e6121e8565b5b80604052505050565b6000612252612183565b905061225e8282612217565b919050565b600067ffffffffffffffff82111561227e5761227d6121e8565b5b612287826121d7565b9050602081019050919050565b82818337600083830152505050565b60006122b66122b184612263565b612248565b9050828152602081018484840111156122d2576122d16121d2565b5b6122dd848285612294565b509392505050565b600082601f8301126122fa576122f96121cd565b5b813561230a8482602086016122a3565b91505092915050565b6000806040838503121561232a5761232961218d565b5b6000612338858286016121b8565b925050602083013567ffffffffffffffff81111561235957612358612192565b5b612365858286016122e5565b9150509250929050565b600073ffffffffffffffffffffffffffffffffffffffff82169050919050565b600061239a8261236f565b9050919050565b6123aa8161238f565b81146123b557600080fd5b50565b6000813590506123c7816123a1565b92915050565b6000819050919050565b6123e0816123cd565b81146123eb57600080fd5b50565b6000813590506123fd816123d7565b92915050565b600080fd5b600080fd5b60008083601f840112612423576124226121cd565b5b8235905067ffffffffffffffff8111156124405761243f612403565b5b60208301915083600182028301111561245c5761245b612408565b5b9250929050565b60008060008060006080868803121561247f5761247e61218d565b5b600061248d888289016123b8565b955050602061249e888289016123ee565b945050604086013567ffffffffffffffff8111156124bf576124be612192565b5b6124cb8882890161240d565b935093505060606124de888289016123ee565b9150509295509295909350565b600081519050919050565b600082825260208201905092915050565b60005b8381101561252557808201518184015260208101905061250a565b60008484015250505050565b600061253c826124eb565b61254681856124f6565b9350612556818560208601612507565b61255f816121d7565b840191505092915050565b600060208201905081810360008301526125848184612531565b905092915050565b600067ffffffffffffffff8211156125a7576125a66121e8565b5b6125b0826121d7565b9050602081019050919050565b60006125d06125cb8461258c565b612248565b9050828152602081018484840111156125ec576125eb6121d2565b5b6125f7848285612294565b509392505050565b600082601f830112612614576126136121cd565b5b81356126248482602086016125bd565b91505092915050565b600080600080608085870312156126475761264661218d565b5b6000612655878288016123b8565b9450506020612666878288016123b8565b9350506040612677878288016123ee565b925050606085013567ffffffffffffffff81111561269857612697612192565b5b6126a4878288016125ff565b91505092959194509250565b60008115159050919050565b6126c5816126b0565b82525050565b60006020820190506126e060008301846126bc565b92915050565b600080604083850312156126fd576126fc61218d565b5b600061270b858286016121b8565b925050602083013567ffffffffffffffff81111561272c5761272b612192565b5b612738858286016125ff565b9150509250929050565b61274b8161238f565b82525050565b60006020820190506127666000830184612742565b92915050565b6000602082840312156127825761278161218d565b5b600082013567ffffffffffffffff8111156127a05761279f612192565b5b6127ac848285016125ff565b91505092915050565b6127be81612197565b82525050565b600060ff82169050919050565b6127da816127c4565b82525050565b60006060820190506127f560008301866127b5565b61280260208301856127b5565b61280f60408301846127d1565b949350505050565b6000806000606084860312156128305761282f61218d565b5b600061283e868287016123b8565b935050602061284f868287016123b8565b9250506040612860868287016123ee565b9150509250925092565b600060208201905061287f60008301846127b5565b92915050565b600080600080600080600060c0888a0312156128a4576128a361218d565b5b60006128b28a828b016123b8565b97505060206128c38a828b016123b8565b96505060406128d48a828b016123ee565b95505060606128e58a828b016123ee565b94505060806128f68a828b016123ee565b93505060a088013567ffffffffffffffff81111561291757612916612192565b5b6129238a828b0161240d565b925092505092959891949750929550565b60006020828403121561294a5761294961218d565b5b6000612958848285016121b8565b91505092915050565b7f4e487b7100000000000000000000000000000000000000000000000000000000600052602260045260246000fd5b600060028204905060018216806129a857607f821691505b6020821081036129bb576129ba612961565b5b50919050565b60008190508160005260206000209050919050565b60006020601f8301049050919050565b600082821b905092915050565b600060088302612a237fffffffffffffffffffffffffffffffffffffffffffffffffffffffffffffffff826129e6565b612a2d86836129e6565b95508019841693508086168417925050509392505050565b6000819050919050565b6000612a6a612a65612a60846123cd565b612a45565b6123cd565b9050919050565b6000819050919050565b612a8483612a4f565b612a98612a9082612a71565b8484546129f3565b825550505050565b600090565b612aad612aa0565b612ab8818484612a7b565b505050565b5b81811015612adc57612ad1600082612aa5565b600181019050612abe565b5050565b601f821115612b2157612af2816129c1565b612afb846129d6565b81016020851015612b0a578190505b612b1e612b16856129d6565b830182612abd565b50505b505050565b600082821c905092915050565b6000612b4460001984600802612b26565b1980831691505092915050565b6000612b5d8383612b33565b9150826002028217905092915050565b612b76826124eb565b67ffffffffffffffff811115612b8f57612b8e6121e8565b5b612b998254612990565b612ba4828285612ae0565b600060209050601f831160018114612bd75760008415612bc5578287015190505b612bcf8582612b51565b865550612c37565b601f198416612be5866129c1565b60005b82811015612c0d57848901518255600182019150602085019450602081019050612be8565b86831015612c2a5784890151612c26601f891682612b33565b8355505b6001600288020188555050505b505050505050565b7f4272696467653a205472616e73616374696f6e20616c7265616479204578697360008201527f7400000000000000000000000000000000000000000000000000000000000000602082015250565b6000612c9b6021836124f6565b9150612ca682612c3f565b604082019050919050565b60006020820190508181036000830152612cca81612c8e565b9050919050565b612cda816123cd565b82525050565b6000604082019050612cf56000830185612742565b612d026020830184612cd1565b9392505050565b7f4e487b7100000000000000000000000000000000000000000000000000000000600052602160045260246000fd5b600082825260208201905092915050565b6000612d558385612d38565b9350612d62838584612294565b612d6b836121d7565b840190509392505050565b600060e082019050612d8b600083018b612742565b612d98602083018a612742565b612da56040830189612cd1565b612db26060830188612cd1565b612dbf6080830187612cd1565b612dcc60a0830186612cd1565b81810360c0830152612ddf818486612d49565b90509998505050505050505050565b7f4e487b7100000000000000000000000000000000000000000000000000000000600052601160045260246000fd5b6000612e28826123cd565b91507fffffffffffffffffffffffffffffffffffffffffffffffffffffffffffffffff8203612e5a57612e59612dee565b5b600182019050919050565b7f50726f7661626c6520717565727920776173204e4f542073656e742c20706c6560008201527f6173652061646420736f6d652045544820746f20636f76657220666f7220746860208201527f6520717565727920666565000000000000000000000000000000000000000000604082015250565b6000612ee7604b836124f6565b9150612ef282612e65565b606082019050919050565b60006020820190508181036000830152612f1681612eda565b9050919050565b7f50726f7661626c65207175657279207761732073656e742c207374616e64696e60008201527f6720627920666f722074686520616e737765722e2e0000000000000000000000602082015250565b6000612f796035836124f6565b9150612f8482612f1d565b604082019050919050565b60006020820190508181036000830152612fa881612f6c565b9050919050565b6000608082019050612fc460008301876127b5565b612fd160208301866127d1565b612fde60408301856127b5565b612feb60608301846127b5565b95945050505050565b7f696e76616c6964207369676e6174757265206c656e6774680000000000000000600082015250565b600061302a6018836124f6565b915061303582612ff4565b602082019050919050565b600060208201905081810360008301526130598161301d565b9050919050565b60008160601b9050919050565b600061307882613060565b9050919050565b600061308a8261306d565b9050919050565b6130a261309d8261238f565b61307f565b82525050565b6000819050919050565b6130c36130be826123cd565b6130a8565b82525050565b60006130d58286613091565b6014820191506130e58285613091565b6014820191506130f582846130b2565b602082019150819050949350505050565b7f4272696467653a20496e76616c6964207369676e657200000000000000000000600082015250565b600061313c6016836124f6565b915061314782613106565b602082019050919050565b6000602082019050818103600083015261316b8161312f565b9050919050565b600061317d826123cd565b9150613188836123cd565b9250828202613196816123cd565b915082820484148315176131ad576131ac612dee565b5b5092915050565b7f4e487b7100000000000000000000000000000000000000000000000000000000600052601260045260246000fd5b60006131ee826123cd565b91506131f9836123cd565b925082613209576132086131b4565b5b828204905092915050565b600060a0820190506132296000830188612742565b6132366020830187612742565b6132436040830186612cd1565b6132506060830185612cd1565b61325d6080830184612cd1565b9695505050505050565b600081905092915050565b7f19457468657265756d205369676e6564204d6573736167653a0a333200000000600082015250565b60006132a8601c83613267565b91506132b382613272565b601c82019050919050565b6000819050919050565b6132d96132d482612197565b6132be565b82525050565b60006132ea8261329b565b91506132f682846132c8565b60208201915081905092915050565b600081519050613314816123a1565b92915050565b6000602082840312156133305761332f61218d565b5b600061333e84828501613305565b91505092915050565b600081519050613356816123d7565b92915050565b6000602082840312156133725761337161218d565b5b600061338084828501613347565b91505092915050565b6000613394826123cd565b915061339f836123cd565b92508282019050808211156133b7576133b6612dee565b5b92915050565b6000819050919050565b60006133e26133dd6133d8846133bd565b612a45565b6123cd565b9050919050565b6133f2816133c7565b82525050565b600060608201905061340d60008301866133e9565b818103602083015261341f8185612531565b905081810360408301526134338184612531565b9050949350505050565b60008151905061344c816121a1565b92915050565b6000602082840312156134685761346761218d565b5b60006134768482850161343d565b9150509291505056fe6a736f6e2868747470733a2f2f6170692e70726f2e636f696e626173652e636f6d2f70726f64756374732f4554482d4254432f7469636b6572292e7072696365a2646970667358221220bea7a7d37703eec81a222464d7900a3223e31bcce5860e9048244f94d290739964736f6c63430008110033",
  "linkReferences": {},
  "deployedLinkReferences": {}
}