{"src/backend/contracts/swap.sol":{"TokenSwap":{"abi":[{"inputs":[{"internalType":"address","name":"_token1","type":"address"},{"internalType":"address","name":"_token2","type":"address"}],"stateMutability":"payable","type":"constructor"},{"anonymous":false,"inputs":[{"indexed":false,"internalType":"string","name":"nextStep","type":"string"}],"name":"LogConstructorInitiated","type":"event"},{"anonymous":false,"inputs":[{"indexed":false,"internalType":"string","name":"description","type":"string"}],"name":"LogNewProvableQuery","type":"event"},{"anonymous":false,"inputs":[{"indexed":false,"internalType":"string","name":"price","type":"string"}],"name":"LogPriceUpdated","type":"event"},{"anonymous":false,"inputs":[{"indexed":false,"internalType":"address","name":"from","type":"address"},{"indexed":false,"internalType":"address","name":"to","type":"address"},{"indexed":false,"internalType":"uint256","name":"amount","type":"uint256"},{"indexed":false,"internalType":"uint256","name":"nonce","type":"uint256"},{"indexed":false,"internalType":"uint256","name":"timestamp","type":"uint256"},{"indexed":true,"internalType":"enum TokenSwap.State","name":"state","type":"uint8"}],"name":"Swap","type":"event"},{"inputs":[],"name":"ETHUSD","outputs":[{"internalType":"string","name":"","type":"string"}],"stateMutability":"view","type":"function"},{"inputs":[{"internalType":"bytes32","name":"myid","type":"bytes32"},{"internalType":"string","name":"result","type":"string"}],"name":"__callback","outputs":[],"stateMutability":"nonpayable","type":"function"},{"inputs":[{"internalType":"address","name":"_to","type":"address"},{"internalType":"uint256","name":"_amount","type":"uint256"}],"name":"burnBtc","outputs":[],"stateMutability":"nonpayable","type":"function"},{"inputs":[{"internalType":"address","name":"_to","type":"address"},{"internalType":"uint256","name":"_amount","type":"uint256"}],"name":"burnEth","outputs":[],"stateMutability":"nonpayable","type":"function"},{"inputs":[{"internalType":"bytes32","name":"_messageHash","type":"bytes32"}],"name":"getEthSignedMessageHash","outputs":[{"internalType":"bytes32","name":"","type":"bytes32"}],"stateMutability":"pure","type":"function"},{"inputs":[{"internalType":"address","name":"_from","type":"address"},{"internalType":"address","name":"_to","type":"address"},{"internalType":"uint256","name":"_amount","type":"uint256"},{"internalType":"uint256","name":"_nonce","type":"uint256"}],"name":"getMessageHash","outputs":[{"internalType":"bytes32","name":"","type":"bytes32"}],"stateMutability":"pure","type":"function"},{"inputs":[{"internalType":"address","name":"_from","type":"address"},{"internalType":"address","name":"_to","type":"address"},{"internalType":"uint256","name":"_amount","type":"uint256"},{"internalType":"uint256","name":"_price","type":"uint256"},{"internalType":"uint256","name":"_nonce","type":"uint256"},{"internalType":"bytes","name":"signature","type":"bytes"}],"name":"mintBtc","outputs":[],"stateMutability":"nonpayable","type":"function"},{"inputs":[{"internalType":"address","name":"_from","type":"address"},{"internalType":"address","name":"_to","type":"address"},{"internalType":"uint256","name":"_amount","type":"uint256"},{"internalType":"uint256","name":"_price","type":"uint256"},{"internalType":"uint256","name":"_nonce","type":"uint256"},{"internalType":"bytes","name":"signature","type":"bytes"}],"name":"mintEth","outputs":[],"stateMutability":"nonpayable","type":"function"},{"inputs":[{"internalType":"bytes32","name":"_ethSignedMessageHash","type":"bytes32"},{"internalType":"bytes","name":"_signature","type":"bytes"}],"name":"recoverSigner","outputs":[{"internalType":"address","name":"","type":"address"}],"stateMutability":"pure","type":"function"},{"inputs":[{"internalType":"bytes","name":"sig","type":"bytes"}],"name":"splitSignature","outputs":[{"internalType":"bytes32","name":"r","type":"bytes32"},{"internalType":"bytes32","name":"s","type":"bytes32"},{"internalType":"uint8","name":"v","type":"uint8"}],"stateMutability":"pure","type":"function"},{"inputs":[],"name":"updatePrice","outputs":[],"stateMutability":"payable","type":"function"},{"inputs":[{"internalType":"address","name":"_signer","type":"address"},{"internalType":"address","name":"_to","type":"address"},{"internalType":"uint256","name":"_amount","type":"uint256"},{"internalType":"uint256","name":"_nonce","type":"uint256"},{"internalType":"bytes","name":"signature","type":"bytes"}],"name":"verify","outputs":[{"internalType":"bool","name":"","type":"bool"}],"stateMutability":"pure","type":"function"}],"evm":{"bytecode":{"linkReferences":{},"object":"608060405260405162003b1038038062003b10833981810160405281019062000029919062000383565b7f11a3fca63f87bd67d7f9f72b744acc8be2193705e7a734ac3a773d35d259e87b604051620000589062000477565b60405180910390a133600660006101000a81548173ffffffffffffffffffffffffffffffffffffffff021916908373ffffffffffffffffffffffffffffffffffffffff1602179055508073ffffffffffffffffffffffffffffffffffffffff168273ffffffffffffffffffffffffffffffffffffffff160362000112576040517f08c379a00000000000000000000000000000000000000000000000000000000081526004016200010990620004e9565b60405180910390fd5b60008273ffffffffffffffffffffffffffffffffffffffff166306fdde036040518163ffffffff1660e01b8152600401600060405180830381865afa15801562000160573d6000803e3d6000fd5b505050506040513d6000823e3d601f19601f820116820180604052508101906200018b91906200068a565b90507ff4817828cfb0242af0f04662358bf114fb5c05c5085a5eec9f709628f9d31110818051906020012003620002445782600760006101000a81548173ffffffffffffffffffffffffffffffffffffffff021916908373ffffffffffffffffffffffffffffffffffffffff16021790555081600860006101000a81548173ffffffffffffffffffffffffffffffffffffffff021916908373ffffffffffffffffffffffffffffffffffffffff16021790555062000301565b7f5545544845520000000000000000000000000000000000000000000000000000818051906020012003620002fb5781600760006101000a81548173ffffffffffffffffffffffffffffffffffffffff021916908373ffffffffffffffffffffffffffffffffffffffff16021790555081600860006101000a81548173ffffffffffffffffffffffffffffffffffffffff021916908373ffffffffffffffffffffffffffffffffffffffff16021790555062000300565b600080fd5b5b505050620006db565b6000604051905090565b600080fd5b600080fd5b600073ffffffffffffffffffffffffffffffffffffffff82169050919050565b60006200034b826200031e565b9050919050565b6200035d816200033e565b81146200036957600080fd5b50565b6000815190506200037d8162000352565b92915050565b600080604083850312156200039d576200039c62000314565b5b6000620003ad858286016200036c565b9250506020620003c0858286016200036c565b9150509250929050565b600082825260208201905092915050565b7f436f6e7374727563746f722077617320696e697469617465642e2043616c6c2060008201527f27757064617465507269636528292720746f2073656e64207468652050726f7660208201527f61626c652051756572792e000000000000000000000000000000000000000000604082015250565b60006200045f604b83620003ca565b91506200046c82620003db565b606082019050919050565b60006020820190508181036000830152620004928162000450565b9050919050565b7f537761703a20426f746820746f6b656e73206172652073616d65000000000000600082015250565b6000620004d1601a83620003ca565b9150620004de8262000499565b602082019050919050565b600060208201905081810360008301526200050481620004c2565b9050919050565b600080fd5b600080fd5b6000601f19601f8301169050919050565b7f4e487b7100000000000000000000000000000000000000000000000000000000600052604160045260246000fd5b620005608262000515565b810181811067ffffffffffffffff8211171562000582576200058162000526565b5b80604052505050565b6000620005976200030a565b9050620005a5828262000555565b919050565b600067ffffffffffffffff821115620005c857620005c762000526565b5b620005d38262000515565b9050602081019050919050565b60005b8381101562000600578082015181840152602081019050620005e3565b60008484015250505050565b6000620006236200061d84620005aa565b6200058b565b90508281526020810184848401111562000642576200064162000510565b5b6200064f848285620005e0565b509392505050565b600082601f8301126200066f576200066e6200050b565b5b8151620006818482602086016200060c565b91505092915050565b600060208284031215620006a357620006a262000314565b5b600082015167ffffffffffffffff811115620006c457620006c362000319565b5b620006d28482850162000657565b91505092915050565b61342580620006eb6000396000f3fe6080604052600436106100a75760003560e01c806397aba7f91161006457806397aba7f914610199578063a7bb5803146101d6578063cffc18eb14610215578063d85fa80014610252578063ec6904701461027b578063fa540801146102a4576100a7565b80630b71a0b7146100ac5780631983f09a146100e957806327dc297e1461011257806359bb69a31461013b578063673a7e281461016457806373db08441461016e575b600080fd5b3480156100b857600080fd5b506100d360048036038101906100ce9190612220565b6102e1565b6040516100e091906122a0565b60405180910390f35b3480156100f557600080fd5b50610110600480360381019061010b91906122bb565b61031a565b005b34801561011e57600080fd5b506101396004803603810190610134919061246d565b610533565b005b34801561014757600080fd5b50610162600480360381019061015d91906122bb565b6105bd565b005b61016c6107d6565b005b34801561017a57600080fd5b506101836108e5565b6040516101909190612548565b60405180910390f35b3480156101a557600080fd5b506101c060048036038101906101bb919061260b565b610973565b6040516101cd9190612676565b60405180910390f35b3480156101e257600080fd5b506101fd60048036038101906101f89190612691565b6109e2565b60405161020c939291906126f6565b60405180910390f35b34801561022157600080fd5b5061023c6004803603810190610237919061272d565b610a4a565b60405161024991906127df565b60405180910390f35b34801561025e57600080fd5b506102796004803603810190610274919061285a565b610aad565b005b34801561028757600080fd5b506102a2600480360381019061029d919061285a565b610d3f565b005b3480156102b057600080fd5b506102cb60048036038101906102c69190612909565b610fd1565b6040516102d891906122a0565b60405180910390f35b6000848484846040516020016102fa949392919061299f565b604051602081830303815290604052805190602001209050949350505050565b60001515600a60003373ffffffffffffffffffffffffffffffffffffffff1673ffffffffffffffffffffffffffffffffffffffff1681526020019081526020016000206000600954815260200190815260200160002060009054906101000a900460ff161515146103c0576040517f08c379a00000000000000000000000000000000000000000000000000000000081526004016103b790612a5f565b60405180910390fd5b6001600a60003373ffffffffffffffffffffffffffffffffffffffff1673ffffffffffffffffffffffffffffffffffffffff1681526020019081526020016000206000600954815260200190815260200160002060006101000a81548160ff021916908315150217905550600860009054906101000a900473ffffffffffffffffffffffffffffffffffffffff1673ffffffffffffffffffffffffffffffffffffffff16639dc29fac33836040518363ffffffff1660e01b8152600401610488929190612a8e565b600060405180830381600087803b1580156104a257600080fd5b505af11580156104b6573d6000803e3d6000fd5b505050506104c26107d6565b600060018111156104d6576104d5612ab7565b5b7f1180c9d083141dc152a1859a6dbf9f5ca1e6d4a91d43ba1ea7529d52db6348453384846009544260405161050f959493929190612ae6565b60405180910390a26009600081548092919061052a90612b68565b91905055505050565b61053b611001565b73ffffffffffffffffffffffffffffffffffffffff163373ffffffffffffffffffffffffffffffffffffffff161461057257600080fd5b80600590816105819190612dbc565b507f71f1a5645e51a2da828ffcf79cc17da88eb25e1bca8b9dced23210847a4769c1816040516105b19190612548565b60405180910390a15050565b60001515600a60003373ffffffffffffffffffffffffffffffffffffffff1673ffffffffffffffffffffffffffffffffffffffff1681526020019081526020016000206000600954815260200190815260200160002060009054906101000a900460ff16151514610663576040517f08c379a000000000000000000000000000000000000000000000000000000000815260040161065a90612a5f565b60405180910390fd5b6001600a60003373ffffffffffffffffffffffffffffffffffffffff1673ffffffffffffffffffffffffffffffffffffffff1681526020019081526020016000206000600954815260200190815260200160002060006101000a81548160ff021916908315150217905550600760009054906101000a900473ffffffffffffffffffffffffffffffffffffffff1673ffffffffffffffffffffffffffffffffffffffff16639dc29fac33836040518363ffffffff1660e01b815260040161072b929190612a8e565b600060405180830381600087803b15801561074557600080fd5b505af1158015610759573d6000803e3d6000fd5b505050506107656107d6565b6000600181111561077957610778612ab7565b5b7f1180c9d083141dc152a1859a6dbf9f5ca1e6d4a91d43ba1ea7529d52db634845338484600954426040516107b2959493929190612ae6565b60405180910390a2600960008154809291906107cd90612b68565b91905055505050565b476108156040518060400160405280600381526020017f55524c00000000000000000000000000000000000000000000000000000000008152506112e8565b1115610855577fc4dc360d0a9c0677a3379ae0a3d81e887f761e65fdf3d7e00859d1bcd3c4738960405161084890612f26565b60405180910390a16108e3565b7fc4dc360d0a9c0677a3379ae0a3d81e887f761e65fdf3d7e00859d1bcd3c4738960405161088290612fb8565b60405180910390a16108e16040518060400160405280600381526020017f55524c00000000000000000000000000000000000000000000000000000000008152506040518060600160405280604081526020016133b0604091396115dc565b505b565b600580546108f290612bdf565b80601f016020809104026020016040519081016040528092919081815260200182805461091e90612bdf565b801561096b5780601f106109405761010080835404028352916020019161096b565b820191906000526020600020905b81548152906001019060200180831161094e57829003601f168201915b505050505081565b600080600080610982856109e2565b925092509250600186828585604051600081526020016040526040516109ab9493929190612fd8565b6020604051602081039080840390855afa1580156109cd573d6000803e3d6000fd5b50505060206040510351935050505092915050565b60008060006041845114610a2b576040517f08c379a0000000000000000000000000000000000000000000000000000000008152600401610a2290613069565b60405180910390fd5b6020840151925060408401519150606084015160001a90509193909250565b600080610a59878787876102e1565b90506000610a6682610fd1565b90508773ffffffffffffffffffffffffffffffffffffffff16610a898286610973565b73ffffffffffffffffffffffffffffffffffffffff16149250505095945050505050565b6000610abb888888876102e1565b90506000610ac882610fd1565b90506000610b1a8286868080601f016020809104026020016040519081016040528093929190818152602001838380828437600081840152601f19601f82011690508083019250505050505050610973565b905060001515600a60008c73ffffffffffffffffffffffffffffffffffffffff1673ffffffffffffffffffffffffffffffffffffffff168152602001908152602001600020600088815260200190815260200160002060009054906101000a900460ff16151514610bc0576040517f08c379a0000000000000000000000000000000000000000000000000000000008152600401610bb790612a5f565b60405180910390fd5b8973ffffffffffffffffffffffffffffffffffffffff168173ffffffffffffffffffffffffffffffffffffffff1614610c2e576040517f08c379a0000000000000000000000000000000000000000000000000000000008152600401610c25906130d5565b60405180910390fd5b600087670de0b6b3a76400008a610c4591906130f5565b610c4f9190613166565b9050600760009054906101000a900473ffffffffffffffffffffffffffffffffffffffff1673ffffffffffffffffffffffffffffffffffffffff166340c10f198b836040518363ffffffff1660e01b8152600401610cae929190612a8e565b600060405180830381600087803b158015610cc857600080fd5b505af1158015610cdc573d6000803e3d6000fd5b50505050600180811115610cf357610cf2612ab7565b5b7f1180c9d083141dc152a1859a6dbf9f5ca1e6d4a91d43ba1ea7529d52db634845338c848b42604051610d2a959493929190612ae6565b60405180910390a25050505050505050505050565b6000610d4d888888876102e1565b90506000610d5a82610fd1565b90506000610dac8286868080601f016020809104026020016040519081016040528093929190818152602001838380828437600081840152601f19601f82011690508083019250505050505050610973565b905060001515600a60008c73ffffffffffffffffffffffffffffffffffffffff1673ffffffffffffffffffffffffffffffffffffffff168152602001908152602001600020600088815260200190815260200160002060009054906101000a900460ff16151514610e52576040517f08c379a0000000000000000000000000000000000000000000000000000000008152600401610e4990612a5f565b60405180910390fd5b8973ffffffffffffffffffffffffffffffffffffffff168173ffffffffffffffffffffffffffffffffffffffff1614610ec0576040517f08c379a0000000000000000000000000000000000000000000000000000000008152600401610eb7906130d5565b60405180910390fd5b6000670de0b6b3a76400008989610ed791906130f5565b610ee19190613166565b9050600860009054906101000a900473ffffffffffffffffffffffffffffffffffffffff1673ffffffffffffffffffffffffffffffffffffffff166340c10f198b836040518363ffffffff1660e01b8152600401610f40929190612a8e565b600060405180830381600087803b158015610f5a57600080fd5b505af1158015610f6e573d6000803e3d6000fd5b50505050600180811115610f8557610f84612ab7565b5b7f1180c9d083141dc152a1859a6dbf9f5ca1e6d4a91d43ba1ea7529d52db634845338c848b42604051610fbc959493929190612ae6565b60405180910390a25050505050505050505050565b600081604051602001610fe4919061320f565b604051602081830303815290604052805190602001209050919050565b60008073ffffffffffffffffffffffffffffffffffffffff16600160009054906101000a900473ffffffffffffffffffffffffffffffffffffffff1673ffffffffffffffffffffffffffffffffffffffff16148061108957506000611087600160009054906101000a900473ffffffffffffffffffffffffffffffffffffffff166119af565b145b1561109a5761109860006119ba565b505b600160009054906101000a900473ffffffffffffffffffffffffffffffffffffffff1673ffffffffffffffffffffffffffffffffffffffff166338cc48316040518163ffffffff1660e01b81526004016020604051808303816000875af1158015611109573d6000803e3d6000fd5b505050506040513d601f19601f8201168201806040525081019061112d919061324a565b73ffffffffffffffffffffffffffffffffffffffff1660008054906101000a900473ffffffffffffffffffffffffffffffffffffffff1673ffffffffffffffffffffffffffffffffffffffff161461125257600160009054906101000a900473ffffffffffffffffffffffffffffffffffffffff1673ffffffffffffffffffffffffffffffffffffffff166338cc48316040518163ffffffff1660e01b81526004016020604051808303816000875af11580156111ee573d6000803e3d6000fd5b505050506040513d601f19601f82011682018060405250810190611212919061324a565b6000806101000a81548173ffffffffffffffffffffffffffffffffffffffff021916908373ffffffffffffffffffffffffffffffffffffffff1602179055505b60008054906101000a900473ffffffffffffffffffffffffffffffffffffffff1673ffffffffffffffffffffffffffffffffffffffff1663c281d19e6040518163ffffffff1660e01b81526004016020604051808303816000875af11580156112bf573d6000803e3d6000fd5b505050506040513d601f19601f820116820180604052508101906112e3919061324a565b905090565b60008073ffffffffffffffffffffffffffffffffffffffff16600160009054906101000a900473ffffffffffffffffffffffffffffffffffffffff1673ffffffffffffffffffffffffffffffffffffffff1614806113705750600061136e600160009054906101000a900473ffffffffffffffffffffffffffffffffffffffff166119af565b145b156113815761137f60006119ba565b505b600160009054906101000a900473ffffffffffffffffffffffffffffffffffffffff1673ffffffffffffffffffffffffffffffffffffffff166338cc48316040518163ffffffff1660e01b81526004016020604051808303816000875af11580156113f0573d6000803e3d6000fd5b505050506040513d601f19601f82011682018060405250810190611414919061324a565b73ffffffffffffffffffffffffffffffffffffffff1660008054906101000a900473ffffffffffffffffffffffffffffffffffffffff1673ffffffffffffffffffffffffffffffffffffffff161461153957600160009054906101000a900473ffffffffffffffffffffffffffffffffffffffff1673ffffffffffffffffffffffffffffffffffffffff166338cc48316040518163ffffffff1660e01b81526004016020604051808303816000875af11580156114d5573d6000803e3d6000fd5b505050506040513d601f19601f820116820180604052508101906114f9919061324a565b6000806101000a81548173ffffffffffffffffffffffffffffffffffffffff021916908373ffffffffffffffffffffffffffffffffffffffff1602179055505b60008054906101000a900473ffffffffffffffffffffffffffffffffffffffff1673ffffffffffffffffffffffffffffffffffffffff1663524f3889836040518263ffffffff1660e01b81526004016115929190612548565b6020604051808303816000875af11580156115b1573d6000803e3d6000fd5b505050506040513d601f19601f820116820180604052508101906115d5919061328c565b9050919050565b60008073ffffffffffffffffffffffffffffffffffffffff16600160009054906101000a900473ffffffffffffffffffffffffffffffffffffffff1673ffffffffffffffffffffffffffffffffffffffff16148061166457506000611662600160009054906101000a900473ffffffffffffffffffffffffffffffffffffffff166119af565b145b156116755761167360006119ba565b505b600160009054906101000a900473ffffffffffffffffffffffffffffffffffffffff1673ffffffffffffffffffffffffffffffffffffffff166338cc48316040518163ffffffff1660e01b81526004016020604051808303816000875af11580156116e4573d6000803e3d6000fd5b505050506040513d601f19601f82011682018060405250810190611708919061324a565b73ffffffffffffffffffffffffffffffffffffffff1660008054906101000a900473ffffffffffffffffffffffffffffffffffffffff1673ffffffffffffffffffffffffffffffffffffffff161461182d57600160009054906101000a900473ffffffffffffffffffffffffffffffffffffffff1673ffffffffffffffffffffffffffffffffffffffff166338cc48316040518163ffffffff1660e01b81526004016020604051808303816000875af11580156117c9573d6000803e3d6000fd5b505050506040513d601f19601f820116820180604052508101906117ed919061324a565b6000806101000a81548173ffffffffffffffffffffffffffffffffffffffff021916908373ffffffffffffffffffffffffffffffffffffffff1602179055505b60008060009054906101000a900473ffffffffffffffffffffffffffffffffffffffff1673ffffffffffffffffffffffffffffffffffffffff1663524f3889856040518263ffffffff1660e01b81526004016118899190612548565b6020604051808303816000875af11580156118a8573d6000803e3d6000fd5b505050506040513d601f19601f820116820180604052508101906118cc919061328c565b905062030d403a6118dd91906130f5565b670de0b6b3a76400006118f091906132b9565b811115611903576000801b9150506119a9565b60008054906101000a900473ffffffffffffffffffffffffffffffffffffffff1673ffffffffffffffffffffffffffffffffffffffff1663adf59f9982600087876040518563ffffffff1660e01b815260040161196293929190613328565b60206040518083038185885af1158015611980573d6000803e3d6000fd5b50505050506040513d601f19601f820116820180604052508101906119a59190613382565b9150505b92915050565b6000813b9050919050565b60006119c46119cb565b9050919050565b6000806119eb731d3b2638a7cc9f2cb3d298a3da7a90b67e5506ed6119af565b1115611a8d57731d3b2638a7cc9f2cb3d298a3da7a90b67e5506ed600160006101000a81548173ffffffffffffffffffffffffffffffffffffffff021916908373ffffffffffffffffffffffffffffffffffffffff160217905550611a846040518060400160405280600b81526020017f6574685f6d61696e6e6574000000000000000000000000000000000000000000815250612165565b60019050612162565b6000611aac73c03a2615d5efaf5f49f60b7bb6583eaec212fdf16119af565b1115611b4e5773c03a2615d5efaf5f49f60b7bb6583eaec212fdf1600160006101000a81548173ffffffffffffffffffffffffffffffffffffffff021916908373ffffffffffffffffffffffffffffffffffffffff160217905550611b456040518060400160405280600c81526020017f6574685f726f707374656e330000000000000000000000000000000000000000815250612165565b60019050612162565b6000611b6d73b7a07bcf2ba2f2703b24c0691b5278999c59ac7e6119af565b1115611c0f5773b7a07bcf2ba2f2703b24c0691b5278999c59ac7e600160006101000a81548173ffffffffffffffffffffffffffffffffffffffff021916908373ffffffffffffffffffffffffffffffffffffffff160217905550611c066040518060400160405280600981526020017f6574685f6b6f76616e0000000000000000000000000000000000000000000000815250612165565b60019050612162565b6000611c2e73146500cfd35b22e4a392fe0adc06de1a1368ed486119af565b1115611cd05773146500cfd35b22e4a392fe0adc06de1a1368ed48600160006101000a81548173ffffffffffffffffffffffffffffffffffffffff021916908373ffffffffffffffffffffffffffffffffffffffff160217905550611cc76040518060400160405280600b81526020017f6574685f72696e6b656279000000000000000000000000000000000000000000815250612165565b60019050612162565b6000611cef73a2998efd205fb9d4b4963afb70778d6354ad3a416119af565b1115611d915773a2998efd205fb9d4b4963afb70778d6354ad3a41600160006101000a81548173ffffffffffffffffffffffffffffffffffffffff021916908373ffffffffffffffffffffffffffffffffffffffff160217905550611d886040518060400160405280600a81526020017f6574685f676f65726c6900000000000000000000000000000000000000000000815250612165565b60019050612162565b6000611db07390a0f94702c9630036fb9846b52bf31a1c991a846119af565b1115611e52577390a0f94702c9630036fb9846b52bf31a1c991a84600160006101000a81548173ffffffffffffffffffffffffffffffffffffffff021916908373ffffffffffffffffffffffffffffffffffffffff160217905550611e496040518060400160405280600b81526020017f6273635f6d61696e6e6574000000000000000000000000000000000000000000815250612165565b60019050612162565b6000611e7173816ec2af1b56183f82f8c05759e99fec3c3de6096119af565b1115611f135773816ec2af1b56183f82f8c05759e99fec3c3de609600160006101000a81548173ffffffffffffffffffffffffffffffffffffffff021916908373ffffffffffffffffffffffffffffffffffffffff160217905550611f0a6040518060400160405280600f81526020017f706f6c79676f6e5f6d61696e6e65740000000000000000000000000000000000815250612165565b60019050612162565b6000611f327314b31a1c66a9f3d18dfac2d123fe8ce5847b7f856119af565b1115611fd4577314b31a1c66a9f3d18dfac2d123fe8ce5847b7f85600160006101000a81548173ffffffffffffffffffffffffffffffffffffffff021916908373ffffffffffffffffffffffffffffffffffffffff160217905550611fcb6040518060400160405280600f81526020017f7365706f6c69615f6d61696e6e65740000000000000000000000000000000000815250612165565b60019050612162565b6000611ff3736f485c8bf6fc43ea212e93bbf8ce046c7f1cb4756119af565b111561205757736f485c8bf6fc43ea212e93bbf8ce046c7f1cb475600160006101000a81548173ffffffffffffffffffffffffffffffffffffffff021916908373ffffffffffffffffffffffffffffffffffffffff16021790555060019050612162565b60006120767320e12a1f859b3feae5fb2a0a32c18f5a65555bbf6119af565b11156120da577320e12a1f859b3feae5fb2a0a32c18f5a65555bbf600160006101000a81548173ffffffffffffffffffffffffffffffffffffffff021916908373ffffffffffffffffffffffffffffffffffffffff16021790555060019050612162565b60006120f97351efaf4c8b3c9afbd5ab9f4bbc82784ab6ef8faa6119af565b111561215d577351efaf4c8b3c9afbd5ab9f4bbc82784ab6ef8faa600160006101000a81548173ffffffffffffffffffffffffffffffffffffffff021916908373ffffffffffffffffffffffffffffffffffffffff16021790555060019050612162565b600090505b90565b80600290816121749190612dbc565b5050565b6000604051905090565b600080fd5b600080fd5b600073ffffffffffffffffffffffffffffffffffffffff82169050919050565b60006121b78261218c565b9050919050565b6121c7816121ac565b81146121d257600080fd5b50565b6000813590506121e4816121be565b92915050565b6000819050919050565b6121fd816121ea565b811461220857600080fd5b50565b60008135905061221a816121f4565b92915050565b6000806000806080858703121561223a57612239612182565b5b6000612248878288016121d5565b9450506020612259878288016121d5565b935050604061226a8782880161220b565b925050606061227b8782880161220b565b91505092959194509250565b6000819050919050565b61229a81612287565b82525050565b60006020820190506122b56000830184612291565b92915050565b600080604083850312156122d2576122d1612182565b5b60006122e0858286016121d5565b92505060206122f18582860161220b565b9150509250929050565b61230481612287565b811461230f57600080fd5b50565b600081359050612321816122fb565b92915050565b600080fd5b600080fd5b6000601f19601f8301169050919050565b7f4e487b7100000000000000000000000000000000000000000000000000000000600052604160045260246000fd5b61237a82612331565b810181811067ffffffffffffffff8211171561239957612398612342565b5b80604052505050565b60006123ac612178565b90506123b88282612371565b919050565b600067ffffffffffffffff8211156123d8576123d7612342565b5b6123e182612331565b9050602081019050919050565b82818337600083830152505050565b600061241061240b846123bd565b6123a2565b90508281526020810184848401111561242c5761242b61232c565b5b6124378482856123ee565b509392505050565b600082601f83011261245457612453612327565b5b81356124648482602086016123fd565b91505092915050565b6000806040838503121561248457612483612182565b5b600061249285828601612312565b925050602083013567ffffffffffffffff8111156124b3576124b2612187565b5b6124bf8582860161243f565b9150509250929050565b600081519050919050565b600082825260208201905092915050565b60005b838110156125035780820151818401526020810190506124e8565b60008484015250505050565b600061251a826124c9565b61252481856124d4565b93506125348185602086016124e5565b61253d81612331565b840191505092915050565b60006020820190508181036000830152612562818461250f565b905092915050565b600067ffffffffffffffff82111561258557612584612342565b5b61258e82612331565b9050602081019050919050565b60006125ae6125a98461256a565b6123a2565b9050828152602081018484840111156125ca576125c961232c565b5b6125d58482856123ee565b509392505050565b600082601f8301126125f2576125f1612327565b5b813561260284826020860161259b565b91505092915050565b6000806040838503121561262257612621612182565b5b600061263085828601612312565b925050602083013567ffffffffffffffff81111561265157612650612187565b5b61265d858286016125dd565b9150509250929050565b612670816121ac565b82525050565b600060208201905061268b6000830184612667565b92915050565b6000602082840312156126a7576126a6612182565b5b600082013567ffffffffffffffff8111156126c5576126c4612187565b5b6126d1848285016125dd565b91505092915050565b600060ff82169050919050565b6126f0816126da565b82525050565b600060608201905061270b6000830186612291565b6127186020830185612291565b61272560408301846126e7565b949350505050565b600080600080600060a0868803121561274957612748612182565b5b6000612757888289016121d5565b9550506020612768888289016121d5565b94505060406127798882890161220b565b935050606061278a8882890161220b565b925050608086013567ffffffffffffffff8111156127ab576127aa612187565b5b6127b7888289016125dd565b9150509295509295909350565b60008115159050919050565b6127d9816127c4565b82525050565b60006020820190506127f460008301846127d0565b92915050565b600080fd5b600080fd5b60008083601f84011261281a57612819612327565b5b8235905067ffffffffffffffff811115612837576128366127fa565b5b602083019150836001820283011115612853576128526127ff565b5b9250929050565b600080600080600080600060c0888a03121561287957612878612182565b5b60006128878a828b016121d5565b97505060206128988a828b016121d5565b96505060406128a98a828b0161220b565b95505060606128ba8a828b0161220b565b94505060806128cb8a828b0161220b565b93505060a088013567ffffffffffffffff8111156128ec576128eb612187565b5b6128f88a828b01612804565b925092505092959891949750929550565b60006020828403121561291f5761291e612182565b5b600061292d84828501612312565b91505092915050565b60008160601b9050919050565b600061294e82612936565b9050919050565b600061296082612943565b9050919050565b612978612973826121ac565b612955565b82525050565b6000819050919050565b612999612994826121ea565b61297e565b82525050565b60006129ab8287612967565b6014820191506129bb8286612967565b6014820191506129cb8285612988565b6020820191506129db8284612988565b60208201915081905095945050505050565b7f4272696467653a205472616e73616374696f6e20616c7265616479204578697360008201527f7400000000000000000000000000000000000000000000000000000000000000602082015250565b6000612a496021836124d4565b9150612a54826129ed565b604082019050919050565b60006020820190508181036000830152612a7881612a3c565b9050919050565b612a88816121ea565b82525050565b6000604082019050612aa36000830185612667565b612ab06020830184612a7f565b9392505050565b7f4e487b7100000000000000000000000000000000000000000000000000000000600052602160045260246000fd5b600060a082019050612afb6000830188612667565b612b086020830187612667565b612b156040830186612a7f565b612b226060830185612a7f565b612b2f6080830184612a7f565b9695505050505050565b7f4e487b7100000000000000000000000000000000000000000000000000000000600052601160045260246000fd5b6000612b73826121ea565b91507fffffffffffffffffffffffffffffffffffffffffffffffffffffffffffffffff8203612ba557612ba4612b39565b5b600182019050919050565b7f4e487b7100000000000000000000000000000000000000000000000000000000600052602260045260246000fd5b60006002820490506001821680612bf757607f821691505b602082108103612c0a57612c09612bb0565b5b50919050565b60008190508160005260206000209050919050565b60006020601f8301049050919050565b600082821b905092915050565b600060088302612c727fffffffffffffffffffffffffffffffffffffffffffffffffffffffffffffffff82612c35565b612c7c8683612c35565b95508019841693508086168417925050509392505050565b6000819050919050565b6000612cb9612cb4612caf846121ea565b612c94565b6121ea565b9050919050565b6000819050919050565b612cd383612c9e565b612ce7612cdf82612cc0565b848454612c42565b825550505050565b600090565b612cfc612cef565b612d07818484612cca565b505050565b5b81811015612d2b57612d20600082612cf4565b600181019050612d0d565b5050565b601f821115612d7057612d4181612c10565b612d4a84612c25565b81016020851015612d59578190505b612d6d612d6585612c25565b830182612d0c565b50505b505050565b600082821c905092915050565b6000612d9360001984600802612d75565b1980831691505092915050565b6000612dac8383612d82565b9150826002028217905092915050565b612dc5826124c9565b67ffffffffffffffff811115612dde57612ddd612342565b5b612de88254612bdf565b612df3828285612d2f565b600060209050601f831160018114612e265760008415612e14578287015190505b612e1e8582612da0565b865550612e86565b601f198416612e3486612c10565b60005b82811015612e5c57848901518255600182019150602085019450602081019050612e37565b86831015612e795784890151612e75601f891682612d82565b8355505b6001600288020188555050505b505050505050565b7f50726f7661626c6520717565727920776173204e4f542073656e742c20706c6560008201527f6173652061646420736f6d652045544820746f20636f76657220666f7220746860208201527f6520717565727920666565000000000000000000000000000000000000000000604082015250565b6000612f10604b836124d4565b9150612f1b82612e8e565b606082019050919050565b60006020820190508181036000830152612f3f81612f03565b9050919050565b7f50726f7661626c65207175657279207761732073656e742c207374616e64696e60008201527f6720627920666f722074686520616e737765722e2e0000000000000000000000602082015250565b6000612fa26035836124d4565b9150612fad82612f46565b604082019050919050565b60006020820190508181036000830152612fd181612f95565b9050919050565b6000608082019050612fed6000830187612291565b612ffa60208301866126e7565b6130076040830185612291565b6130146060830184612291565b95945050505050565b7f696e76616c6964207369676e6174757265206c656e6774680000000000000000600082015250565b60006130536018836124d4565b915061305e8261301d565b602082019050919050565b6000602082019050818103600083015261308281613046565b9050919050565b7f4272696467653a20496e76616c6964207369676e657200000000000000000000600082015250565b60006130bf6016836124d4565b91506130ca82613089565b602082019050919050565b600060208201905081810360008301526130ee816130b2565b9050919050565b6000613100826121ea565b915061310b836121ea565b9250828202613119816121ea565b915082820484148315176131305761312f612b39565b5b5092915050565b7f4e487b7100000000000000000000000000000000000000000000000000000000600052601260045260246000fd5b6000613171826121ea565b915061317c836121ea565b92508261318c5761318b613137565b5b828204905092915050565b600081905092915050565b7f19457468657265756d205369676e6564204d6573736167653a0a333200000000600082015250565b60006131d8601c83613197565b91506131e3826131a2565b601c82019050919050565b6000819050919050565b61320961320482612287565b6131ee565b82525050565b600061321a826131cb565b915061322682846131f8565b60208201915081905092915050565b600081519050613244816121be565b92915050565b6000602082840312156132605761325f612182565b5b600061326e84828501613235565b91505092915050565b600081519050613286816121f4565b92915050565b6000602082840312156132a2576132a1612182565b5b60006132b084828501613277565b91505092915050565b60006132c4826121ea565b91506132cf836121ea565b92508282019050808211156132e7576132e6612b39565b5b92915050565b6000819050919050565b600061331261330d613308846132ed565b612c94565b6121ea565b9050919050565b613322816132f7565b82525050565b600060608201905061333d6000830186613319565b818103602083015261334f818561250f565b90508181036040830152613363818461250f565b9050949350505050565b60008151905061337c816122fb565b92915050565b60006020828403121561339857613397612182565b5b60006133a68482850161336d565b9150509291505056fe6a736f6e2868747470733a2f2f6170692e70726f2e636f696e626173652e636f6d2f70726f64756374732f4554482d4254432f7469636b6572292e7072696365a264697066735822122017eb2527803b9bfef8dd90c31b1b68468c0446e74622cb67afa562a2624b537c64736f6c63430008110033","opcodes":"PUSH1 0x80 PUSH1 0x40 MSTORE PUSH1 0x40 MLOAD PUSH3 0x3B10 CODESIZE SUB DUP1 PUSH3 0x3B10 DUP4 CODECOPY DUP2 DUP2 ADD PUSH1 0x40 MSTORE DUP2 ADD SWAP1 PUSH3 0x29 SWAP2 SWAP1 PUSH3 0x383 JUMP JUMPDEST PUSH32 0x11A3FCA63F87BD67D7F9F72B744ACC8BE2193705E7A734AC3A773D35D259E87B PUSH1 0x40 MLOAD PUSH3 0x58 SWAP1 PUSH3 0x477 JUMP JUMPDEST PUSH1 0x40 MLOAD DUP1 SWAP2 SUB SWAP1 LOG1 CALLER PUSH1 0x6 PUSH1 0x0 PUSH2 0x100 EXP DUP2 SLOAD DUP2 PUSH20 0xFFFFFFFFFFFFFFFFFFFFFFFFFFFFFFFFFFFFFFFF MUL NOT AND SWAP1 DUP4 PUSH20 0xFFFFFFFFFFFFFFFFFFFFFFFFFFFFFFFFFFFFFFFF AND MUL OR SWAP1 SSTORE POP DUP1 PUSH20 0xFFFFFFFFFFFFFFFFFFFFFFFFFFFFFFFFFFFFFFFF AND DUP3 PUSH20 0xFFFFFFFFFFFFFFFFFFFFFFFFFFFFFFFFFFFFFFFF AND SUB PUSH3 0x112 JUMPI PUSH1 0x40 MLOAD PUSH32 0x8C379A000000000000000000000000000000000000000000000000000000000 DUP2 MSTORE PUSH1 0x4 ADD PUSH3 0x109 SWAP1 PUSH3 0x4E9 JUMP JUMPDEST PUSH1 0x40 MLOAD DUP1 SWAP2 SUB SWAP1 REVERT JUMPDEST PUSH1 0x0 DUP3 PUSH20 0xFFFFFFFFFFFFFFFFFFFFFFFFFFFFFFFFFFFFFFFF AND PUSH4 0x6FDDE03 PUSH1 0x40 MLOAD DUP2 PUSH4 0xFFFFFFFF AND PUSH1 0xE0 SHL DUP2 MSTORE PUSH1 0x4 ADD PUSH1 0x0 PUSH1 0x40 MLOAD DUP1 DUP4 SUB DUP2 DUP7 GAS STATICCALL ISZERO DUP1 ISZERO PUSH3 0x160 JUMPI RETURNDATASIZE PUSH1 0x0 DUP1 RETURNDATACOPY RETURNDATASIZE PUSH1 0x0 REVERT JUMPDEST POP POP POP POP PUSH1 0x40 MLOAD RETURNDATASIZE PUSH1 0x0 DUP3 RETURNDATACOPY RETURNDATASIZE PUSH1 0x1F NOT PUSH1 0x1F DUP3 ADD AND DUP3 ADD DUP1 PUSH1 0x40 MSTORE POP DUP2 ADD SWAP1 PUSH3 0x18B SWAP2 SWAP1 PUSH3 0x68A JUMP JUMPDEST SWAP1 POP PUSH32 0xF4817828CFB0242AF0F04662358BF114FB5C05C5085A5EEC9F709628F9D31110 DUP2 DUP1 MLOAD SWAP1 PUSH1 0x20 ADD KECCAK256 SUB PUSH3 0x244 JUMPI DUP3 PUSH1 0x7 PUSH1 0x0 PUSH2 0x100 EXP DUP2 SLOAD DUP2 PUSH20 0xFFFFFFFFFFFFFFFFFFFFFFFFFFFFFFFFFFFFFFFF MUL NOT AND SWAP1 DUP4 PUSH20 0xFFFFFFFFFFFFFFFFFFFFFFFFFFFFFFFFFFFFFFFF AND MUL OR SWAP1 SSTORE POP DUP2 PUSH1 0x8 PUSH1 0x0 PUSH2 0x100 EXP DUP2 SLOAD DUP2 PUSH20 0xFFFFFFFFFFFFFFFFFFFFFFFFFFFFFFFFFFFFFFFF MUL NOT AND SWAP1 DUP4 PUSH20 0xFFFFFFFFFFFFFFFFFFFFFFFFFFFFFFFFFFFFFFFF AND MUL OR SWAP1 SSTORE POP PUSH3 0x301 JUMP JUMPDEST PUSH32 0x5545544845520000000000000000000000000000000000000000000000000000 DUP2 DUP1 MLOAD SWAP1 PUSH1 0x20 ADD KECCAK256 SUB PUSH3 0x2FB JUMPI DUP2 PUSH1 0x7 PUSH1 0x0 PUSH2 0x100 EXP DUP2 SLOAD DUP2 PUSH20 0xFFFFFFFFFFFFFFFFFFFFFFFFFFFFFFFFFFFFFFFF MUL NOT AND SWAP1 DUP4 PUSH20 0xFFFFFFFFFFFFFFFFFFFFFFFFFFFFFFFFFFFFFFFF AND MUL OR SWAP1 SSTORE POP DUP2 PUSH1 0x8 PUSH1 0x0 PUSH2 0x100 EXP DUP2 SLOAD DUP2 PUSH20 0xFFFFFFFFFFFFFFFFFFFFFFFFFFFFFFFFFFFFFFFF MUL NOT AND SWAP1 DUP4 PUSH20 0xFFFFFFFFFFFFFFFFFFFFFFFFFFFFFFFFFFFFFFFF AND MUL OR SWAP1 SSTORE POP PUSH3 0x300 JUMP JUMPDEST PUSH1 0x0 DUP1 REVERT JUMPDEST JUMPDEST POP POP POP PUSH3 0x6DB JUMP JUMPDEST PUSH1 0x0 PUSH1 0x40 MLOAD SWAP1 POP SWAP1 JUMP JUMPDEST PUSH1 0x0 DUP1 REVERT JUMPDEST PUSH1 0x0 DUP1 REVERT JUMPDEST PUSH1 0x0 PUSH20 0xFFFFFFFFFFFFFFFFFFFFFFFFFFFFFFFFFFFFFFFF DUP3 AND SWAP1 POP SWAP2 SWAP1 POP JUMP JUMPDEST PUSH1 0x0 PUSH3 0x34B DUP3 PUSH3 0x31E JUMP JUMPDEST SWAP1 POP SWAP2 SWAP1 POP JUMP JUMPDEST PUSH3 0x35D DUP2 PUSH3 0x33E JUMP JUMPDEST DUP2 EQ PUSH3 0x369 JUMPI PUSH1 0x0 DUP1 REVERT JUMPDEST POP JUMP JUMPDEST PUSH1 0x0 DUP2 MLOAD SWAP1 POP PUSH3 0x37D DUP2 PUSH3 0x352 JUMP JUMPDEST SWAP3 SWAP2 POP POP JUMP JUMPDEST PUSH1 0x0 DUP1 PUSH1 0x40 DUP4 DUP6 SUB SLT ISZERO PUSH3 0x39D JUMPI PUSH3 0x39C PUSH3 0x314 JUMP JUMPDEST JUMPDEST PUSH1 0x0 PUSH3 0x3AD DUP6 DUP3 DUP7 ADD PUSH3 0x36C JUMP JUMPDEST SWAP3 POP POP PUSH1 0x20 PUSH3 0x3C0 DUP6 DUP3 DUP7 ADD PUSH3 0x36C JUMP JUMPDEST SWAP2 POP POP SWAP3 POP SWAP3 SWAP1 POP JUMP JUMPDEST PUSH1 0x0 DUP3 DUP3 MSTORE PUSH1 0x20 DUP3 ADD SWAP1 POP SWAP3 SWAP2 POP POP JUMP JUMPDEST PUSH32 0x436F6E7374727563746F722077617320696E697469617465642E2043616C6C20 PUSH1 0x0 DUP3 ADD MSTORE PUSH32 0x27757064617465507269636528292720746F2073656E64207468652050726F76 PUSH1 0x20 DUP3 ADD MSTORE PUSH32 0x61626C652051756572792E000000000000000000000000000000000000000000 PUSH1 0x40 DUP3 ADD MSTORE POP JUMP JUMPDEST PUSH1 0x0 PUSH3 0x45F PUSH1 0x4B DUP4 PUSH3 0x3CA JUMP JUMPDEST SWAP2 POP PUSH3 0x46C DUP3 PUSH3 0x3DB JUMP JUMPDEST PUSH1 0x60 DUP3 ADD SWAP1 POP SWAP2 SWAP1 POP JUMP JUMPDEST PUSH1 0x0 PUSH1 0x20 DUP3 ADD SWAP1 POP DUP2 DUP2 SUB PUSH1 0x0 DUP4 ADD MSTORE PUSH3 0x492 DUP2 PUSH3 0x450 JUMP JUMPDEST SWAP1 POP SWAP2 SWAP1 POP JUMP JUMPDEST PUSH32 0x537761703A20426F746820746F6B656E73206172652073616D65000000000000 PUSH1 0x0 DUP3 ADD MSTORE POP JUMP JUMPDEST PUSH1 0x0 PUSH3 0x4D1 PUSH1 0x1A DUP4 PUSH3 0x3CA JUMP JUMPDEST SWAP2 POP PUSH3 0x4DE DUP3 PUSH3 0x499 JUMP JUMPDEST PUSH1 0x20 DUP3 ADD SWAP1 POP SWAP2 SWAP1 POP JUMP JUMPDEST PUSH1 0x0 PUSH1 0x20 DUP3 ADD SWAP1 POP DUP2 DUP2 SUB PUSH1 0x0 DUP4 ADD MSTORE PUSH3 0x504 DUP2 PUSH3 0x4C2 JUMP JUMPDEST SWAP1 POP SWAP2 SWAP1 POP JUMP JUMPDEST PUSH1 0x0 DUP1 REVERT JUMPDEST PUSH1 0x0 DUP1 REVERT JUMPDEST PUSH1 0x0 PUSH1 0x1F NOT PUSH1 0x1F DUP4 ADD AND SWAP1 POP SWAP2 SWAP1 POP JUMP JUMPDEST PUSH32 0x4E487B7100000000000000000000000000000000000000000000000000000000 PUSH1 0x0 MSTORE PUSH1 0x41 PUSH1 0x4 MSTORE PUSH1 0x24 PUSH1 0x0 REVERT JUMPDEST PUSH3 0x560 DUP3 PUSH3 0x515 JUMP JUMPDEST DUP2 ADD DUP2 DUP2 LT PUSH8 0xFFFFFFFFFFFFFFFF DUP3 GT OR ISZERO PUSH3 0x582 JUMPI PUSH3 0x581 PUSH3 0x526 JUMP JUMPDEST JUMPDEST DUP1 PUSH1 0x40 MSTORE POP POP POP JUMP JUMPDEST PUSH1 0x0 PUSH3 0x597 PUSH3 0x30A JUMP JUMPDEST SWAP1 POP PUSH3 0x5A5 DUP3 DUP3 PUSH3 0x555 JUMP JUMPDEST SWAP2 SWAP1 POP JUMP JUMPDEST PUSH1 0x0 PUSH8 0xFFFFFFFFFFFFFFFF DUP3 GT ISZERO PUSH3 0x5C8 JUMPI PUSH3 0x5C7 PUSH3 0x526 JUMP JUMPDEST JUMPDEST PUSH3 0x5D3 DUP3 PUSH3 0x515 JUMP JUMPDEST SWAP1 POP PUSH1 0x20 DUP2 ADD SWAP1 POP SWAP2 SWAP1 POP JUMP JUMPDEST PUSH1 0x0 JUMPDEST DUP4 DUP2 LT ISZERO PUSH3 0x600 JUMPI DUP1 DUP3 ADD MLOAD DUP2 DUP5 ADD MSTORE PUSH1 0x20 DUP2 ADD SWAP1 POP PUSH3 0x5E3 JUMP JUMPDEST PUSH1 0x0 DUP5 DUP5 ADD MSTORE POP POP POP POP JUMP JUMPDEST PUSH1 0x0 PUSH3 0x623 PUSH3 0x61D DUP5 PUSH3 0x5AA JUMP JUMPDEST PUSH3 0x58B JUMP JUMPDEST SWAP1 POP DUP3 DUP2 MSTORE PUSH1 0x20 DUP2 ADD DUP5 DUP5 DUP5 ADD GT ISZERO PUSH3 0x642 JUMPI PUSH3 0x641 PUSH3 0x510 JUMP JUMPDEST JUMPDEST PUSH3 0x64F DUP5 DUP3 DUP6 PUSH3 0x5E0 JUMP JUMPDEST POP SWAP4 SWAP3 POP POP POP JUMP JUMPDEST PUSH1 0x0 DUP3 PUSH1 0x1F DUP4 ADD SLT PUSH3 0x66F JUMPI PUSH3 0x66E PUSH3 0x50B JUMP JUMPDEST JUMPDEST DUP2 MLOAD PUSH3 0x681 DUP5 DUP3 PUSH1 0x20 DUP7 ADD PUSH3 0x60C JUMP JUMPDEST SWAP2 POP POP SWAP3 SWAP2 POP POP JUMP JUMPDEST PUSH1 0x0 PUSH1 0x20 DUP3 DUP5 SUB SLT ISZERO PUSH3 0x6A3 JUMPI PUSH3 0x6A2 PUSH3 0x314 JUMP JUMPDEST JUMPDEST PUSH1 0x0 DUP3 ADD MLOAD PUSH8 0xFFFFFFFFFFFFFFFF DUP2 GT ISZERO PUSH3 0x6C4 JUMPI PUSH3 0x6C3 PUSH3 0x319 JUMP JUMPDEST JUMPDEST PUSH3 0x6D2 DUP5 DUP3 DUP6 ADD PUSH3 0x657 JUMP JUMPDEST SWAP2 POP POP SWAP3 SWAP2 POP POP JUMP JUMPDEST PUSH2 0x3425 DUP1 PUSH3 0x6EB PUSH1 0x0 CODECOPY PUSH1 0x0 RETURN INVALID PUSH1 0x80 PUSH1 0x40 MSTORE PUSH1 0x4 CALLDATASIZE LT PUSH2 0xA7 JUMPI PUSH1 0x0 CALLDATALOAD PUSH1 0xE0 SHR DUP1 PUSH4 0x97ABA7F9 GT PUSH2 0x64 JUMPI DUP1 PUSH4 0x97ABA7F9 EQ PUSH2 0x199 JUMPI DUP1 PUSH4 0xA7BB5803 EQ PUSH2 0x1D6 JUMPI DUP1 PUSH4 0xCFFC18EB EQ PUSH2 0x215 JUMPI DUP1 PUSH4 0xD85FA800 EQ PUSH2 0x252 JUMPI DUP1 PUSH4 0xEC690470 EQ PUSH2 0x27B JUMPI DUP1 PUSH4 0xFA540801 EQ PUSH2 0x2A4 JUMPI PUSH2 0xA7 JUMP JUMPDEST DUP1 PUSH4 0xB71A0B7 EQ PUSH2 0xAC JUMPI DUP1 PUSH4 0x1983F09A EQ PUSH2 0xE9 JUMPI DUP1 PUSH4 0x27DC297E EQ PUSH2 0x112 JUMPI DUP1 PUSH4 0x59BB69A3 EQ PUSH2 0x13B JUMPI DUP1 PUSH4 0x673A7E28 EQ PUSH2 0x164 JUMPI DUP1 PUSH4 0x73DB0844 EQ PUSH2 0x16E JUMPI JUMPDEST PUSH1 0x0 DUP1 REVERT JUMPDEST CALLVALUE DUP1 ISZERO PUSH2 0xB8 JUMPI PUSH1 0x0 DUP1 REVERT JUMPDEST POP PUSH2 0xD3 PUSH1 0x4 DUP1 CALLDATASIZE SUB DUP2 ADD SWAP1 PUSH2 0xCE SWAP2 SWAP1 PUSH2 0x2220 JUMP JUMPDEST PUSH2 0x2E1 JUMP JUMPDEST PUSH1 0x40 MLOAD PUSH2 0xE0 SWAP2 SWAP1 PUSH2 0x22A0 JUMP JUMPDEST PUSH1 0x40 MLOAD DUP1 SWAP2 SUB SWAP1 RETURN JUMPDEST CALLVALUE DUP1 ISZERO PUSH2 0xF5 JUMPI PUSH1 0x0 DUP1 REVERT JUMPDEST POP PUSH2 0x110 PUSH1 0x4 DUP1 CALLDATASIZE SUB DUP2 ADD SWAP1 PUSH2 0x10B SWAP2 SWAP1 PUSH2 0x22BB JUMP JUMPDEST PUSH2 0x31A JUMP JUMPDEST STOP JUMPDEST CALLVALUE DUP1 ISZERO PUSH2 0x11E JUMPI PUSH1 0x0 DUP1 REVERT JUMPDEST POP PUSH2 0x139 PUSH1 0x4 DUP1 CALLDATASIZE SUB DUP2 ADD SWAP1 PUSH2 0x134 SWAP2 SWAP1 PUSH2 0x246D JUMP JUMPDEST PUSH2 0x533 JUMP JUMPDEST STOP JUMPDEST CALLVALUE DUP1 ISZERO PUSH2 0x147 JUMPI PUSH1 0x0 DUP1 REVERT JUMPDEST POP PUSH2 0x162 PUSH1 0x4 DUP1 CALLDATASIZE SUB DUP2 ADD SWAP1 PUSH2 0x15D SWAP2 SWAP1 PUSH2 0x22BB JUMP JUMPDEST PUSH2 0x5BD JUMP JUMPDEST STOP JUMPDEST PUSH2 0x16C PUSH2 0x7D6 JUMP JUMPDEST STOP JUMPDEST CALLVALUE DUP1 ISZERO PUSH2 0x17A JUMPI PUSH1 0x0 DUP1 REVERT JUMPDEST POP PUSH2 0x183 PUSH2 0x8E5 JUMP JUMPDEST PUSH1 0x40 MLOAD PUSH2 0x190 SWAP2 SWAP1 PUSH2 0x2548 JUMP JUMPDEST PUSH1 0x40 MLOAD DUP1 SWAP2 SUB SWAP1 RETURN JUMPDEST CALLVALUE DUP1 ISZERO PUSH2 0x1A5 JUMPI PUSH1 0x0 DUP1 REVERT JUMPDEST POP PUSH2 0x1C0 PUSH1 0x4 DUP1 CALLDATASIZE SUB DUP2 ADD SWAP1 PUSH2 0x1BB SWAP2 SWAP1 PUSH2 0x260B JUMP JUMPDEST PUSH2 0x973 JUMP JUMPDEST PUSH1 0x40 MLOAD PUSH2 0x1CD SWAP2 SWAP1 PUSH2 0x2676 JUMP JUMPDEST PUSH1 0x40 MLOAD DUP1 SWAP2 SUB SWAP1 RETURN JUMPDEST CALLVALUE DUP1 ISZERO PUSH2 0x1E2 JUMPI PUSH1 0x0 DUP1 REVERT JUMPDEST POP PUSH2 0x1FD PUSH1 0x4 DUP1 CALLDATASIZE SUB DUP2 ADD SWAP1 PUSH2 0x1F8 SWAP2 SWAP1 PUSH2 0x2691 JUMP JUMPDEST PUSH2 0x9E2 JUMP JUMPDEST PUSH1 0x40 MLOAD PUSH2 0x20C SWAP4 SWAP3 SWAP2 SWAP1 PUSH2 0x26F6 JUMP JUMPDEST PUSH1 0x40 MLOAD DUP1 SWAP2 SUB SWAP1 RETURN JUMPDEST CALLVALUE DUP1 ISZERO PUSH2 0x221 JUMPI PUSH1 0x0 DUP1 REVERT JUMPDEST POP PUSH2 0x23C PUSH1 0x4 DUP1 CALLDATASIZE SUB DUP2 ADD SWAP1 PUSH2 0x237 SWAP2 SWAP1 PUSH2 0x272D JUMP JUMPDEST PUSH2 0xA4A JUMP JUMPDEST PUSH1 0x40 MLOAD PUSH2 0x249 SWAP2 SWAP1 PUSH2 0x27DF JUMP JUMPDEST PUSH1 0x40 MLOAD DUP1 SWAP2 SUB SWAP1 RETURN JUMPDEST CALLVALUE DUP1 ISZERO PUSH2 0x25E JUMPI PUSH1 0x0 DUP1 REVERT JUMPDEST POP PUSH2 0x279 PUSH1 0x4 DUP1 CALLDATASIZE SUB DUP2 ADD SWAP1 PUSH2 0x274 SWAP2 SWAP1 PUSH2 0x285A JUMP JUMPDEST PUSH2 0xAAD JUMP JUMPDEST STOP JUMPDEST CALLVALUE DUP1 ISZERO PUSH2 0x287 JUMPI PUSH1 0x0 DUP1 REVERT JUMPDEST POP PUSH2 0x2A2 PUSH1 0x4 DUP1 CALLDATASIZE SUB DUP2 ADD SWAP1 PUSH2 0x29D SWAP2 SWAP1 PUSH2 0x285A JUMP JUMPDEST PUSH2 0xD3F JUMP JUMPDEST STOP JUMPDEST CALLVALUE DUP1 ISZERO PUSH2 0x2B0 JUMPI PUSH1 0x0 DUP1 REVERT JUMPDEST POP PUSH2 0x2CB PUSH1 0x4 DUP1 CALLDATASIZE SUB DUP2 ADD SWAP1 PUSH2 0x2C6 SWAP2 SWAP1 PUSH2 0x2909 JUMP JUMPDEST PUSH2 0xFD1 JUMP JUMPDEST PUSH1 0x40 MLOAD PUSH2 0x2D8 SWAP2 SWAP1 PUSH2 0x22A0 JUMP JUMPDEST PUSH1 0x40 MLOAD DUP1 SWAP2 SUB SWAP1 RETURN JUMPDEST PUSH1 0x0 DUP5 DUP5 DUP5 DUP5 PUSH1 0x40 MLOAD PUSH1 0x20 ADD PUSH2 0x2FA SWAP5 SWAP4 SWAP3 SWAP2 SWAP1 PUSH2 0x299F JUMP JUMPDEST PUSH1 0x40 MLOAD PUSH1 0x20 DUP2 DUP4 SUB SUB DUP2 MSTORE SWAP1 PUSH1 0x40 MSTORE DUP1 MLOAD SWAP1 PUSH1 0x20 ADD KECCAK256 SWAP1 POP SWAP5 SWAP4 POP POP POP POP JUMP JUMPDEST PUSH1 0x0 ISZERO ISZERO PUSH1 0xA PUSH1 0x0 CALLER PUSH20 0xFFFFFFFFFFFFFFFFFFFFFFFFFFFFFFFFFFFFFFFF AND PUSH20 0xFFFFFFFFFFFFFFFFFFFFFFFFFFFFFFFFFFFFFFFF AND DUP2 MSTORE PUSH1 0x20 ADD SWAP1 DUP2 MSTORE PUSH1 0x20 ADD PUSH1 0x0 KECCAK256 PUSH1 0x0 PUSH1 0x9 SLOAD DUP2 MSTORE PUSH1 0x20 ADD SWAP1 DUP2 MSTORE PUSH1 0x20 ADD PUSH1 0x0 KECCAK256 PUSH1 0x0 SWAP1 SLOAD SWAP1 PUSH2 0x100 EXP SWAP1 DIV PUSH1 0xFF AND ISZERO ISZERO EQ PUSH2 0x3C0 JUMPI PUSH1 0x40 MLOAD PUSH32 0x8C379A000000000000000000000000000000000000000000000000000000000 DUP2 MSTORE PUSH1 0x4 ADD PUSH2 0x3B7 SWAP1 PUSH2 0x2A5F JUMP JUMPDEST PUSH1 0x40 MLOAD DUP1 SWAP2 SUB SWAP1 REVERT JUMPDEST PUSH1 0x1 PUSH1 0xA PUSH1 0x0 CALLER PUSH20 0xFFFFFFFFFFFFFFFFFFFFFFFFFFFFFFFFFFFFFFFF AND PUSH20 0xFFFFFFFFFFFFFFFFFFFFFFFFFFFFFFFFFFFFFFFF AND DUP2 MSTORE PUSH1 0x20 ADD SWAP1 DUP2 MSTORE PUSH1 0x20 ADD PUSH1 0x0 KECCAK256 PUSH1 0x0 PUSH1 0x9 SLOAD DUP2 MSTORE PUSH1 0x20 ADD SWAP1 DUP2 MSTORE PUSH1 0x20 ADD PUSH1 0x0 KECCAK256 PUSH1 0x0 PUSH2 0x100 EXP DUP2 SLOAD DUP2 PUSH1 0xFF MUL NOT AND SWAP1 DUP4 ISZERO ISZERO MUL OR SWAP1 SSTORE POP PUSH1 0x8 PUSH1 0x0 SWAP1 SLOAD SWAP1 PUSH2 0x100 EXP SWAP1 DIV PUSH20 0xFFFFFFFFFFFFFFFFFFFFFFFFFFFFFFFFFFFFFFFF AND PUSH20 0xFFFFFFFFFFFFFFFFFFFFFFFFFFFFFFFFFFFFFFFF AND PUSH4 0x9DC29FAC CALLER DUP4 PUSH1 0x40 MLOAD DUP4 PUSH4 0xFFFFFFFF AND PUSH1 0xE0 SHL DUP2 MSTORE PUSH1 0x4 ADD PUSH2 0x488 SWAP3 SWAP2 SWAP1 PUSH2 0x2A8E JUMP JUMPDEST PUSH1 0x0 PUSH1 0x40 MLOAD DUP1 DUP4 SUB DUP2 PUSH1 0x0 DUP8 DUP1 EXTCODESIZE ISZERO DUP1 ISZERO PUSH2 0x4A2 JUMPI PUSH1 0x0 DUP1 REVERT JUMPDEST POP GAS CALL ISZERO DUP1 ISZERO PUSH2 0x4B6 JUMPI RETURNDATASIZE PUSH1 0x0 DUP1 RETURNDATACOPY RETURNDATASIZE PUSH1 0x0 REVERT JUMPDEST POP POP POP POP PUSH2 0x4C2 PUSH2 0x7D6 JUMP JUMPDEST PUSH1 0x0 PUSH1 0x1 DUP2 GT ISZERO PUSH2 0x4D6 JUMPI PUSH2 0x4D5 PUSH2 0x2AB7 JUMP JUMPDEST JUMPDEST PUSH32 0x1180C9D083141DC152A1859A6DBF9F5CA1E6D4A91D43BA1EA7529D52DB634845 CALLER DUP5 DUP5 PUSH1 0x9 SLOAD TIMESTAMP PUSH1 0x40 MLOAD PUSH2 0x50F SWAP6 SWAP5 SWAP4 SWAP3 SWAP2 SWAP1 PUSH2 0x2AE6 JUMP JUMPDEST PUSH1 0x40 MLOAD DUP1 SWAP2 SUB SWAP1 LOG2 PUSH1 0x9 PUSH1 0x0 DUP2 SLOAD DUP1 SWAP3 SWAP2 SWAP1 PUSH2 0x52A SWAP1 PUSH2 0x2B68 JUMP JUMPDEST SWAP2 SWAP1 POP SSTORE POP POP POP JUMP JUMPDEST PUSH2 0x53B PUSH2 0x1001 JUMP JUMPDEST PUSH20 0xFFFFFFFFFFFFFFFFFFFFFFFFFFFFFFFFFFFFFFFF AND CALLER PUSH20 0xFFFFFFFFFFFFFFFFFFFFFFFFFFFFFFFFFFFFFFFF AND EQ PUSH2 0x572 JUMPI PUSH1 0x0 DUP1 REVERT JUMPDEST DUP1 PUSH1 0x5 SWAP1 DUP2 PUSH2 0x581 SWAP2 SWAP1 PUSH2 0x2DBC JUMP JUMPDEST POP PUSH32 0x71F1A5645E51A2DA828FFCF79CC17DA88EB25E1BCA8B9DCED23210847A4769C1 DUP2 PUSH1 0x40 MLOAD PUSH2 0x5B1 SWAP2 SWAP1 PUSH2 0x2548 JUMP JUMPDEST PUSH1 0x40 MLOAD DUP1 SWAP2 SUB SWAP1 LOG1 POP POP JUMP JUMPDEST PUSH1 0x0 ISZERO ISZERO PUSH1 0xA PUSH1 0x0 CALLER PUSH20 0xFFFFFFFFFFFFFFFFFFFFFFFFFFFFFFFFFFFFFFFF AND PUSH20 0xFFFFFFFFFFFFFFFFFFFFFFFFFFFFFFFFFFFFFFFF AND DUP2 MSTORE PUSH1 0x20 ADD SWAP1 DUP2 MSTORE PUSH1 0x20 ADD PUSH1 0x0 KECCAK256 PUSH1 0x0 PUSH1 0x9 SLOAD DUP2 MSTORE PUSH1 0x20 ADD SWAP1 DUP2 MSTORE PUSH1 0x20 ADD PUSH1 0x0 KECCAK256 PUSH1 0x0 SWAP1 SLOAD SWAP1 PUSH2 0x100 EXP SWAP1 DIV PUSH1 0xFF AND ISZERO ISZERO EQ PUSH2 0x663 JUMPI PUSH1 0x40 MLOAD PUSH32 0x8C379A000000000000000000000000000000000000000000000000000000000 DUP2 MSTORE PUSH1 0x4 ADD PUSH2 0x65A SWAP1 PUSH2 0x2A5F JUMP JUMPDEST PUSH1 0x40 MLOAD DUP1 SWAP2 SUB SWAP1 REVERT JUMPDEST PUSH1 0x1 PUSH1 0xA PUSH1 0x0 CALLER PUSH20 0xFFFFFFFFFFFFFFFFFFFFFFFFFFFFFFFFFFFFFFFF AND PUSH20 0xFFFFFFFFFFFFFFFFFFFFFFFFFFFFFFFFFFFFFFFF AND DUP2 MSTORE PUSH1 0x20 ADD SWAP1 DUP2 MSTORE PUSH1 0x20 ADD PUSH1 0x0 KECCAK256 PUSH1 0x0 PUSH1 0x9 SLOAD DUP2 MSTORE PUSH1 0x20 ADD SWAP1 DUP2 MSTORE PUSH1 0x20 ADD PUSH1 0x0 KECCAK256 PUSH1 0x0 PUSH2 0x100 EXP DUP2 SLOAD DUP2 PUSH1 0xFF MUL NOT AND SWAP1 DUP4 ISZERO ISZERO MUL OR SWAP1 SSTORE POP PUSH1 0x7 PUSH1 0x0 SWAP1 SLOAD SWAP1 PUSH2 0x100 EXP SWAP1 DIV PUSH20 0xFFFFFFFFFFFFFFFFFFFFFFFFFFFFFFFFFFFFFFFF AND PUSH20 0xFFFFFFFFFFFFFFFFFFFFFFFFFFFFFFFFFFFFFFFF AND PUSH4 0x9DC29FAC CALLER DUP4 PUSH1 0x40 MLOAD DUP4 PUSH4 0xFFFFFFFF AND PUSH1 0xE0 SHL DUP2 MSTORE PUSH1 0x4 ADD PUSH2 0x72B SWAP3 SWAP2 SWAP1 PUSH2 0x2A8E JUMP JUMPDEST PUSH1 0x0 PUSH1 0x40 MLOAD DUP1 DUP4 SUB DUP2 PUSH1 0x0 DUP8 DUP1 EXTCODESIZE ISZERO DUP1 ISZERO PUSH2 0x745 JUMPI PUSH1 0x0 DUP1 REVERT JUMPDEST POP GAS CALL ISZERO DUP1 ISZERO PUSH2 0x759 JUMPI RETURNDATASIZE PUSH1 0x0 DUP1 RETURNDATACOPY RETURNDATASIZE PUSH1 0x0 REVERT JUMPDEST POP POP POP POP PUSH2 0x765 PUSH2 0x7D6 JUMP JUMPDEST PUSH1 0x0 PUSH1 0x1 DUP2 GT ISZERO PUSH2 0x779 JUMPI PUSH2 0x778 PUSH2 0x2AB7 JUMP JUMPDEST JUMPDEST PUSH32 0x1180C9D083141DC152A1859A6DBF9F5CA1E6D4A91D43BA1EA7529D52DB634845 CALLER DUP5 DUP5 PUSH1 0x9 SLOAD TIMESTAMP PUSH1 0x40 MLOAD PUSH2 0x7B2 SWAP6 SWAP5 SWAP4 SWAP3 SWAP2 SWAP1 PUSH2 0x2AE6 JUMP JUMPDEST PUSH1 0x40 MLOAD DUP1 SWAP2 SUB SWAP1 LOG2 PUSH1 0x9 PUSH1 0x0 DUP2 SLOAD DUP1 SWAP3 SWAP2 SWAP1 PUSH2 0x7CD SWAP1 PUSH2 0x2B68 JUMP JUMPDEST SWAP2 SWAP1 POP SSTORE POP POP POP JUMP JUMPDEST SELFBALANCE PUSH2 0x815 PUSH1 0x40 MLOAD DUP1 PUSH1 0x40 ADD PUSH1 0x40 MSTORE DUP1 PUSH1 0x3 DUP2 MSTORE PUSH1 0x20 ADD PUSH32 0x55524C0000000000000000000000000000000000000000000000000000000000 DUP2 MSTORE POP PUSH2 0x12E8 JUMP JUMPDEST GT ISZERO PUSH2 0x855 JUMPI PUSH32 0xC4DC360D0A9C0677A3379AE0A3D81E887F761E65FDF3D7E00859D1BCD3C47389 PUSH1 0x40 MLOAD PUSH2 0x848 SWAP1 PUSH2 0x2F26 JUMP JUMPDEST PUSH1 0x40 MLOAD DUP1 SWAP2 SUB SWAP1 LOG1 PUSH2 0x8E3 JUMP JUMPDEST PUSH32 0xC4DC360D0A9C0677A3379AE0A3D81E887F761E65FDF3D7E00859D1BCD3C47389 PUSH1 0x40 MLOAD PUSH2 0x882 SWAP1 PUSH2 0x2FB8 JUMP JUMPDEST PUSH1 0x40 MLOAD DUP1 SWAP2 SUB SWAP1 LOG1 PUSH2 0x8E1 PUSH1 0x40 MLOAD DUP1 PUSH1 0x40 ADD PUSH1 0x40 MSTORE DUP1 PUSH1 0x3 DUP2 MSTORE PUSH1 0x20 ADD PUSH32 0x55524C0000000000000000000000000000000000000000000000000000000000 DUP2 MSTORE POP PUSH1 0x40 MLOAD DUP1 PUSH1 0x60 ADD PUSH1 0x40 MSTORE DUP1 PUSH1 0x40 DUP2 MSTORE PUSH1 0x20 ADD PUSH2 0x33B0 PUSH1 0x40 SWAP2 CODECOPY PUSH2 0x15DC JUMP JUMPDEST POP JUMPDEST JUMP JUMPDEST PUSH1 0x5 DUP1 SLOAD PUSH2 0x8F2 SWAP1 PUSH2 0x2BDF JUMP JUMPDEST DUP1 PUSH1 0x1F ADD PUSH1 0x20 DUP1 SWAP2 DIV MUL PUSH1 0x20 ADD PUSH1 0x40 MLOAD SWAP1 DUP2 ADD PUSH1 0x40 MSTORE DUP1 SWAP3 SWAP2 SWAP1 DUP2 DUP2 MSTORE PUSH1 0x20 ADD DUP3 DUP1 SLOAD PUSH2 0x91E SWAP1 PUSH2 0x2BDF JUMP JUMPDEST DUP1 ISZERO PUSH2 0x96B JUMPI DUP1 PUSH1 0x1F LT PUSH2 0x940 JUMPI PUSH2 0x100 DUP1 DUP4 SLOAD DIV MUL DUP4 MSTORE SWAP2 PUSH1 0x20 ADD SWAP2 PUSH2 0x96B JUMP JUMPDEST DUP3 ADD SWAP2 SWAP1 PUSH1 0x0 MSTORE PUSH1 0x20 PUSH1 0x0 KECCAK256 SWAP1 JUMPDEST DUP2 SLOAD DUP2 MSTORE SWAP1 PUSH1 0x1 ADD SWAP1 PUSH1 0x20 ADD DUP1 DUP4 GT PUSH2 0x94E JUMPI DUP3 SWAP1 SUB PUSH1 0x1F AND DUP3 ADD SWAP2 JUMPDEST POP POP POP POP POP DUP2 JUMP JUMPDEST PUSH1 0x0 DUP1 PUSH1 0x0 DUP1 PUSH2 0x982 DUP6 PUSH2 0x9E2 JUMP JUMPDEST SWAP3 POP SWAP3 POP SWAP3 POP PUSH1 0x1 DUP7 DUP3 DUP6 DUP6 PUSH1 0x40 MLOAD PUSH1 0x0 DUP2 MSTORE PUSH1 0x20 ADD PUSH1 0x40 MSTORE PUSH1 0x40 MLOAD PUSH2 0x9AB SWAP5 SWAP4 SWAP3 SWAP2 SWAP1 PUSH2 0x2FD8 JUMP JUMPDEST PUSH1 0x20 PUSH1 0x40 MLOAD PUSH1 0x20 DUP2 SUB SWAP1 DUP1 DUP5 SUB SWAP1 DUP6 GAS STATICCALL ISZERO DUP1 ISZERO PUSH2 0x9CD JUMPI RETURNDATASIZE PUSH1 0x0 DUP1 RETURNDATACOPY RETURNDATASIZE PUSH1 0x0 REVERT JUMPDEST POP POP POP PUSH1 0x20 PUSH1 0x40 MLOAD SUB MLOAD SWAP4 POP POP POP POP SWAP3 SWAP2 POP POP JUMP JUMPDEST PUSH1 0x0 DUP1 PUSH1 0x0 PUSH1 0x41 DUP5 MLOAD EQ PUSH2 0xA2B JUMPI PUSH1 0x40 MLOAD PUSH32 0x8C379A000000000000000000000000000000000000000000000000000000000 DUP2 MSTORE PUSH1 0x4 ADD PUSH2 0xA22 SWAP1 PUSH2 0x3069 JUMP JUMPDEST PUSH1 0x40 MLOAD DUP1 SWAP2 SUB SWAP1 REVERT JUMPDEST PUSH1 0x20 DUP5 ADD MLOAD SWAP3 POP PUSH1 0x40 DUP5 ADD MLOAD SWAP2 POP PUSH1 0x60 DUP5 ADD MLOAD PUSH1 0x0 BYTE SWAP1 POP SWAP2 SWAP4 SWAP1 SWAP3 POP JUMP JUMPDEST PUSH1 0x0 DUP1 PUSH2 0xA59 DUP8 DUP8 DUP8 DUP8 PUSH2 0x2E1 JUMP JUMPDEST SWAP1 POP PUSH1 0x0 PUSH2 0xA66 DUP3 PUSH2 0xFD1 JUMP JUMPDEST SWAP1 POP DUP8 PUSH20 0xFFFFFFFFFFFFFFFFFFFFFFFFFFFFFFFFFFFFFFFF AND PUSH2 0xA89 DUP3 DUP7 PUSH2 0x973 JUMP JUMPDEST PUSH20 0xFFFFFFFFFFFFFFFFFFFFFFFFFFFFFFFFFFFFFFFF AND EQ SWAP3 POP POP POP SWAP6 SWAP5 POP POP POP POP POP JUMP JUMPDEST PUSH1 0x0 PUSH2 0xABB DUP9 DUP9 DUP9 DUP8 PUSH2 0x2E1 JUMP JUMPDEST SWAP1 POP PUSH1 0x0 PUSH2 0xAC8 DUP3 PUSH2 0xFD1 JUMP JUMPDEST SWAP1 POP PUSH1 0x0 PUSH2 0xB1A DUP3 DUP7 DUP7 DUP1 DUP1 PUSH1 0x1F ADD PUSH1 0x20 DUP1 SWAP2 DIV MUL PUSH1 0x20 ADD PUSH1 0x40 MLOAD SWAP1 DUP2 ADD PUSH1 0x40 MSTORE DUP1 SWAP4 SWAP3 SWAP2 SWAP1 DUP2 DUP2 MSTORE PUSH1 0x20 ADD DUP4 DUP4 DUP1 DUP3 DUP5 CALLDATACOPY PUSH1 0x0 DUP2 DUP5 ADD MSTORE PUSH1 0x1F NOT PUSH1 0x1F DUP3 ADD AND SWAP1 POP DUP1 DUP4 ADD SWAP3 POP POP POP POP POP POP POP PUSH2 0x973 JUMP JUMPDEST SWAP1 POP PUSH1 0x0 ISZERO ISZERO PUSH1 0xA PUSH1 0x0 DUP13 PUSH20 0xFFFFFFFFFFFFFFFFFFFFFFFFFFFFFFFFFFFFFFFF AND PUSH20 0xFFFFFFFFFFFFFFFFFFFFFFFFFFFFFFFFFFFFFFFF AND DUP2 MSTORE PUSH1 0x20 ADD SWAP1 DUP2 MSTORE PUSH1 0x20 ADD PUSH1 0x0 KECCAK256 PUSH1 0x0 DUP9 DUP2 MSTORE PUSH1 0x20 ADD SWAP1 DUP2 MSTORE PUSH1 0x20 ADD PUSH1 0x0 KECCAK256 PUSH1 0x0 SWAP1 SLOAD SWAP1 PUSH2 0x100 EXP SWAP1 DIV PUSH1 0xFF AND ISZERO ISZERO EQ PUSH2 0xBC0 JUMPI PUSH1 0x40 MLOAD PUSH32 0x8C379A000000000000000000000000000000000000000000000000000000000 DUP2 MSTORE PUSH1 0x4 ADD PUSH2 0xBB7 SWAP1 PUSH2 0x2A5F JUMP JUMPDEST PUSH1 0x40 MLOAD DUP1 SWAP2 SUB SWAP1 REVERT JUMPDEST DUP10 PUSH20 0xFFFFFFFFFFFFFFFFFFFFFFFFFFFFFFFFFFFFFFFF AND DUP2 PUSH20 0xFFFFFFFFFFFFFFFFFFFFFFFFFFFFFFFFFFFFFFFF AND EQ PUSH2 0xC2E JUMPI PUSH1 0x40 MLOAD PUSH32 0x8C379A000000000000000000000000000000000000000000000000000000000 DUP2 MSTORE PUSH1 0x4 ADD PUSH2 0xC25 SWAP1 PUSH2 0x30D5 JUMP JUMPDEST PUSH1 0x40 MLOAD DUP1 SWAP2 SUB SWAP1 REVERT JUMPDEST PUSH1 0x0 DUP8 PUSH8 0xDE0B6B3A7640000 DUP11 PUSH2 0xC45 SWAP2 SWAP1 PUSH2 0x30F5 JUMP JUMPDEST PUSH2 0xC4F SWAP2 SWAP1 PUSH2 0x3166 JUMP JUMPDEST SWAP1 POP PUSH1 0x7 PUSH1 0x0 SWAP1 SLOAD SWAP1 PUSH2 0x100 EXP SWAP1 DIV PUSH20 0xFFFFFFFFFFFFFFFFFFFFFFFFFFFFFFFFFFFFFFFF AND PUSH20 0xFFFFFFFFFFFFFFFFFFFFFFFFFFFFFFFFFFFFFFFF AND PUSH4 0x40C10F19 DUP12 DUP4 PUSH1 0x40 MLOAD DUP4 PUSH4 0xFFFFFFFF AND PUSH1 0xE0 SHL DUP2 MSTORE PUSH1 0x4 ADD PUSH2 0xCAE SWAP3 SWAP2 SWAP1 PUSH2 0x2A8E JUMP JUMPDEST PUSH1 0x0 PUSH1 0x40 MLOAD DUP1 DUP4 SUB DUP2 PUSH1 0x0 DUP8 DUP1 EXTCODESIZE ISZERO DUP1 ISZERO PUSH2 0xCC8 JUMPI PUSH1 0x0 DUP1 REVERT JUMPDEST POP GAS CALL ISZERO DUP1 ISZERO PUSH2 0xCDC JUMPI RETURNDATASIZE PUSH1 0x0 DUP1 RETURNDATACOPY RETURNDATASIZE PUSH1 0x0 REVERT JUMPDEST POP POP POP POP PUSH1 0x1 DUP1 DUP2 GT ISZERO PUSH2 0xCF3 JUMPI PUSH2 0xCF2 PUSH2 0x2AB7 JUMP JUMPDEST JUMPDEST PUSH32 0x1180C9D083141DC152A1859A6DBF9F5CA1E6D4A91D43BA1EA7529D52DB634845 CALLER DUP13 DUP5 DUP12 TIMESTAMP PUSH1 0x40 MLOAD PUSH2 0xD2A SWAP6 SWAP5 SWAP4 SWAP3 SWAP2 SWAP1 PUSH2 0x2AE6 JUMP JUMPDEST PUSH1 0x40 MLOAD DUP1 SWAP2 SUB SWAP1 LOG2 POP POP POP POP POP POP POP POP POP POP POP JUMP JUMPDEST PUSH1 0x0 PUSH2 0xD4D DUP9 DUP9 DUP9 DUP8 PUSH2 0x2E1 JUMP JUMPDEST SWAP1 POP PUSH1 0x0 PUSH2 0xD5A DUP3 PUSH2 0xFD1 JUMP JUMPDEST SWAP1 POP PUSH1 0x0 PUSH2 0xDAC DUP3 DUP7 DUP7 DUP1 DUP1 PUSH1 0x1F ADD PUSH1 0x20 DUP1 SWAP2 DIV MUL PUSH1 0x20 ADD PUSH1 0x40 MLOAD SWAP1 DUP2 ADD PUSH1 0x40 MSTORE DUP1 SWAP4 SWAP3 SWAP2 SWAP1 DUP2 DUP2 MSTORE PUSH1 0x20 ADD DUP4 DUP4 DUP1 DUP3 DUP5 CALLDATACOPY PUSH1 0x0 DUP2 DUP5 ADD MSTORE PUSH1 0x1F NOT PUSH1 0x1F DUP3 ADD AND SWAP1 POP DUP1 DUP4 ADD SWAP3 POP POP POP POP POP POP POP PUSH2 0x973 JUMP JUMPDEST SWAP1 POP PUSH1 0x0 ISZERO ISZERO PUSH1 0xA PUSH1 0x0 DUP13 PUSH20 0xFFFFFFFFFFFFFFFFFFFFFFFFFFFFFFFFFFFFFFFF AND PUSH20 0xFFFFFFFFFFFFFFFFFFFFFFFFFFFFFFFFFFFFFFFF AND DUP2 MSTORE PUSH1 0x20 ADD SWAP1 DUP2 MSTORE PUSH1 0x20 ADD PUSH1 0x0 KECCAK256 PUSH1 0x0 DUP9 DUP2 MSTORE PUSH1 0x20 ADD SWAP1 DUP2 MSTORE PUSH1 0x20 ADD PUSH1 0x0 KECCAK256 PUSH1 0x0 SWAP1 SLOAD SWAP1 PUSH2 0x100 EXP SWAP1 DIV PUSH1 0xFF AND ISZERO ISZERO EQ PUSH2 0xE52 JUMPI PUSH1 0x40 MLOAD PUSH32 0x8C379A000000000000000000000000000000000000000000000000000000000 DUP2 MSTORE PUSH1 0x4 ADD PUSH2 0xE49 SWAP1 PUSH2 0x2A5F JUMP JUMPDEST PUSH1 0x40 MLOAD DUP1 SWAP2 SUB SWAP1 REVERT JUMPDEST DUP10 PUSH20 0xFFFFFFFFFFFFFFFFFFFFFFFFFFFFFFFFFFFFFFFF AND DUP2 PUSH20 0xFFFFFFFFFFFFFFFFFFFFFFFFFFFFFFFFFFFFFFFF AND EQ PUSH2 0xEC0 JUMPI PUSH1 0x40 MLOAD PUSH32 0x8C379A000000000000000000000000000000000000000000000000000000000 DUP2 MSTORE PUSH1 0x4 ADD PUSH2 0xEB7 SWAP1 PUSH2 0x30D5 JUMP JUMPDEST PUSH1 0x40 MLOAD DUP1 SWAP2 SUB SWAP1 REVERT JUMPDEST PUSH1 0x0 PUSH8 0xDE0B6B3A7640000 DUP10 DUP10 PUSH2 0xED7 SWAP2 SWAP1 PUSH2 0x30F5 JUMP JUMPDEST PUSH2 0xEE1 SWAP2 SWAP1 PUSH2 0x3166 JUMP JUMPDEST SWAP1 POP PUSH1 0x8 PUSH1 0x0 SWAP1 SLOAD SWAP1 PUSH2 0x100 EXP SWAP1 DIV PUSH20 0xFFFFFFFFFFFFFFFFFFFFFFFFFFFFFFFFFFFFFFFF AND PUSH20 0xFFFFFFFFFFFFFFFFFFFFFFFFFFFFFFFFFFFFFFFF AND PUSH4 0x40C10F19 DUP12 DUP4 PUSH1 0x40 MLOAD DUP4 PUSH4 0xFFFFFFFF AND PUSH1 0xE0 SHL DUP2 MSTORE PUSH1 0x4 ADD PUSH2 0xF40 SWAP3 SWAP2 SWAP1 PUSH2 0x2A8E JUMP JUMPDEST PUSH1 0x0 PUSH1 0x40 MLOAD DUP1 DUP4 SUB DUP2 PUSH1 0x0 DUP8 DUP1 EXTCODESIZE ISZERO DUP1 ISZERO PUSH2 0xF5A JUMPI PUSH1 0x0 DUP1 REVERT JUMPDEST POP GAS CALL ISZERO DUP1 ISZERO PUSH2 0xF6E JUMPI RETURNDATASIZE PUSH1 0x0 DUP1 RETURNDATACOPY RETURNDATASIZE PUSH1 0x0 REVERT JUMPDEST POP POP POP POP PUSH1 0x1 DUP1 DUP2 GT ISZERO PUSH2 0xF85 JUMPI PUSH2 0xF84 PUSH2 0x2AB7 JUMP JUMPDEST JUMPDEST PUSH32 0x1180C9D083141DC152A1859A6DBF9F5CA1E6D4A91D43BA1EA7529D52DB634845 CALLER DUP13 DUP5 DUP12 TIMESTAMP PUSH1 0x40 MLOAD PUSH2 0xFBC SWAP6 SWAP5 SWAP4 SWAP3 SWAP2 SWAP1 PUSH2 0x2AE6 JUMP JUMPDEST PUSH1 0x40 MLOAD DUP1 SWAP2 SUB SWAP1 LOG2 POP POP POP POP POP POP POP POP POP POP POP JUMP JUMPDEST PUSH1 0x0 DUP2 PUSH1 0x40 MLOAD PUSH1 0x20 ADD PUSH2 0xFE4 SWAP2 SWAP1 PUSH2 0x320F JUMP JUMPDEST PUSH1 0x40 MLOAD PUSH1 0x20 DUP2 DUP4 SUB SUB DUP2 MSTORE SWAP1 PUSH1 0x40 MSTORE DUP1 MLOAD SWAP1 PUSH1 0x20 ADD KECCAK256 SWAP1 POP SWAP2 SWAP1 POP JUMP JUMPDEST PUSH1 0x0 DUP1 PUSH20 0xFFFFFFFFFFFFFFFFFFFFFFFFFFFFFFFFFFFFFFFF AND PUSH1 0x1 PUSH1 0x0 SWAP1 SLOAD SWAP1 PUSH2 0x100 EXP SWAP1 DIV PUSH20 0xFFFFFFFFFFFFFFFFFFFFFFFFFFFFFFFFFFFFFFFF AND PUSH20 0xFFFFFFFFFFFFFFFFFFFFFFFFFFFFFFFFFFFFFFFF AND EQ DUP1 PUSH2 0x1089 JUMPI POP PUSH1 0x0 PUSH2 0x1087 PUSH1 0x1 PUSH1 0x0 SWAP1 SLOAD SWAP1 PUSH2 0x100 EXP SWAP1 DIV PUSH20 0xFFFFFFFFFFFFFFFFFFFFFFFFFFFFFFFFFFFFFFFF AND PUSH2 0x19AF JUMP JUMPDEST EQ JUMPDEST ISZERO PUSH2 0x109A JUMPI PUSH2 0x1098 PUSH1 0x0 PUSH2 0x19BA JUMP JUMPDEST POP JUMPDEST PUSH1 0x1 PUSH1 0x0 SWAP1 SLOAD SWAP1 PUSH2 0x100 EXP SWAP1 DIV PUSH20 0xFFFFFFFFFFFFFFFFFFFFFFFFFFFFFFFFFFFFFFFF AND PUSH20 0xFFFFFFFFFFFFFFFFFFFFFFFFFFFFFFFFFFFFFFFF AND PUSH4 0x38CC4831 PUSH1 0x40 MLOAD DUP2 PUSH4 0xFFFFFFFF AND PUSH1 0xE0 SHL DUP2 MSTORE PUSH1 0x4 ADD PUSH1 0x20 PUSH1 0x40 MLOAD DUP1 DUP4 SUB DUP2 PUSH1 0x0 DUP8 GAS CALL ISZERO DUP1 ISZERO PUSH2 0x1109 JUMPI RETURNDATASIZE PUSH1 0x0 DUP1 RETURNDATACOPY RETURNDATASIZE PUSH1 0x0 REVERT JUMPDEST POP POP POP POP PUSH1 0x40 MLOAD RETURNDATASIZE PUSH1 0x1F NOT PUSH1 0x1F DUP3 ADD AND DUP3 ADD DUP1 PUSH1 0x40 MSTORE POP DUP2 ADD SWAP1 PUSH2 0x112D SWAP2 SWAP1 PUSH2 0x324A JUMP JUMPDEST PUSH20 0xFFFFFFFFFFFFFFFFFFFFFFFFFFFFFFFFFFFFFFFF AND PUSH1 0x0 DUP1 SLOAD SWAP1 PUSH2 0x100 EXP SWAP1 DIV PUSH20 0xFFFFFFFFFFFFFFFFFFFFFFFFFFFFFFFFFFFFFFFF AND PUSH20 0xFFFFFFFFFFFFFFFFFFFFFFFFFFFFFFFFFFFFFFFF AND EQ PUSH2 0x1252 JUMPI PUSH1 0x1 PUSH1 0x0 SWAP1 SLOAD SWAP1 PUSH2 0x100 EXP SWAP1 DIV PUSH20 0xFFFFFFFFFFFFFFFFFFFFFFFFFFFFFFFFFFFFFFFF AND PUSH20 0xFFFFFFFFFFFFFFFFFFFFFFFFFFFFFFFFFFFFFFFF AND PUSH4 0x38CC4831 PUSH1 0x40 MLOAD DUP2 PUSH4 0xFFFFFFFF AND PUSH1 0xE0 SHL DUP2 MSTORE PUSH1 0x4 ADD PUSH1 0x20 PUSH1 0x40 MLOAD DUP1 DUP4 SUB DUP2 PUSH1 0x0 DUP8 GAS CALL ISZERO DUP1 ISZERO PUSH2 0x11EE JUMPI RETURNDATASIZE PUSH1 0x0 DUP1 RETURNDATACOPY RETURNDATASIZE PUSH1 0x0 REVERT JUMPDEST POP POP POP POP PUSH1 0x40 MLOAD RETURNDATASIZE PUSH1 0x1F NOT PUSH1 0x1F DUP3 ADD AND DUP3 ADD DUP1 PUSH1 0x40 MSTORE POP DUP2 ADD SWAP1 PUSH2 0x1212 SWAP2 SWAP1 PUSH2 0x324A JUMP JUMPDEST PUSH1 0x0 DUP1 PUSH2 0x100 EXP DUP2 SLOAD DUP2 PUSH20 0xFFFFFFFFFFFFFFFFFFFFFFFFFFFFFFFFFFFFFFFF MUL NOT AND SWAP1 DUP4 PUSH20 0xFFFFFFFFFFFFFFFFFFFFFFFFFFFFFFFFFFFFFFFF AND MUL OR SWAP1 SSTORE POP JUMPDEST PUSH1 0x0 DUP1 SLOAD SWAP1 PUSH2 0x100 EXP SWAP1 DIV PUSH20 0xFFFFFFFFFFFFFFFFFFFFFFFFFFFFFFFFFFFFFFFF AND PUSH20 0xFFFFFFFFFFFFFFFFFFFFFFFFFFFFFFFFFFFFFFFF AND PUSH4 0xC281D19E PUSH1 0x40 MLOAD DUP2 PUSH4 0xFFFFFFFF AND PUSH1 0xE0 SHL DUP2 MSTORE PUSH1 0x4 ADD PUSH1 0x20 PUSH1 0x40 MLOAD DUP1 DUP4 SUB DUP2 PUSH1 0x0 DUP8 GAS CALL ISZERO DUP1 ISZERO PUSH2 0x12BF JUMPI RETURNDATASIZE PUSH1 0x0 DUP1 RETURNDATACOPY RETURNDATASIZE PUSH1 0x0 REVERT JUMPDEST POP POP POP POP PUSH1 0x40 MLOAD RETURNDATASIZE PUSH1 0x1F NOT PUSH1 0x1F DUP3 ADD AND DUP3 ADD DUP1 PUSH1 0x40 MSTORE POP DUP2 ADD SWAP1 PUSH2 0x12E3 SWAP2 SWAP1 PUSH2 0x324A JUMP JUMPDEST SWAP1 POP SWAP1 JUMP JUMPDEST PUSH1 0x0 DUP1 PUSH20 0xFFFFFFFFFFFFFFFFFFFFFFFFFFFFFFFFFFFFFFFF AND PUSH1 0x1 PUSH1 0x0 SWAP1 SLOAD SWAP1 PUSH2 0x100 EXP SWAP1 DIV PUSH20 0xFFFFFFFFFFFFFFFFFFFFFFFFFFFFFFFFFFFFFFFF AND PUSH20 0xFFFFFFFFFFFFFFFFFFFFFFFFFFFFFFFFFFFFFFFF AND EQ DUP1 PUSH2 0x1370 JUMPI POP PUSH1 0x0 PUSH2 0x136E PUSH1 0x1 PUSH1 0x0 SWAP1 SLOAD SWAP1 PUSH2 0x100 EXP SWAP1 DIV PUSH20 0xFFFFFFFFFFFFFFFFFFFFFFFFFFFFFFFFFFFFFFFF AND PUSH2 0x19AF JUMP JUMPDEST EQ JUMPDEST ISZERO PUSH2 0x1381 JUMPI PUSH2 0x137F PUSH1 0x0 PUSH2 0x19BA JUMP JUMPDEST POP JUMPDEST PUSH1 0x1 PUSH1 0x0 SWAP1 SLOAD SWAP1 PUSH2 0x100 EXP SWAP1 DIV PUSH20 0xFFFFFFFFFFFFFFFFFFFFFFFFFFFFFFFFFFFFFFFF AND PUSH20 0xFFFFFFFFFFFFFFFFFFFFFFFFFFFFFFFFFFFFFFFF AND PUSH4 0x38CC4831 PUSH1 0x40 MLOAD DUP2 PUSH4 0xFFFFFFFF AND PUSH1 0xE0 SHL DUP2 MSTORE PUSH1 0x4 ADD PUSH1 0x20 PUSH1 0x40 MLOAD DUP1 DUP4 SUB DUP2 PUSH1 0x0 DUP8 GAS CALL ISZERO DUP1 ISZERO PUSH2 0x13F0 JUMPI RETURNDATASIZE PUSH1 0x0 DUP1 RETURNDATACOPY RETURNDATASIZE PUSH1 0x0 REVERT JUMPDEST POP POP POP POP PUSH1 0x40 MLOAD RETURNDATASIZE PUSH1 0x1F NOT PUSH1 0x1F DUP3 ADD AND DUP3 ADD DUP1 PUSH1 0x40 MSTORE POP DUP2 ADD SWAP1 PUSH2 0x1414 SWAP2 SWAP1 PUSH2 0x324A JUMP JUMPDEST PUSH20 0xFFFFFFFFFFFFFFFFFFFFFFFFFFFFFFFFFFFFFFFF AND PUSH1 0x0 DUP1 SLOAD SWAP1 PUSH2 0x100 EXP SWAP1 DIV PUSH20 0xFFFFFFFFFFFFFFFFFFFFFFFFFFFFFFFFFFFFFFFF AND PUSH20 0xFFFFFFFFFFFFFFFFFFFFFFFFFFFFFFFFFFFFFFFF AND EQ PUSH2 0x1539 JUMPI PUSH1 0x1 PUSH1 0x0 SWAP1 SLOAD SWAP1 PUSH2 0x100 EXP SWAP1 DIV PUSH20 0xFFFFFFFFFFFFFFFFFFFFFFFFFFFFFFFFFFFFFFFF AND PUSH20 0xFFFFFFFFFFFFFFFFFFFFFFFFFFFFFFFFFFFFFFFF AND PUSH4 0x38CC4831 PUSH1 0x40 MLOAD DUP2 PUSH4 0xFFFFFFFF AND PUSH1 0xE0 SHL DUP2 MSTORE PUSH1 0x4 ADD PUSH1 0x20 PUSH1 0x40 MLOAD DUP1 DUP4 SUB DUP2 PUSH1 0x0 DUP8 GAS CALL ISZERO DUP1 ISZERO PUSH2 0x14D5 JUMPI RETURNDATASIZE PUSH1 0x0 DUP1 RETURNDATACOPY RETURNDATASIZE PUSH1 0x0 REVERT JUMPDEST POP POP POP POP PUSH1 0x40 MLOAD RETURNDATASIZE PUSH1 0x1F NOT PUSH1 0x1F DUP3 ADD AND DUP3 ADD DUP1 PUSH1 0x40 MSTORE POP DUP2 ADD SWAP1 PUSH2 0x14F9 SWAP2 SWAP1 PUSH2 0x324A JUMP JUMPDEST PUSH1 0x0 DUP1 PUSH2 0x100 EXP DUP2 SLOAD DUP2 PUSH20 0xFFFFFFFFFFFFFFFFFFFFFFFFFFFFFFFFFFFFFFFF MUL NOT AND SWAP1 DUP4 PUSH20 0xFFFFFFFFFFFFFFFFFFFFFFFFFFFFFFFFFFFFFFFF AND MUL OR SWAP1 SSTORE POP JUMPDEST PUSH1 0x0 DUP1 SLOAD SWAP1 PUSH2 0x100 EXP SWAP1 DIV PUSH20 0xFFFFFFFFFFFFFFFFFFFFFFFFFFFFFFFFFFFFFFFF AND PUSH20 0xFFFFFFFFFFFFFFFFFFFFFFFFFFFFFFFFFFFFFFFF AND PUSH4 0x524F3889 DUP4 PUSH1 0x40 MLOAD DUP3 PUSH4 0xFFFFFFFF AND PUSH1 0xE0 SHL DUP2 MSTORE PUSH1 0x4 ADD PUSH2 0x1592 SWAP2 SWAP1 PUSH2 0x2548 JUMP JUMPDEST PUSH1 0x20 PUSH1 0x40 MLOAD DUP1 DUP4 SUB DUP2 PUSH1 0x0 DUP8 GAS CALL ISZERO DUP1 ISZERO PUSH2 0x15B1 JUMPI RETURNDATASIZE PUSH1 0x0 DUP1 RETURNDATACOPY RETURNDATASIZE PUSH1 0x0 REVERT JUMPDEST POP POP POP POP PUSH1 0x40 MLOAD RETURNDATASIZE PUSH1 0x1F NOT PUSH1 0x1F DUP3 ADD AND DUP3 ADD DUP1 PUSH1 0x40 MSTORE POP DUP2 ADD SWAP1 PUSH2 0x15D5 SWAP2 SWAP1 PUSH2 0x328C JUMP JUMPDEST SWAP1 POP SWAP2 SWAP1 POP JUMP JUMPDEST PUSH1 0x0 DUP1 PUSH20 0xFFFFFFFFFFFFFFFFFFFFFFFFFFFFFFFFFFFFFFFF AND PUSH1 0x1 PUSH1 0x0 SWAP1 SLOAD SWAP1 PUSH2 0x100 EXP SWAP1 DIV PUSH20 0xFFFFFFFFFFFFFFFFFFFFFFFFFFFFFFFFFFFFFFFF AND PUSH20 0xFFFFFFFFFFFFFFFFFFFFFFFFFFFFFFFFFFFFFFFF AND EQ DUP1 PUSH2 0x1664 JUMPI POP PUSH1 0x0 PUSH2 0x1662 PUSH1 0x1 PUSH1 0x0 SWAP1 SLOAD SWAP1 PUSH2 0x100 EXP SWAP1 DIV PUSH20 0xFFFFFFFFFFFFFFFFFFFFFFFFFFFFFFFFFFFFFFFF AND PUSH2 0x19AF JUMP JUMPDEST EQ JUMPDEST ISZERO PUSH2 0x1675 JUMPI PUSH2 0x1673 PUSH1 0x0 PUSH2 0x19BA JUMP JUMPDEST POP JUMPDEST PUSH1 0x1 PUSH1 0x0 SWAP1 SLOAD SWAP1 PUSH2 0x100 EXP SWAP1 DIV PUSH20 0xFFFFFFFFFFFFFFFFFFFFFFFFFFFFFFFFFFFFFFFF AND PUSH20 0xFFFFFFFFFFFFFFFFFFFFFFFFFFFFFFFFFFFFFFFF AND PUSH4 0x38CC4831 PUSH1 0x40 MLOAD DUP2 PUSH4 0xFFFFFFFF AND PUSH1 0xE0 SHL DUP2 MSTORE PUSH1 0x4 ADD PUSH1 0x20 PUSH1 0x40 MLOAD DUP1 DUP4 SUB DUP2 PUSH1 0x0 DUP8 GAS CALL ISZERO DUP1 ISZERO PUSH2 0x16E4 JUMPI RETURNDATASIZE PUSH1 0x0 DUP1 RETURNDATACOPY RETURNDATASIZE PUSH1 0x0 REVERT JUMPDEST POP POP POP POP PUSH1 0x40 MLOAD RETURNDATASIZE PUSH1 0x1F NOT PUSH1 0x1F DUP3 ADD AND DUP3 ADD DUP1 PUSH1 0x40 MSTORE POP DUP2 ADD SWAP1 PUSH2 0x1708 SWAP2 SWAP1 PUSH2 0x324A JUMP JUMPDEST PUSH20 0xFFFFFFFFFFFFFFFFFFFFFFFFFFFFFFFFFFFFFFFF AND PUSH1 0x0 DUP1 SLOAD SWAP1 PUSH2 0x100 EXP SWAP1 DIV PUSH20 0xFFFFFFFFFFFFFFFFFFFFFFFFFFFFFFFFFFFFFFFF AND PUSH20 0xFFFFFFFFFFFFFFFFFFFFFFFFFFFFFFFFFFFFFFFF AND EQ PUSH2 0x182D JUMPI PUSH1 0x1 PUSH1 0x0 SWAP1 SLOAD SWAP1 PUSH2 0x100 EXP SWAP1 DIV PUSH20 0xFFFFFFFFFFFFFFFFFFFFFFFFFFFFFFFFFFFFFFFF AND PUSH20 0xFFFFFFFFFFFFFFFFFFFFFFFFFFFFFFFFFFFFFFFF AND PUSH4 0x38CC4831 PUSH1 0x40 MLOAD DUP2 PUSH4 0xFFFFFFFF AND PUSH1 0xE0 SHL DUP2 MSTORE PUSH1 0x4 ADD PUSH1 0x20 PUSH1 0x40 MLOAD DUP1 DUP4 SUB DUP2 PUSH1 0x0 DUP8 GAS CALL ISZERO DUP1 ISZERO PUSH2 0x17C9 JUMPI RETURNDATASIZE PUSH1 0x0 DUP1 RETURNDATACOPY RETURNDATASIZE PUSH1 0x0 REVERT JUMPDEST POP POP POP POP PUSH1 0x40 MLOAD RETURNDATASIZE PUSH1 0x1F NOT PUSH1 0x1F DUP3 ADD AND DUP3 ADD DUP1 PUSH1 0x40 MSTORE POP DUP2 ADD SWAP1 PUSH2 0x17ED SWAP2 SWAP1 PUSH2 0x324A JUMP JUMPDEST PUSH1 0x0 DUP1 PUSH2 0x100 EXP DUP2 SLOAD DUP2 PUSH20 0xFFFFFFFFFFFFFFFFFFFFFFFFFFFFFFFFFFFFFFFF MUL NOT AND SWAP1 DUP4 PUSH20 0xFFFFFFFFFFFFFFFFFFFFFFFFFFFFFFFFFFFFFFFF AND MUL OR SWAP1 SSTORE POP JUMPDEST PUSH1 0x0 DUP1 PUSH1 0x0 SWAP1 SLOAD SWAP1 PUSH2 0x100 EXP SWAP1 DIV PUSH20 0xFFFFFFFFFFFFFFFFFFFFFFFFFFFFFFFFFFFFFFFF AND PUSH20 0xFFFFFFFFFFFFFFFFFFFFFFFFFFFFFFFFFFFFFFFF AND PUSH4 0x524F3889 DUP6 PUSH1 0x40 MLOAD DUP3 PUSH4 0xFFFFFFFF AND PUSH1 0xE0 SHL DUP2 MSTORE PUSH1 0x4 ADD PUSH2 0x1889 SWAP2 SWAP1 PUSH2 0x2548 JUMP JUMPDEST PUSH1 0x20 PUSH1 0x40 MLOAD DUP1 DUP4 SUB DUP2 PUSH1 0x0 DUP8 GAS CALL ISZERO DUP1 ISZERO PUSH2 0x18A8 JUMPI RETURNDATASIZE PUSH1 0x0 DUP1 RETURNDATACOPY RETURNDATASIZE PUSH1 0x0 REVERT JUMPDEST POP POP POP POP PUSH1 0x40 MLOAD RETURNDATASIZE PUSH1 0x1F NOT PUSH1 0x1F DUP3 ADD AND DUP3 ADD DUP1 PUSH1 0x40 MSTORE POP DUP2 ADD SWAP1 PUSH2 0x18CC SWAP2 SWAP1 PUSH2 0x328C JUMP JUMPDEST SWAP1 POP PUSH3 0x30D40 GASPRICE PUSH2 0x18DD SWAP2 SWAP1 PUSH2 0x30F5 JUMP JUMPDEST PUSH8 0xDE0B6B3A7640000 PUSH2 0x18F0 SWAP2 SWAP1 PUSH2 0x32B9 JUMP JUMPDEST DUP2 GT ISZERO PUSH2 0x1903 JUMPI PUSH1 0x0 DUP1 SHL SWAP2 POP POP PUSH2 0x19A9 JUMP JUMPDEST PUSH1 0x0 DUP1 SLOAD SWAP1 PUSH2 0x100 EXP SWAP1 DIV PUSH20 0xFFFFFFFFFFFFFFFFFFFFFFFFFFFFFFFFFFFFFFFF AND PUSH20 0xFFFFFFFFFFFFFFFFFFFFFFFFFFFFFFFFFFFFFFFF AND PUSH4 0xADF59F99 DUP3 PUSH1 0x0 DUP8 DUP8 PUSH1 0x40 MLOAD DUP6 PUSH4 0xFFFFFFFF AND PUSH1 0xE0 SHL DUP2 MSTORE PUSH1 0x4 ADD PUSH2 0x1962 SWAP4 SWAP3 SWAP2 SWAP1 PUSH2 0x3328 JUMP JUMPDEST PUSH1 0x20 PUSH1 0x40 MLOAD DUP1 DUP4 SUB DUP2 DUP6 DUP9 GAS CALL ISZERO DUP1 ISZERO PUSH2 0x1980 JUMPI RETURNDATASIZE PUSH1 0x0 DUP1 RETURNDATACOPY RETURNDATASIZE PUSH1 0x0 REVERT JUMPDEST POP POP POP POP POP PUSH1 0x40 MLOAD RETURNDATASIZE PUSH1 0x1F NOT PUSH1 0x1F DUP3 ADD AND DUP3 ADD DUP1 PUSH1 0x40 MSTORE POP DUP2 ADD SWAP1 PUSH2 0x19A5 SWAP2 SWAP1 PUSH2 0x3382 JUMP JUMPDEST SWAP2 POP POP JUMPDEST SWAP3 SWAP2 POP POP JUMP JUMPDEST PUSH1 0x0 DUP2 EXTCODESIZE SWAP1 POP SWAP2 SWAP1 POP JUMP JUMPDEST PUSH1 0x0 PUSH2 0x19C4 PUSH2 0x19CB JUMP JUMPDEST SWAP1 POP SWAP2 SWAP1 POP JUMP JUMPDEST PUSH1 0x0 DUP1 PUSH2 0x19EB PUSH20 0x1D3B2638A7CC9F2CB3D298A3DA7A90B67E5506ED PUSH2 0x19AF JUMP JUMPDEST GT ISZERO PUSH2 0x1A8D JUMPI PUSH20 0x1D3B2638A7CC9F2CB3D298A3DA7A90B67E5506ED PUSH1 0x1 PUSH1 0x0 PUSH2 0x100 EXP DUP2 SLOAD DUP2 PUSH20 0xFFFFFFFFFFFFFFFFFFFFFFFFFFFFFFFFFFFFFFFF MUL NOT AND SWAP1 DUP4 PUSH20 0xFFFFFFFFFFFFFFFFFFFFFFFFFFFFFFFFFFFFFFFF AND MUL OR SWAP1 SSTORE POP PUSH2 0x1A84 PUSH1 0x40 MLOAD DUP1 PUSH1 0x40 ADD PUSH1 0x40 MSTORE DUP1 PUSH1 0xB DUP2 MSTORE PUSH1 0x20 ADD PUSH32 0x6574685F6D61696E6E6574000000000000000000000000000000000000000000 DUP2 MSTORE POP PUSH2 0x2165 JUMP JUMPDEST PUSH1 0x1 SWAP1 POP PUSH2 0x2162 JUMP JUMPDEST PUSH1 0x0 PUSH2 0x1AAC PUSH20 0xC03A2615D5EFAF5F49F60B7BB6583EAEC212FDF1 PUSH2 0x19AF JUMP JUMPDEST GT ISZERO PUSH2 0x1B4E JUMPI PUSH20 0xC03A2615D5EFAF5F49F60B7BB6583EAEC212FDF1 PUSH1 0x1 PUSH1 0x0 PUSH2 0x100 EXP DUP2 SLOAD DUP2 PUSH20 0xFFFFFFFFFFFFFFFFFFFFFFFFFFFFFFFFFFFFFFFF MUL NOT AND SWAP1 DUP4 PUSH20 0xFFFFFFFFFFFFFFFFFFFFFFFFFFFFFFFFFFFFFFFF AND MUL OR SWAP1 SSTORE POP PUSH2 0x1B45 PUSH1 0x40 MLOAD DUP1 PUSH1 0x40 ADD PUSH1 0x40 MSTORE DUP1 PUSH1 0xC DUP2 MSTORE PUSH1 0x20 ADD PUSH32 0x6574685F726F707374656E330000000000000000000000000000000000000000 DUP2 MSTORE POP PUSH2 0x2165 JUMP JUMPDEST PUSH1 0x1 SWAP1 POP PUSH2 0x2162 JUMP JUMPDEST PUSH1 0x0 PUSH2 0x1B6D PUSH20 0xB7A07BCF2BA2F2703B24C0691B5278999C59AC7E PUSH2 0x19AF JUMP JUMPDEST GT ISZERO PUSH2 0x1C0F JUMPI PUSH20 0xB7A07BCF2BA2F2703B24C0691B5278999C59AC7E PUSH1 0x1 PUSH1 0x0 PUSH2 0x100 EXP DUP2 SLOAD DUP2 PUSH20 0xFFFFFFFFFFFFFFFFFFFFFFFFFFFFFFFFFFFFFFFF MUL NOT AND SWAP1 DUP4 PUSH20 0xFFFFFFFFFFFFFFFFFFFFFFFFFFFFFFFFFFFFFFFF AND MUL OR SWAP1 SSTORE POP PUSH2 0x1C06 PUSH1 0x40 MLOAD DUP1 PUSH1 0x40 ADD PUSH1 0x40 MSTORE DUP1 PUSH1 0x9 DUP2 MSTORE PUSH1 0x20 ADD PUSH32 0x6574685F6B6F76616E0000000000000000000000000000000000000000000000 DUP2 MSTORE POP PUSH2 0x2165 JUMP JUMPDEST PUSH1 0x1 SWAP1 POP PUSH2 0x2162 JUMP JUMPDEST PUSH1 0x0 PUSH2 0x1C2E PUSH20 0x146500CFD35B22E4A392FE0ADC06DE1A1368ED48 PUSH2 0x19AF JUMP JUMPDEST GT ISZERO PUSH2 0x1CD0 JUMPI PUSH20 0x146500CFD35B22E4A392FE0ADC06DE1A1368ED48 PUSH1 0x1 PUSH1 0x0 PUSH2 0x100 EXP DUP2 SLOAD DUP2 PUSH20 0xFFFFFFFFFFFFFFFFFFFFFFFFFFFFFFFFFFFFFFFF MUL NOT AND SWAP1 DUP4 PUSH20 0xFFFFFFFFFFFFFFFFFFFFFFFFFFFFFFFFFFFFFFFF AND MUL OR SWAP1 SSTORE POP PUSH2 0x1CC7 PUSH1 0x40 MLOAD DUP1 PUSH1 0x40 ADD PUSH1 0x40 MSTORE DUP1 PUSH1 0xB DUP2 MSTORE PUSH1 0x20 ADD PUSH32 0x6574685F72696E6B656279000000000000000000000000000000000000000000 DUP2 MSTORE POP PUSH2 0x2165 JUMP JUMPDEST PUSH1 0x1 SWAP1 POP PUSH2 0x2162 JUMP JUMPDEST PUSH1 0x0 PUSH2 0x1CEF PUSH20 0xA2998EFD205FB9D4B4963AFB70778D6354AD3A41 PUSH2 0x19AF JUMP JUMPDEST GT ISZERO PUSH2 0x1D91 JUMPI PUSH20 0xA2998EFD205FB9D4B4963AFB70778D6354AD3A41 PUSH1 0x1 PUSH1 0x0 PUSH2 0x100 EXP DUP2 SLOAD DUP2 PUSH20 0xFFFFFFFFFFFFFFFFFFFFFFFFFFFFFFFFFFFFFFFF MUL NOT AND SWAP1 DUP4 PUSH20 0xFFFFFFFFFFFFFFFFFFFFFFFFFFFFFFFFFFFFFFFF AND MUL OR SWAP1 SSTORE POP PUSH2 0x1D88 PUSH1 0x40 MLOAD DUP1 PUSH1 0x40 ADD PUSH1 0x40 MSTORE DUP1 PUSH1 0xA DUP2 MSTORE PUSH1 0x20 ADD PUSH32 0x6574685F676F65726C6900000000000000000000000000000000000000000000 DUP2 MSTORE POP PUSH2 0x2165 JUMP JUMPDEST PUSH1 0x1 SWAP1 POP PUSH2 0x2162 JUMP JUMPDEST PUSH1 0x0 PUSH2 0x1DB0 PUSH20 0x90A0F94702C9630036FB9846B52BF31A1C991A84 PUSH2 0x19AF JUMP JUMPDEST GT ISZERO PUSH2 0x1E52 JUMPI PUSH20 0x90A0F94702C9630036FB9846B52BF31A1C991A84 PUSH1 0x1 PUSH1 0x0 PUSH2 0x100 EXP DUP2 SLOAD DUP2 PUSH20 0xFFFFFFFFFFFFFFFFFFFFFFFFFFFFFFFFFFFFFFFF MUL NOT AND SWAP1 DUP4 PUSH20 0xFFFFFFFFFFFFFFFFFFFFFFFFFFFFFFFFFFFFFFFF AND MUL OR SWAP1 SSTORE POP PUSH2 0x1E49 PUSH1 0x40 MLOAD DUP1 PUSH1 0x40 ADD PUSH1 0x40 MSTORE DUP1 PUSH1 0xB DUP2 MSTORE PUSH1 0x20 ADD PUSH32 0x6273635F6D61696E6E6574000000000000000000000000000000000000000000 DUP2 MSTORE POP PUSH2 0x2165 JUMP JUMPDEST PUSH1 0x1 SWAP1 POP PUSH2 0x2162 JUMP JUMPDEST PUSH1 0x0 PUSH2 0x1E71 PUSH20 0x816EC2AF1B56183F82F8C05759E99FEC3C3DE609 PUSH2 0x19AF JUMP JUMPDEST GT ISZERO PUSH2 0x1F13 JUMPI PUSH20 0x816EC2AF1B56183F82F8C05759E99FEC3C3DE609 PUSH1 0x1 PUSH1 0x0 PUSH2 0x100 EXP DUP2 SLOAD DUP2 PUSH20 0xFFFFFFFFFFFFFFFFFFFFFFFFFFFFFFFFFFFFFFFF MUL NOT AND SWAP1 DUP4 PUSH20 0xFFFFFFFFFFFFFFFFFFFFFFFFFFFFFFFFFFFFFFFF AND MUL OR SWAP1 SSTORE POP PUSH2 0x1F0A PUSH1 0x40 MLOAD DUP1 PUSH1 0x40 ADD PUSH1 0x40 MSTORE DUP1 PUSH1 0xF DUP2 MSTORE PUSH1 0x20 ADD PUSH32 0x706F6C79676F6E5F6D61696E6E65740000000000000000000000000000000000 DUP2 MSTORE POP PUSH2 0x2165 JUMP JUMPDEST PUSH1 0x1 SWAP1 POP PUSH2 0x2162 JUMP JUMPDEST PUSH1 0x0 PUSH2 0x1F32 PUSH20 0x14B31A1C66A9F3D18DFAC2D123FE8CE5847B7F85 PUSH2 0x19AF JUMP JUMPDEST GT ISZERO PUSH2 0x1FD4 JUMPI PUSH20 0x14B31A1C66A9F3D18DFAC2D123FE8CE5847B7F85 PUSH1 0x1 PUSH1 0x0 PUSH2 0x100 EXP DUP2 SLOAD DUP2 PUSH20 0xFFFFFFFFFFFFFFFFFFFFFFFFFFFFFFFFFFFFFFFF MUL NOT AND SWAP1 DUP4 PUSH20 0xFFFFFFFFFFFFFFFFFFFFFFFFFFFFFFFFFFFFFFFF AND MUL OR SWAP1 SSTORE POP PUSH2 0x1FCB PUSH1 0x40 MLOAD DUP1 PUSH1 0x40 ADD PUSH1 0x40 MSTORE DUP1 PUSH1 0xF DUP2 MSTORE PUSH1 0x20 ADD PUSH32 0x7365706F6C69615F6D61696E6E65740000000000000000000000000000000000 DUP2 MSTORE POP PUSH2 0x2165 JUMP JUMPDEST PUSH1 0x1 SWAP1 POP PUSH2 0x2162 JUMP JUMPDEST PUSH1 0x0 PUSH2 0x1FF3 PUSH20 0x6F485C8BF6FC43EA212E93BBF8CE046C7F1CB475 PUSH2 0x19AF JUMP JUMPDEST GT ISZERO PUSH2 0x2057 JUMPI PUSH20 0x6F485C8BF6FC43EA212E93BBF8CE046C7F1CB475 PUSH1 0x1 PUSH1 0x0 PUSH2 0x100 EXP DUP2 SLOAD DUP2 PUSH20 0xFFFFFFFFFFFFFFFFFFFFFFFFFFFFFFFFFFFFFFFF MUL NOT AND SWAP1 DUP4 PUSH20 0xFFFFFFFFFFFFFFFFFFFFFFFFFFFFFFFFFFFFFFFF AND MUL OR SWAP1 SSTORE POP PUSH1 0x1 SWAP1 POP PUSH2 0x2162 JUMP JUMPDEST PUSH1 0x0 PUSH2 0x2076 PUSH20 0x20E12A1F859B3FEAE5FB2A0A32C18F5A65555BBF PUSH2 0x19AF JUMP JUMPDEST GT ISZERO PUSH2 0x20DA JUMPI PUSH20 0x20E12A1F859B3FEAE5FB2A0A32C18F5A65555BBF PUSH1 0x1 PUSH1 0x0 PUSH2 0x100 EXP DUP2 SLOAD DUP2 PUSH20 0xFFFFFFFFFFFFFFFFFFFFFFFFFFFFFFFFFFFFFFFF MUL NOT AND SWAP1 DUP4 PUSH20 0xFFFFFFFFFFFFFFFFFFFFFFFFFFFFFFFFFFFFFFFF AND MUL OR SWAP1 SSTORE POP PUSH1 0x1 SWAP1 POP PUSH2 0x2162 JUMP JUMPDEST PUSH1 0x0 PUSH2 0x20F9 PUSH20 0x51EFAF4C8B3C9AFBD5AB9F4BBC82784AB6EF8FAA PUSH2 0x19AF JUMP JUMPDEST GT ISZERO PUSH2 0x215D JUMPI PUSH20 0x51EFAF4C8B3C9AFBD5AB9F4BBC82784AB6EF8FAA PUSH1 0x1 PUSH1 0x0 PUSH2 0x100 EXP DUP2 SLOAD DUP2 PUSH20 0xFFFFFFFFFFFFFFFFFFFFFFFFFFFFFFFFFFFFFFFF MUL NOT AND SWAP1 DUP4 PUSH20 0xFFFFFFFFFFFFFFFFFFFFFFFFFFFFFFFFFFFFFFFF AND MUL OR SWAP1 SSTORE POP PUSH1 0x1 SWAP1 POP PUSH2 0x2162 JUMP JUMPDEST PUSH1 0x0 SWAP1 POP JUMPDEST SWAP1 JUMP JUMPDEST DUP1 PUSH1 0x2 SWAP1 DUP2 PUSH2 0x2174 SWAP2 SWAP1 PUSH2 0x2DBC JUMP JUMPDEST POP POP JUMP JUMPDEST PUSH1 0x0 PUSH1 0x40 MLOAD SWAP1 POP SWAP1 JUMP JUMPDEST PUSH1 0x0 DUP1 REVERT JUMPDEST PUSH1 0x0 DUP1 REVERT JUMPDEST PUSH1 0x0 PUSH20 0xFFFFFFFFFFFFFFFFFFFFFFFFFFFFFFFFFFFFFFFF DUP3 AND SWAP1 POP SWAP2 SWAP1 POP JUMP JUMPDEST PUSH1 0x0 PUSH2 0x21B7 DUP3 PUSH2 0x218C JUMP JUMPDEST SWAP1 POP SWAP2 SWAP1 POP JUMP JUMPDEST PUSH2 0x21C7 DUP2 PUSH2 0x21AC JUMP JUMPDEST DUP2 EQ PUSH2 0x21D2 JUMPI PUSH1 0x0 DUP1 REVERT JUMPDEST POP JUMP JUMPDEST PUSH1 0x0 DUP2 CALLDATALOAD SWAP1 POP PUSH2 0x21E4 DUP2 PUSH2 0x21BE JUMP JUMPDEST SWAP3 SWAP2 POP POP JUMP JUMPDEST PUSH1 0x0 DUP2 SWAP1 POP SWAP2 SWAP1 POP JUMP JUMPDEST PUSH2 0x21FD DUP2 PUSH2 0x21EA JUMP JUMPDEST DUP2 EQ PUSH2 0x2208 JUMPI PUSH1 0x0 DUP1 REVERT JUMPDEST POP JUMP JUMPDEST PUSH1 0x0 DUP2 CALLDATALOAD SWAP1 POP PUSH2 0x221A DUP2 PUSH2 0x21F4 JUMP JUMPDEST SWAP3 SWAP2 POP POP JUMP JUMPDEST PUSH1 0x0 DUP1 PUSH1 0x0 DUP1 PUSH1 0x80 DUP6 DUP8 SUB SLT ISZERO PUSH2 0x223A JUMPI PUSH2 0x2239 PUSH2 0x2182 JUMP JUMPDEST JUMPDEST PUSH1 0x0 PUSH2 0x2248 DUP8 DUP3 DUP9 ADD PUSH2 0x21D5 JUMP JUMPDEST SWAP5 POP POP PUSH1 0x20 PUSH2 0x2259 DUP8 DUP3 DUP9 ADD PUSH2 0x21D5 JUMP JUMPDEST SWAP4 POP POP PUSH1 0x40 PUSH2 0x226A DUP8 DUP3 DUP9 ADD PUSH2 0x220B JUMP JUMPDEST SWAP3 POP POP PUSH1 0x60 PUSH2 0x227B DUP8 DUP3 DUP9 ADD PUSH2 0x220B JUMP JUMPDEST SWAP2 POP POP SWAP3 SWAP6 SWAP2 SWAP5 POP SWAP3 POP JUMP JUMPDEST PUSH1 0x0 DUP2 SWAP1 POP SWAP2 SWAP1 POP JUMP JUMPDEST PUSH2 0x229A DUP2 PUSH2 0x2287 JUMP JUMPDEST DUP3 MSTORE POP POP JUMP JUMPDEST PUSH1 0x0 PUSH1 0x20 DUP3 ADD SWAP1 POP PUSH2 0x22B5 PUSH1 0x0 DUP4 ADD DUP5 PUSH2 0x2291 JUMP JUMPDEST SWAP3 SWAP2 POP POP JUMP JUMPDEST PUSH1 0x0 DUP1 PUSH1 0x40 DUP4 DUP6 SUB SLT ISZERO PUSH2 0x22D2 JUMPI PUSH2 0x22D1 PUSH2 0x2182 JUMP JUMPDEST JUMPDEST PUSH1 0x0 PUSH2 0x22E0 DUP6 DUP3 DUP7 ADD PUSH2 0x21D5 JUMP JUMPDEST SWAP3 POP POP PUSH1 0x20 PUSH2 0x22F1 DUP6 DUP3 DUP7 ADD PUSH2 0x220B JUMP JUMPDEST SWAP2 POP POP SWAP3 POP SWAP3 SWAP1 POP JUMP JUMPDEST PUSH2 0x2304 DUP2 PUSH2 0x2287 JUMP JUMPDEST DUP2 EQ PUSH2 0x230F JUMPI PUSH1 0x0 DUP1 REVERT JUMPDEST POP JUMP JUMPDEST PUSH1 0x0 DUP2 CALLDATALOAD SWAP1 POP PUSH2 0x2321 DUP2 PUSH2 0x22FB JUMP JUMPDEST SWAP3 SWAP2 POP POP JUMP JUMPDEST PUSH1 0x0 DUP1 REVERT JUMPDEST PUSH1 0x0 DUP1 REVERT JUMPDEST PUSH1 0x0 PUSH1 0x1F NOT PUSH1 0x1F DUP4 ADD AND SWAP1 POP SWAP2 SWAP1 POP JUMP JUMPDEST PUSH32 0x4E487B7100000000000000000000000000000000000000000000000000000000 PUSH1 0x0 MSTORE PUSH1 0x41 PUSH1 0x4 MSTORE PUSH1 0x24 PUSH1 0x0 REVERT JUMPDEST PUSH2 0x237A DUP3 PUSH2 0x2331 JUMP JUMPDEST DUP2 ADD DUP2 DUP2 LT PUSH8 0xFFFFFFFFFFFFFFFF DUP3 GT OR ISZERO PUSH2 0x2399 JUMPI PUSH2 0x2398 PUSH2 0x2342 JUMP JUMPDEST JUMPDEST DUP1 PUSH1 0x40 MSTORE POP POP POP JUMP JUMPDEST PUSH1 0x0 PUSH2 0x23AC PUSH2 0x2178 JUMP JUMPDEST SWAP1 POP PUSH2 0x23B8 DUP3 DUP3 PUSH2 0x2371 JUMP JUMPDEST SWAP2 SWAP1 POP JUMP JUMPDEST PUSH1 0x0 PUSH8 0xFFFFFFFFFFFFFFFF DUP3 GT ISZERO PUSH2 0x23D8 JUMPI PUSH2 0x23D7 PUSH2 0x2342 JUMP JUMPDEST JUMPDEST PUSH2 0x23E1 DUP3 PUSH2 0x2331 JUMP JUMPDEST SWAP1 POP PUSH1 0x20 DUP2 ADD SWAP1 POP SWAP2 SWAP1 POP JUMP JUMPDEST DUP3 DUP2 DUP4 CALLDATACOPY PUSH1 0x0 DUP4 DUP4 ADD MSTORE POP POP POP JUMP JUMPDEST PUSH1 0x0 PUSH2 0x2410 PUSH2 0x240B DUP5 PUSH2 0x23BD JUMP JUMPDEST PUSH2 0x23A2 JUMP JUMPDEST SWAP1 POP DUP3 DUP2 MSTORE PUSH1 0x20 DUP2 ADD DUP5 DUP5 DUP5 ADD GT ISZERO PUSH2 0x242C JUMPI PUSH2 0x242B PUSH2 0x232C JUMP JUMPDEST JUMPDEST PUSH2 0x2437 DUP5 DUP3 DUP6 PUSH2 0x23EE JUMP JUMPDEST POP SWAP4 SWAP3 POP POP POP JUMP JUMPDEST PUSH1 0x0 DUP3 PUSH1 0x1F DUP4 ADD SLT PUSH2 0x2454 JUMPI PUSH2 0x2453 PUSH2 0x2327 JUMP JUMPDEST JUMPDEST DUP2 CALLDATALOAD PUSH2 0x2464 DUP5 DUP3 PUSH1 0x20 DUP7 ADD PUSH2 0x23FD JUMP JUMPDEST SWAP2 POP POP SWAP3 SWAP2 POP POP JUMP JUMPDEST PUSH1 0x0 DUP1 PUSH1 0x40 DUP4 DUP6 SUB SLT ISZERO PUSH2 0x2484 JUMPI PUSH2 0x2483 PUSH2 0x2182 JUMP JUMPDEST JUMPDEST PUSH1 0x0 PUSH2 0x2492 DUP6 DUP3 DUP7 ADD PUSH2 0x2312 JUMP JUMPDEST SWAP3 POP POP PUSH1 0x20 DUP4 ADD CALLDATALOAD PUSH8 0xFFFFFFFFFFFFFFFF DUP2 GT ISZERO PUSH2 0x24B3 JUMPI PUSH2 0x24B2 PUSH2 0x2187 JUMP JUMPDEST JUMPDEST PUSH2 0x24BF DUP6 DUP3 DUP7 ADD PUSH2 0x243F JUMP JUMPDEST SWAP2 POP POP SWAP3 POP SWAP3 SWAP1 POP JUMP JUMPDEST PUSH1 0x0 DUP2 MLOAD SWAP1 POP SWAP2 SWAP1 POP JUMP JUMPDEST PUSH1 0x0 DUP3 DUP3 MSTORE PUSH1 0x20 DUP3 ADD SWAP1 POP SWAP3 SWAP2 POP POP JUMP JUMPDEST PUSH1 0x0 JUMPDEST DUP4 DUP2 LT ISZERO PUSH2 0x2503 JUMPI DUP1 DUP3 ADD MLOAD DUP2 DUP5 ADD MSTORE PUSH1 0x20 DUP2 ADD SWAP1 POP PUSH2 0x24E8 JUMP JUMPDEST PUSH1 0x0 DUP5 DUP5 ADD MSTORE POP POP POP POP JUMP JUMPDEST PUSH1 0x0 PUSH2 0x251A DUP3 PUSH2 0x24C9 JUMP JUMPDEST PUSH2 0x2524 DUP2 DUP6 PUSH2 0x24D4 JUMP JUMPDEST SWAP4 POP PUSH2 0x2534 DUP2 DUP6 PUSH1 0x20 DUP7 ADD PUSH2 0x24E5 JUMP JUMPDEST PUSH2 0x253D DUP2 PUSH2 0x2331 JUMP JUMPDEST DUP5 ADD SWAP2 POP POP SWAP3 SWAP2 POP POP JUMP JUMPDEST PUSH1 0x0 PUSH1 0x20 DUP3 ADD SWAP1 POP DUP2 DUP2 SUB PUSH1 0x0 DUP4 ADD MSTORE PUSH2 0x2562 DUP2 DUP5 PUSH2 0x250F JUMP JUMPDEST SWAP1 POP SWAP3 SWAP2 POP POP JUMP JUMPDEST PUSH1 0x0 PUSH8 0xFFFFFFFFFFFFFFFF DUP3 GT ISZERO PUSH2 0x2585 JUMPI PUSH2 0x2584 PUSH2 0x2342 JUMP JUMPDEST JUMPDEST PUSH2 0x258E DUP3 PUSH2 0x2331 JUMP JUMPDEST SWAP1 POP PUSH1 0x20 DUP2 ADD SWAP1 POP SWAP2 SWAP1 POP JUMP JUMPDEST PUSH1 0x0 PUSH2 0x25AE PUSH2 0x25A9 DUP5 PUSH2 0x256A JUMP JUMPDEST PUSH2 0x23A2 JUMP JUMPDEST SWAP1 POP DUP3 DUP2 MSTORE PUSH1 0x20 DUP2 ADD DUP5 DUP5 DUP5 ADD GT ISZERO PUSH2 0x25CA JUMPI PUSH2 0x25C9 PUSH2 0x232C JUMP JUMPDEST JUMPDEST PUSH2 0x25D5 DUP5 DUP3 DUP6 PUSH2 0x23EE JUMP JUMPDEST POP SWAP4 SWAP3 POP POP POP JUMP JUMPDEST PUSH1 0x0 DUP3 PUSH1 0x1F DUP4 ADD SLT PUSH2 0x25F2 JUMPI PUSH2 0x25F1 PUSH2 0x2327 JUMP JUMPDEST JUMPDEST DUP2 CALLDATALOAD PUSH2 0x2602 DUP5 DUP3 PUSH1 0x20 DUP7 ADD PUSH2 0x259B JUMP JUMPDEST SWAP2 POP POP SWAP3 SWAP2 POP POP JUMP JUMPDEST PUSH1 0x0 DUP1 PUSH1 0x40 DUP4 DUP6 SUB SLT ISZERO PUSH2 0x2622 JUMPI PUSH2 0x2621 PUSH2 0x2182 JUMP JUMPDEST JUMPDEST PUSH1 0x0 PUSH2 0x2630 DUP6 DUP3 DUP7 ADD PUSH2 0x2312 JUMP JUMPDEST SWAP3 POP POP PUSH1 0x20 DUP4 ADD CALLDATALOAD PUSH8 0xFFFFFFFFFFFFFFFF DUP2 GT ISZERO PUSH2 0x2651 JUMPI PUSH2 0x2650 PUSH2 0x2187 JUMP JUMPDEST JUMPDEST PUSH2 0x265D DUP6 DUP3 DUP7 ADD PUSH2 0x25DD JUMP JUMPDEST SWAP2 POP POP SWAP3 POP SWAP3 SWAP1 POP JUMP JUMPDEST PUSH2 0x2670 DUP2 PUSH2 0x21AC JUMP JUMPDEST DUP3 MSTORE POP POP JUMP JUMPDEST PUSH1 0x0 PUSH1 0x20 DUP3 ADD SWAP1 POP PUSH2 0x268B PUSH1 0x0 DUP4 ADD DUP5 PUSH2 0x2667 JUMP JUMPDEST SWAP3 SWAP2 POP POP JUMP JUMPDEST PUSH1 0x0 PUSH1 0x20 DUP3 DUP5 SUB SLT ISZERO PUSH2 0x26A7 JUMPI PUSH2 0x26A6 PUSH2 0x2182 JUMP JUMPDEST JUMPDEST PUSH1 0x0 DUP3 ADD CALLDATALOAD PUSH8 0xFFFFFFFFFFFFFFFF DUP2 GT ISZERO PUSH2 0x26C5 JUMPI PUSH2 0x26C4 PUSH2 0x2187 JUMP JUMPDEST JUMPDEST PUSH2 0x26D1 DUP5 DUP3 DUP6 ADD PUSH2 0x25DD JUMP JUMPDEST SWAP2 POP POP SWAP3 SWAP2 POP POP JUMP JUMPDEST PUSH1 0x0 PUSH1 0xFF DUP3 AND SWAP1 POP SWAP2 SWAP1 POP JUMP JUMPDEST PUSH2 0x26F0 DUP2 PUSH2 0x26DA JUMP JUMPDEST DUP3 MSTORE POP POP JUMP JUMPDEST PUSH1 0x0 PUSH1 0x60 DUP3 ADD SWAP1 POP PUSH2 0x270B PUSH1 0x0 DUP4 ADD DUP7 PUSH2 0x2291 JUMP JUMPDEST PUSH2 0x2718 PUSH1 0x20 DUP4 ADD DUP6 PUSH2 0x2291 JUMP JUMPDEST PUSH2 0x2725 PUSH1 0x40 DUP4 ADD DUP5 PUSH2 0x26E7 JUMP JUMPDEST SWAP5 SWAP4 POP POP POP POP JUMP JUMPDEST PUSH1 0x0 DUP1 PUSH1 0x0 DUP1 PUSH1 0x0 PUSH1 0xA0 DUP7 DUP9 SUB SLT ISZERO PUSH2 0x2749 JUMPI PUSH2 0x2748 PUSH2 0x2182 JUMP JUMPDEST JUMPDEST PUSH1 0x0 PUSH2 0x2757 DUP9 DUP3 DUP10 ADD PUSH2 0x21D5 JUMP JUMPDEST SWAP6 POP POP PUSH1 0x20 PUSH2 0x2768 DUP9 DUP3 DUP10 ADD PUSH2 0x21D5 JUMP JUMPDEST SWAP5 POP POP PUSH1 0x40 PUSH2 0x2779 DUP9 DUP3 DUP10 ADD PUSH2 0x220B JUMP JUMPDEST SWAP4 POP POP PUSH1 0x60 PUSH2 0x278A DUP9 DUP3 DUP10 ADD PUSH2 0x220B JUMP JUMPDEST SWAP3 POP POP PUSH1 0x80 DUP7 ADD CALLDATALOAD PUSH8 0xFFFFFFFFFFFFFFFF DUP2 GT ISZERO PUSH2 0x27AB JUMPI PUSH2 0x27AA PUSH2 0x2187 JUMP JUMPDEST JUMPDEST PUSH2 0x27B7 DUP9 DUP3 DUP10 ADD PUSH2 0x25DD JUMP JUMPDEST SWAP2 POP POP SWAP3 SWAP6 POP SWAP3 SWAP6 SWAP1 SWAP4 POP JUMP JUMPDEST PUSH1 0x0 DUP2 ISZERO ISZERO SWAP1 POP SWAP2 SWAP1 POP JUMP JUMPDEST PUSH2 0x27D9 DUP2 PUSH2 0x27C4 JUMP JUMPDEST DUP3 MSTORE POP POP JUMP JUMPDEST PUSH1 0x0 PUSH1 0x20 DUP3 ADD SWAP1 POP PUSH2 0x27F4 PUSH1 0x0 DUP4 ADD DUP5 PUSH2 0x27D0 JUMP JUMPDEST SWAP3 SWAP2 POP POP JUMP JUMPDEST PUSH1 0x0 DUP1 REVERT JUMPDEST PUSH1 0x0 DUP1 REVERT JUMPDEST PUSH1 0x0 DUP1 DUP4 PUSH1 0x1F DUP5 ADD SLT PUSH2 0x281A JUMPI PUSH2 0x2819 PUSH2 0x2327 JUMP JUMPDEST JUMPDEST DUP3 CALLDATALOAD SWAP1 POP PUSH8 0xFFFFFFFFFFFFFFFF DUP2 GT ISZERO PUSH2 0x2837 JUMPI PUSH2 0x2836 PUSH2 0x27FA JUMP JUMPDEST JUMPDEST PUSH1 0x20 DUP4 ADD SWAP2 POP DUP4 PUSH1 0x1 DUP3 MUL DUP4 ADD GT ISZERO PUSH2 0x2853 JUMPI PUSH2 0x2852 PUSH2 0x27FF JUMP JUMPDEST JUMPDEST SWAP3 POP SWAP3 SWAP1 POP JUMP JUMPDEST PUSH1 0x0 DUP1 PUSH1 0x0 DUP1 PUSH1 0x0 DUP1 PUSH1 0x0 PUSH1 0xC0 DUP9 DUP11 SUB SLT ISZERO PUSH2 0x2879 JUMPI PUSH2 0x2878 PUSH2 0x2182 JUMP JUMPDEST JUMPDEST PUSH1 0x0 PUSH2 0x2887 DUP11 DUP3 DUP12 ADD PUSH2 0x21D5 JUMP JUMPDEST SWAP8 POP POP PUSH1 0x20 PUSH2 0x2898 DUP11 DUP3 DUP12 ADD PUSH2 0x21D5 JUMP JUMPDEST SWAP7 POP POP PUSH1 0x40 PUSH2 0x28A9 DUP11 DUP3 DUP12 ADD PUSH2 0x220B JUMP JUMPDEST SWAP6 POP POP PUSH1 0x60 PUSH2 0x28BA DUP11 DUP3 DUP12 ADD PUSH2 0x220B JUMP JUMPDEST SWAP5 POP POP PUSH1 0x80 PUSH2 0x28CB DUP11 DUP3 DUP12 ADD PUSH2 0x220B JUMP JUMPDEST SWAP4 POP POP PUSH1 0xA0 DUP9 ADD CALLDATALOAD PUSH8 0xFFFFFFFFFFFFFFFF DUP2 GT ISZERO PUSH2 0x28EC JUMPI PUSH2 0x28EB PUSH2 0x2187 JUMP JUMPDEST JUMPDEST PUSH2 0x28F8 DUP11 DUP3 DUP12 ADD PUSH2 0x2804 JUMP JUMPDEST SWAP3 POP SWAP3 POP POP SWAP3 SWAP6 SWAP9 SWAP2 SWAP5 SWAP8 POP SWAP3 SWAP6 POP JUMP JUMPDEST PUSH1 0x0 PUSH1 0x20 DUP3 DUP5 SUB SLT ISZERO PUSH2 0x291F JUMPI PUSH2 0x291E PUSH2 0x2182 JUMP JUMPDEST JUMPDEST PUSH1 0x0 PUSH2 0x292D DUP5 DUP3 DUP6 ADD PUSH2 0x2312 JUMP JUMPDEST SWAP2 POP POP SWAP3 SWAP2 POP POP JUMP JUMPDEST PUSH1 0x0 DUP2 PUSH1 0x60 SHL SWAP1 POP SWAP2 SWAP1 POP JUMP JUMPDEST PUSH1 0x0 PUSH2 0x294E DUP3 PUSH2 0x2936 JUMP JUMPDEST SWAP1 POP SWAP2 SWAP1 POP JUMP JUMPDEST PUSH1 0x0 PUSH2 0x2960 DUP3 PUSH2 0x2943 JUMP JUMPDEST SWAP1 POP SWAP2 SWAP1 POP JUMP JUMPDEST PUSH2 0x2978 PUSH2 0x2973 DUP3 PUSH2 0x21AC JUMP JUMPDEST PUSH2 0x2955 JUMP JUMPDEST DUP3 MSTORE POP POP JUMP JUMPDEST PUSH1 0x0 DUP2 SWAP1 POP SWAP2 SWAP1 POP JUMP JUMPDEST PUSH2 0x2999 PUSH2 0x2994 DUP3 PUSH2 0x21EA JUMP JUMPDEST PUSH2 0x297E JUMP JUMPDEST DUP3 MSTORE POP POP JUMP JUMPDEST PUSH1 0x0 PUSH2 0x29AB DUP3 DUP8 PUSH2 0x2967 JUMP JUMPDEST PUSH1 0x14 DUP3 ADD SWAP2 POP PUSH2 0x29BB DUP3 DUP7 PUSH2 0x2967 JUMP JUMPDEST PUSH1 0x14 DUP3 ADD SWAP2 POP PUSH2 0x29CB DUP3 DUP6 PUSH2 0x2988 JUMP JUMPDEST PUSH1 0x20 DUP3 ADD SWAP2 POP PUSH2 0x29DB DUP3 DUP5 PUSH2 0x2988 JUMP JUMPDEST PUSH1 0x20 DUP3 ADD SWAP2 POP DUP2 SWAP1 POP SWAP6 SWAP5 POP POP POP POP POP JUMP JUMPDEST PUSH32 0x4272696467653A205472616E73616374696F6E20616C72656164792045786973 PUSH1 0x0 DUP3 ADD MSTORE PUSH32 0x7400000000000000000000000000000000000000000000000000000000000000 PUSH1 0x20 DUP3 ADD MSTORE POP JUMP JUMPDEST PUSH1 0x0 PUSH2 0x2A49 PUSH1 0x21 DUP4 PUSH2 0x24D4 JUMP JUMPDEST SWAP2 POP PUSH2 0x2A54 DUP3 PUSH2 0x29ED JUMP JUMPDEST PUSH1 0x40 DUP3 ADD SWAP1 POP SWAP2 SWAP1 POP JUMP JUMPDEST PUSH1 0x0 PUSH1 0x20 DUP3 ADD SWAP1 POP DUP2 DUP2 SUB PUSH1 0x0 DUP4 ADD MSTORE PUSH2 0x2A78 DUP2 PUSH2 0x2A3C JUMP JUMPDEST SWAP1 POP SWAP2 SWAP1 POP JUMP JUMPDEST PUSH2 0x2A88 DUP2 PUSH2 0x21EA JUMP JUMPDEST DUP3 MSTORE POP POP JUMP JUMPDEST PUSH1 0x0 PUSH1 0x40 DUP3 ADD SWAP1 POP PUSH2 0x2AA3 PUSH1 0x0 DUP4 ADD DUP6 PUSH2 0x2667 JUMP JUMPDEST PUSH2 0x2AB0 PUSH1 0x20 DUP4 ADD DUP5 PUSH2 0x2A7F JUMP JUMPDEST SWAP4 SWAP3 POP POP POP JUMP JUMPDEST PUSH32 0x4E487B7100000000000000000000000000000000000000000000000000000000 PUSH1 0x0 MSTORE PUSH1 0x21 PUSH1 0x4 MSTORE PUSH1 0x24 PUSH1 0x0 REVERT JUMPDEST PUSH1 0x0 PUSH1 0xA0 DUP3 ADD SWAP1 POP PUSH2 0x2AFB PUSH1 0x0 DUP4 ADD DUP9 PUSH2 0x2667 JUMP JUMPDEST PUSH2 0x2B08 PUSH1 0x20 DUP4 ADD DUP8 PUSH2 0x2667 JUMP JUMPDEST PUSH2 0x2B15 PUSH1 0x40 DUP4 ADD DUP7 PUSH2 0x2A7F JUMP JUMPDEST PUSH2 0x2B22 PUSH1 0x60 DUP4 ADD DUP6 PUSH2 0x2A7F JUMP JUMPDEST PUSH2 0x2B2F PUSH1 0x80 DUP4 ADD DUP5 PUSH2 0x2A7F JUMP JUMPDEST SWAP7 SWAP6 POP POP POP POP POP POP JUMP JUMPDEST PUSH32 0x4E487B7100000000000000000000000000000000000000000000000000000000 PUSH1 0x0 MSTORE PUSH1 0x11 PUSH1 0x4 MSTORE PUSH1 0x24 PUSH1 0x0 REVERT JUMPDEST PUSH1 0x0 PUSH2 0x2B73 DUP3 PUSH2 0x21EA JUMP JUMPDEST SWAP2 POP PUSH32 0xFFFFFFFFFFFFFFFFFFFFFFFFFFFFFFFFFFFFFFFFFFFFFFFFFFFFFFFFFFFFFFFF DUP3 SUB PUSH2 0x2BA5 JUMPI PUSH2 0x2BA4 PUSH2 0x2B39 JUMP JUMPDEST JUMPDEST PUSH1 0x1 DUP3 ADD SWAP1 POP SWAP2 SWAP1 POP JUMP JUMPDEST PUSH32 0x4E487B7100000000000000000000000000000000000000000000000000000000 PUSH1 0x0 MSTORE PUSH1 0x22 PUSH1 0x4 MSTORE PUSH1 0x24 PUSH1 0x0 REVERT JUMPDEST PUSH1 0x0 PUSH1 0x2 DUP3 DIV SWAP1 POP PUSH1 0x1 DUP3 AND DUP1 PUSH2 0x2BF7 JUMPI PUSH1 0x7F DUP3 AND SWAP2 POP JUMPDEST PUSH1 0x20 DUP3 LT DUP2 SUB PUSH2 0x2C0A JUMPI PUSH2 0x2C09 PUSH2 0x2BB0 JUMP JUMPDEST JUMPDEST POP SWAP2 SWAP1 POP JUMP JUMPDEST PUSH1 0x0 DUP2 SWAP1 POP DUP2 PUSH1 0x0 MSTORE PUSH1 0x20 PUSH1 0x0 KECCAK256 SWAP1 POP SWAP2 SWAP1 POP JUMP JUMPDEST PUSH1 0x0 PUSH1 0x20 PUSH1 0x1F DUP4 ADD DIV SWAP1 POP SWAP2 SWAP1 POP JUMP JUMPDEST PUSH1 0x0 DUP3 DUP3 SHL SWAP1 POP SWAP3 SWAP2 POP POP JUMP JUMPDEST PUSH1 0x0 PUSH1 0x8 DUP4 MUL PUSH2 0x2C72 PUSH32 0xFFFFFFFFFFFFFFFFFFFFFFFFFFFFFFFFFFFFFFFFFFFFFFFFFFFFFFFFFFFFFFFF DUP3 PUSH2 0x2C35 JUMP JUMPDEST PUSH2 0x2C7C DUP7 DUP4 PUSH2 0x2C35 JUMP JUMPDEST SWAP6 POP DUP1 NOT DUP5 AND SWAP4 POP DUP1 DUP7 AND DUP5 OR SWAP3 POP POP POP SWAP4 SWAP3 POP POP POP JUMP JUMPDEST PUSH1 0x0 DUP2 SWAP1 POP SWAP2 SWAP1 POP JUMP JUMPDEST PUSH1 0x0 PUSH2 0x2CB9 PUSH2 0x2CB4 PUSH2 0x2CAF DUP5 PUSH2 0x21EA JUMP JUMPDEST PUSH2 0x2C94 JUMP JUMPDEST PUSH2 0x21EA JUMP JUMPDEST SWAP1 POP SWAP2 SWAP1 POP JUMP JUMPDEST PUSH1 0x0 DUP2 SWAP1 POP SWAP2 SWAP1 POP JUMP JUMPDEST PUSH2 0x2CD3 DUP4 PUSH2 0x2C9E JUMP JUMPDEST PUSH2 0x2CE7 PUSH2 0x2CDF DUP3 PUSH2 0x2CC0 JUMP JUMPDEST DUP5 DUP5 SLOAD PUSH2 0x2C42 JUMP JUMPDEST DUP3 SSTORE POP POP POP POP JUMP JUMPDEST PUSH1 0x0 SWAP1 JUMP JUMPDEST PUSH2 0x2CFC PUSH2 0x2CEF JUMP JUMPDEST PUSH2 0x2D07 DUP2 DUP5 DUP5 PUSH2 0x2CCA JUMP JUMPDEST POP POP POP JUMP JUMPDEST JUMPDEST DUP2 DUP2 LT ISZERO PUSH2 0x2D2B JUMPI PUSH2 0x2D20 PUSH1 0x0 DUP3 PUSH2 0x2CF4 JUMP JUMPDEST PUSH1 0x1 DUP2 ADD SWAP1 POP PUSH2 0x2D0D JUMP JUMPDEST POP POP JUMP JUMPDEST PUSH1 0x1F DUP3 GT ISZERO PUSH2 0x2D70 JUMPI PUSH2 0x2D41 DUP2 PUSH2 0x2C10 JUMP JUMPDEST PUSH2 0x2D4A DUP5 PUSH2 0x2C25 JUMP JUMPDEST DUP2 ADD PUSH1 0x20 DUP6 LT ISZERO PUSH2 0x2D59 JUMPI DUP2 SWAP1 POP JUMPDEST PUSH2 0x2D6D PUSH2 0x2D65 DUP6 PUSH2 0x2C25 JUMP JUMPDEST DUP4 ADD DUP3 PUSH2 0x2D0C JUMP JUMPDEST POP POP JUMPDEST POP POP POP JUMP JUMPDEST PUSH1 0x0 DUP3 DUP3 SHR SWAP1 POP SWAP3 SWAP2 POP POP JUMP JUMPDEST PUSH1 0x0 PUSH2 0x2D93 PUSH1 0x0 NOT DUP5 PUSH1 0x8 MUL PUSH2 0x2D75 JUMP JUMPDEST NOT DUP1 DUP4 AND SWAP2 POP POP SWAP3 SWAP2 POP POP JUMP JUMPDEST PUSH1 0x0 PUSH2 0x2DAC DUP4 DUP4 PUSH2 0x2D82 JUMP JUMPDEST SWAP2 POP DUP3 PUSH1 0x2 MUL DUP3 OR SWAP1 POP SWAP3 SWAP2 POP POP JUMP JUMPDEST PUSH2 0x2DC5 DUP3 PUSH2 0x24C9 JUMP JUMPDEST PUSH8 0xFFFFFFFFFFFFFFFF DUP2 GT ISZERO PUSH2 0x2DDE JUMPI PUSH2 0x2DDD PUSH2 0x2342 JUMP JUMPDEST JUMPDEST PUSH2 0x2DE8 DUP3 SLOAD PUSH2 0x2BDF JUMP JUMPDEST PUSH2 0x2DF3 DUP3 DUP3 DUP6 PUSH2 0x2D2F JUMP JUMPDEST PUSH1 0x0 PUSH1 0x20 SWAP1 POP PUSH1 0x1F DUP4 GT PUSH1 0x1 DUP2 EQ PUSH2 0x2E26 JUMPI PUSH1 0x0 DUP5 ISZERO PUSH2 0x2E14 JUMPI DUP3 DUP8 ADD MLOAD SWAP1 POP JUMPDEST PUSH2 0x2E1E DUP6 DUP3 PUSH2 0x2DA0 JUMP JUMPDEST DUP7 SSTORE POP PUSH2 0x2E86 JUMP JUMPDEST PUSH1 0x1F NOT DUP5 AND PUSH2 0x2E34 DUP7 PUSH2 0x2C10 JUMP JUMPDEST PUSH1 0x0 JUMPDEST DUP3 DUP2 LT ISZERO PUSH2 0x2E5C JUMPI DUP5 DUP10 ADD MLOAD DUP3 SSTORE PUSH1 0x1 DUP3 ADD SWAP2 POP PUSH1 0x20 DUP6 ADD SWAP5 POP PUSH1 0x20 DUP2 ADD SWAP1 POP PUSH2 0x2E37 JUMP JUMPDEST DUP7 DUP4 LT ISZERO PUSH2 0x2E79 JUMPI DUP5 DUP10 ADD MLOAD PUSH2 0x2E75 PUSH1 0x1F DUP10 AND DUP3 PUSH2 0x2D82 JUMP JUMPDEST DUP4 SSTORE POP JUMPDEST PUSH1 0x1 PUSH1 0x2 DUP9 MUL ADD DUP9 SSTORE POP POP POP JUMPDEST POP POP POP POP POP POP JUMP JUMPDEST PUSH32 0x50726F7661626C6520717565727920776173204E4F542073656E742C20706C65 PUSH1 0x0 DUP3 ADD MSTORE PUSH32 0x6173652061646420736F6D652045544820746F20636F76657220666F72207468 PUSH1 0x20 DUP3 ADD MSTORE PUSH32 0x6520717565727920666565000000000000000000000000000000000000000000 PUSH1 0x40 DUP3 ADD MSTORE POP JUMP JUMPDEST PUSH1 0x0 PUSH2 0x2F10 PUSH1 0x4B DUP4 PUSH2 0x24D4 JUMP JUMPDEST SWAP2 POP PUSH2 0x2F1B DUP3 PUSH2 0x2E8E JUMP JUMPDEST PUSH1 0x60 DUP3 ADD SWAP1 POP SWAP2 SWAP1 POP JUMP JUMPDEST PUSH1 0x0 PUSH1 0x20 DUP3 ADD SWAP1 POP DUP2 DUP2 SUB PUSH1 0x0 DUP4 ADD MSTORE PUSH2 0x2F3F DUP2 PUSH2 0x2F03 JUMP JUMPDEST SWAP1 POP SWAP2 SWAP1 POP JUMP JUMPDEST PUSH32 0x50726F7661626C65207175657279207761732073656E742C207374616E64696E PUSH1 0x0 DUP3 ADD MSTORE PUSH32 0x6720627920666F722074686520616E737765722E2E0000000000000000000000 PUSH1 0x20 DUP3 ADD MSTORE POP JUMP JUMPDEST PUSH1 0x0 PUSH2 0x2FA2 PUSH1 0x35 DUP4 PUSH2 0x24D4 JUMP JUMPDEST SWAP2 POP PUSH2 0x2FAD DUP3 PUSH2 0x2F46 JUMP JUMPDEST PUSH1 0x40 DUP3 ADD SWAP1 POP SWAP2 SWAP1 POP JUMP JUMPDEST PUSH1 0x0 PUSH1 0x20 DUP3 ADD SWAP1 POP DUP2 DUP2 SUB PUSH1 0x0 DUP4 ADD MSTORE PUSH2 0x2FD1 DUP2 PUSH2 0x2F95 JUMP JUMPDEST SWAP1 POP SWAP2 SWAP1 POP JUMP JUMPDEST PUSH1 0x0 PUSH1 0x80 DUP3 ADD SWAP1 POP PUSH2 0x2FED PUSH1 0x0 DUP4 ADD DUP8 PUSH2 0x2291 JUMP JUMPDEST PUSH2 0x2FFA PUSH1 0x20 DUP4 ADD DUP7 PUSH2 0x26E7 JUMP JUMPDEST PUSH2 0x3007 PUSH1 0x40 DUP4 ADD DUP6 PUSH2 0x2291 JUMP JUMPDEST PUSH2 0x3014 PUSH1 0x60 DUP4 ADD DUP5 PUSH2 0x2291 JUMP JUMPDEST SWAP6 SWAP5 POP POP POP POP POP JUMP JUMPDEST PUSH32 0x696E76616C6964207369676E6174757265206C656E6774680000000000000000 PUSH1 0x0 DUP3 ADD MSTORE POP JUMP JUMPDEST PUSH1 0x0 PUSH2 0x3053 PUSH1 0x18 DUP4 PUSH2 0x24D4 JUMP JUMPDEST SWAP2 POP PUSH2 0x305E DUP3 PUSH2 0x301D JUMP JUMPDEST PUSH1 0x20 DUP3 ADD SWAP1 POP SWAP2 SWAP1 POP JUMP JUMPDEST PUSH1 0x0 PUSH1 0x20 DUP3 ADD SWAP1 POP DUP2 DUP2 SUB PUSH1 0x0 DUP4 ADD MSTORE PUSH2 0x3082 DUP2 PUSH2 0x3046 JUMP JUMPDEST SWAP1 POP SWAP2 SWAP1 POP JUMP JUMPDEST PUSH32 0x4272696467653A20496E76616C6964207369676E657200000000000000000000 PUSH1 0x0 DUP3 ADD MSTORE POP JUMP JUMPDEST PUSH1 0x0 PUSH2 0x30BF PUSH1 0x16 DUP4 PUSH2 0x24D4 JUMP JUMPDEST SWAP2 POP PUSH2 0x30CA DUP3 PUSH2 0x3089 JUMP JUMPDEST PUSH1 0x20 DUP3 ADD SWAP1 POP SWAP2 SWAP1 POP JUMP JUMPDEST PUSH1 0x0 PUSH1 0x20 DUP3 ADD SWAP1 POP DUP2 DUP2 SUB PUSH1 0x0 DUP4 ADD MSTORE PUSH2 0x30EE DUP2 PUSH2 0x30B2 JUMP JUMPDEST SWAP1 POP SWAP2 SWAP1 POP JUMP JUMPDEST PUSH1 0x0 PUSH2 0x3100 DUP3 PUSH2 0x21EA JUMP JUMPDEST SWAP2 POP PUSH2 0x310B DUP4 PUSH2 0x21EA JUMP JUMPDEST SWAP3 POP DUP3 DUP3 MUL PUSH2 0x3119 DUP2 PUSH2 0x21EA JUMP JUMPDEST SWAP2 POP DUP3 DUP3 DIV DUP5 EQ DUP4 ISZERO OR PUSH2 0x3130 JUMPI PUSH2 0x312F PUSH2 0x2B39 JUMP JUMPDEST JUMPDEST POP SWAP3 SWAP2 POP POP JUMP JUMPDEST PUSH32 0x4E487B7100000000000000000000000000000000000000000000000000000000 PUSH1 0x0 MSTORE PUSH1 0x12 PUSH1 0x4 MSTORE PUSH1 0x24 PUSH1 0x0 REVERT JUMPDEST PUSH1 0x0 PUSH2 0x3171 DUP3 PUSH2 0x21EA JUMP JUMPDEST SWAP2 POP PUSH2 0x317C DUP4 PUSH2 0x21EA JUMP JUMPDEST SWAP3 POP DUP3 PUSH2 0x318C JUMPI PUSH2 0x318B PUSH2 0x3137 JUMP JUMPDEST JUMPDEST DUP3 DUP3 DIV SWAP1 POP SWAP3 SWAP2 POP POP JUMP JUMPDEST PUSH1 0x0 DUP2 SWAP1 POP SWAP3 SWAP2 POP POP JUMP JUMPDEST PUSH32 0x19457468657265756D205369676E6564204D6573736167653A0A333200000000 PUSH1 0x0 DUP3 ADD MSTORE POP JUMP JUMPDEST PUSH1 0x0 PUSH2 0x31D8 PUSH1 0x1C DUP4 PUSH2 0x3197 JUMP JUMPDEST SWAP2 POP PUSH2 0x31E3 DUP3 PUSH2 0x31A2 JUMP JUMPDEST PUSH1 0x1C DUP3 ADD SWAP1 POP SWAP2 SWAP1 POP JUMP JUMPDEST PUSH1 0x0 DUP2 SWAP1 POP SWAP2 SWAP1 POP JUMP JUMPDEST PUSH2 0x3209 PUSH2 0x3204 DUP3 PUSH2 0x2287 JUMP JUMPDEST PUSH2 0x31EE JUMP JUMPDEST DUP3 MSTORE POP POP JUMP JUMPDEST PUSH1 0x0 PUSH2 0x321A DUP3 PUSH2 0x31CB JUMP JUMPDEST SWAP2 POP PUSH2 0x3226 DUP3 DUP5 PUSH2 0x31F8 JUMP JUMPDEST PUSH1 0x20 DUP3 ADD SWAP2 POP DUP2 SWAP1 POP SWAP3 SWAP2 POP POP JUMP JUMPDEST PUSH1 0x0 DUP2 MLOAD SWAP1 POP PUSH2 0x3244 DUP2 PUSH2 0x21BE JUMP JUMPDEST SWAP3 SWAP2 POP POP JUMP JUMPDEST PUSH1 0x0 PUSH1 0x20 DUP3 DUP5 SUB SLT ISZERO PUSH2 0x3260 JUMPI PUSH2 0x325F PUSH2 0x2182 JUMP JUMPDEST JUMPDEST PUSH1 0x0 PUSH2 0x326E DUP5 DUP3 DUP6 ADD PUSH2 0x3235 JUMP JUMPDEST SWAP2 POP POP SWAP3 SWAP2 POP POP JUMP JUMPDEST PUSH1 0x0 DUP2 MLOAD SWAP1 POP PUSH2 0x3286 DUP2 PUSH2 0x21F4 JUMP JUMPDEST SWAP3 SWAP2 POP POP JUMP JUMPDEST PUSH1 0x0 PUSH1 0x20 DUP3 DUP5 SUB SLT ISZERO PUSH2 0x32A2 JUMPI PUSH2 0x32A1 PUSH2 0x2182 JUMP JUMPDEST JUMPDEST PUSH1 0x0 PUSH2 0x32B0 DUP5 DUP3 DUP6 ADD PUSH2 0x3277 JUMP JUMPDEST SWAP2 POP POP SWAP3 SWAP2 POP POP JUMP JUMPDEST PUSH1 0x0 PUSH2 0x32C4 DUP3 PUSH2 0x21EA JUMP JUMPDEST SWAP2 POP PUSH2 0x32CF DUP4 PUSH2 0x21EA JUMP JUMPDEST SWAP3 POP DUP3 DUP3 ADD SWAP1 POP DUP1 DUP3 GT ISZERO PUSH2 0x32E7 JUMPI PUSH2 0x32E6 PUSH2 0x2B39 JUMP JUMPDEST JUMPDEST SWAP3 SWAP2 POP POP JUMP JUMPDEST PUSH1 0x0 DUP2 SWAP1 POP SWAP2 SWAP1 POP JUMP JUMPDEST PUSH1 0x0 PUSH2 0x3312 PUSH2 0x330D PUSH2 0x3308 DUP5 PUSH2 0x32ED JUMP JUMPDEST PUSH2 0x2C94 JUMP JUMPDEST PUSH2 0x21EA JUMP JUMPDEST SWAP1 POP SWAP2 SWAP1 POP JUMP JUMPDEST PUSH2 0x3322 DUP2 PUSH2 0x32F7 JUMP JUMPDEST DUP3 MSTORE POP POP JUMP JUMPDEST PUSH1 0x0 PUSH1 0x60 DUP3 ADD SWAP1 POP PUSH2 0x333D PUSH1 0x0 DUP4 ADD DUP7 PUSH2 0x3319 JUMP JUMPDEST DUP2 DUP2 SUB PUSH1 0x20 DUP4 ADD MSTORE PUSH2 0x334F DUP2 DUP6 PUSH2 0x250F JUMP JUMPDEST SWAP1 POP DUP2 DUP2 SUB PUSH1 0x40 DUP4 ADD MSTORE PUSH2 0x3363 DUP2 DUP5 PUSH2 0x250F JUMP JUMPDEST SWAP1 POP SWAP5 SWAP4 POP POP POP POP JUMP JUMPDEST PUSH1 0x0 DUP2 MLOAD SWAP1 POP PUSH2 0x337C DUP2 PUSH2 0x22FB JUMP JUMPDEST SWAP3 SWAP2 POP POP JUMP JUMPDEST PUSH1 0x0 PUSH1 0x20 DUP3 DUP5 SUB SLT ISZERO PUSH2 0x3398 JUMPI PUSH2 0x3397 PUSH2 0x2182 JUMP JUMPDEST JUMPDEST PUSH1 0x0 PUSH2 0x33A6 DUP5 DUP3 DUP6 ADD PUSH2 0x336D JUMP JUMPDEST SWAP2 POP POP SWAP3 SWAP2 POP POP JUMP INVALID PUSH11 0x736F6E2868747470733A2F 0x2F PUSH2 0x7069 0x2E PUSH17 0x726F2E636F696E626173652E636F6D2F70 PUSH19 0x6F64756374732F4554482D4254432F7469636B PUSH6 0x72292E707269 PUSH4 0x65A26469 PUSH17 0x66735822122017EB2527803B9BFEF8DD90 0xC3 SHL SHL PUSH9 0x468C0446E74622CB67 0xAF 0xA5 PUSH3 0xA2624B MSTORE8 PUSH29 0x64736F6C63430008110033000000000000000000000000000000000000 "},"methodIdentifiers":{"ETHUSD()":"73db0844","__callback(bytes32,string)":"27dc297e","burnBtc(address,uint256)":"1983f09a","burnEth(address,uint256)":"59bb69a3","getEthSignedMessageHash(bytes32)":"fa540801","getMessageHash(address,address,uint256,uint256)":"0b71a0b7","mintBtc(address,address,uint256,uint256,uint256,bytes)":"ec690470","mintEth(address,address,uint256,uint256,uint256,bytes)":"d85fa800","recoverSigner(bytes32,bytes)":"97aba7f9","splitSignature(bytes)":"a7bb5803","updatePrice()":"673a7e28","verify(address,address,uint256,uint256,bytes)":"cffc18eb"}}}}}